{
  "_format": "hh-sol-artifact-1",
  "contractName": "MyToken",
  "sourceName": "contracts/nft.sol",
  "abi": [
    {
      "inputs": [],
      "stateMutability": "nonpayable",
      "type": "constructor"
    },
    {
      "anonymous": false,
      "inputs": [
        {
          "indexed": true,
          "internalType": "address",
          "name": "owner",
          "type": "address"
        },
        {
          "indexed": true,
          "internalType": "address",
          "name": "approved",
          "type": "address"
        },
        {
          "indexed": true,
          "internalType": "uint256",
          "name": "tokenId",
          "type": "uint256"
        }
      ],
      "name": "Approval",
      "type": "event"
    },
    {
      "anonymous": false,
      "inputs": [
        {
          "indexed": true,
          "internalType": "address",
          "name": "owner",
          "type": "address"
        },
        {
          "indexed": true,
          "internalType": "address",
          "name": "operator",
          "type": "address"
        },
        {
          "indexed": false,
          "internalType": "bool",
          "name": "approved",
          "type": "bool"
        }
      ],
      "name": "ApprovalForAll",
      "type": "event"
    },
    {
      "anonymous": false,
      "inputs": [
        {
          "indexed": true,
          "internalType": "bytes32",
          "name": "role",
          "type": "bytes32"
        },
        {
          "indexed": true,
          "internalType": "bytes32",
          "name": "previousAdminRole",
          "type": "bytes32"
        },
        {
          "indexed": true,
          "internalType": "bytes32",
          "name": "newAdminRole",
          "type": "bytes32"
        }
      ],
      "name": "RoleAdminChanged",
      "type": "event"
    },
    {
      "anonymous": false,
      "inputs": [
        {
          "indexed": true,
          "internalType": "bytes32",
          "name": "role",
          "type": "bytes32"
        },
        {
          "indexed": true,
          "internalType": "address",
          "name": "account",
          "type": "address"
        },
        {
          "indexed": true,
          "internalType": "address",
          "name": "sender",
          "type": "address"
        }
      ],
      "name": "RoleGranted",
      "type": "event"
    },
    {
      "anonymous": false,
      "inputs": [
        {
          "indexed": true,
          "internalType": "bytes32",
          "name": "role",
          "type": "bytes32"
        },
        {
          "indexed": true,
          "internalType": "address",
          "name": "account",
          "type": "address"
        },
        {
          "indexed": true,
          "internalType": "address",
          "name": "sender",
          "type": "address"
        }
      ],
      "name": "RoleRevoked",
      "type": "event"
    },
    {
      "anonymous": false,
      "inputs": [
        {
          "indexed": true,
          "internalType": "address",
          "name": "from",
          "type": "address"
        },
        {
          "indexed": true,
          "internalType": "address",
          "name": "to",
          "type": "address"
        },
        {
          "indexed": true,
          "internalType": "uint256",
          "name": "tokenId",
          "type": "uint256"
        }
      ],
      "name": "Transfer",
      "type": "event"
    },
    {
      "inputs": [],
      "name": "DEFAULT_ADMIN_ROLE",
      "outputs": [
        {
          "internalType": "bytes32",
          "name": "",
          "type": "bytes32"
        }
      ],
      "stateMutability": "view",
      "type": "function"
    },
    {
      "inputs": [],
      "name": "MINTER_ROLE",
      "outputs": [
        {
          "internalType": "bytes32",
          "name": "",
          "type": "bytes32"
        }
      ],
      "stateMutability": "view",
      "type": "function"
    },
    {
      "inputs": [
        {
          "internalType": "address",
          "name": "to",
          "type": "address"
        },
        {
          "internalType": "uint256",
          "name": "tokenId",
          "type": "uint256"
        }
      ],
      "name": "approve",
      "outputs": [],
      "stateMutability": "nonpayable",
      "type": "function"
    },
    {
      "inputs": [
        {
          "internalType": "address",
          "name": "owner",
          "type": "address"
        }
      ],
      "name": "balanceOf",
      "outputs": [
        {
          "internalType": "uint256",
          "name": "",
          "type": "uint256"
        }
      ],
      "stateMutability": "view",
      "type": "function"
    },
    {
      "inputs": [
        {
          "internalType": "uint256",
          "name": "tokenId",
          "type": "uint256"
        }
      ],
      "name": "burn",
      "outputs": [],
      "stateMutability": "nonpayable",
      "type": "function"
    },
    {
      "inputs": [
        {
          "internalType": "uint256",
          "name": "tokenId",
          "type": "uint256"
        }
      ],
      "name": "getApproved",
      "outputs": [
        {
          "internalType": "address",
          "name": "",
          "type": "address"
        }
      ],
      "stateMutability": "view",
      "type": "function"
    },
    {
      "inputs": [
        {
          "internalType": "bytes32",
          "name": "role",
          "type": "bytes32"
        }
      ],
      "name": "getRoleAdmin",
      "outputs": [
        {
          "internalType": "bytes32",
          "name": "",
          "type": "bytes32"
        }
      ],
      "stateMutability": "view",
      "type": "function"
    },
    {
      "inputs": [
        {
          "internalType": "bytes32",
          "name": "role",
          "type": "bytes32"
        },
        {
          "internalType": "address",
          "name": "account",
          "type": "address"
        }
      ],
      "name": "grantRole",
      "outputs": [],
      "stateMutability": "nonpayable",
      "type": "function"
    },
    {
      "inputs": [
        {
          "internalType": "bytes32",
          "name": "role",
          "type": "bytes32"
        },
        {
          "internalType": "address",
          "name": "account",
          "type": "address"
        }
      ],
      "name": "hasRole",
      "outputs": [
        {
          "internalType": "bool",
          "name": "",
          "type": "bool"
        }
      ],
      "stateMutability": "view",
      "type": "function"
    },
    {
      "inputs": [
        {
          "internalType": "address",
          "name": "owner",
          "type": "address"
        },
        {
          "internalType": "address",
          "name": "operator",
          "type": "address"
        }
      ],
      "name": "isApprovedForAll",
      "outputs": [
        {
          "internalType": "bool",
          "name": "",
          "type": "bool"
        }
      ],
      "stateMutability": "view",
      "type": "function"
    },
    {
      "inputs": [],
      "name": "name",
      "outputs": [
        {
          "internalType": "string",
          "name": "",
          "type": "string"
        }
      ],
      "stateMutability": "view",
      "type": "function"
    },
    {
      "inputs": [
        {
          "internalType": "uint256",
          "name": "tokenId",
          "type": "uint256"
        }
      ],
      "name": "ownerOf",
      "outputs": [
        {
          "internalType": "address",
          "name": "",
          "type": "address"
        }
      ],
      "stateMutability": "view",
      "type": "function"
    },
    {
      "inputs": [
        {
          "internalType": "bytes32",
          "name": "role",
          "type": "bytes32"
        },
        {
          "internalType": "address",
          "name": "account",
          "type": "address"
        }
      ],
      "name": "renounceRole",
      "outputs": [],
      "stateMutability": "nonpayable",
      "type": "function"
    },
    {
      "inputs": [
        {
          "internalType": "bytes32",
          "name": "role",
          "type": "bytes32"
        },
        {
          "internalType": "address",
          "name": "account",
          "type": "address"
        }
      ],
      "name": "revokeRole",
      "outputs": [],
      "stateMutability": "nonpayable",
      "type": "function"
    },
    {
      "inputs": [
        {
          "internalType": "address",
          "name": "to",
          "type": "address"
        },
        {
          "internalType": "string",
          "name": "uri",
          "type": "string"
        }
      ],
      "name": "safeMint",
      "outputs": [],
      "stateMutability": "nonpayable",
      "type": "function"
    },
    {
      "inputs": [
        {
          "internalType": "address",
          "name": "from",
          "type": "address"
        },
        {
          "internalType": "address",
          "name": "to",
          "type": "address"
        },
        {
          "internalType": "uint256",
          "name": "tokenId",
          "type": "uint256"
        }
      ],
      "name": "safeTransferFrom",
      "outputs": [],
      "stateMutability": "nonpayable",
      "type": "function"
    },
    {
      "inputs": [
        {
          "internalType": "address",
          "name": "from",
          "type": "address"
        },
        {
          "internalType": "address",
          "name": "to",
          "type": "address"
        },
        {
          "internalType": "uint256",
          "name": "tokenId",
          "type": "uint256"
        },
        {
          "internalType": "bytes",
          "name": "_data",
          "type": "bytes"
        }
      ],
      "name": "safeTransferFrom",
      "outputs": [],
      "stateMutability": "nonpayable",
      "type": "function"
    },
    {
      "inputs": [
        {
          "internalType": "address",
          "name": "operator",
          "type": "address"
        },
        {
          "internalType": "bool",
          "name": "approved",
          "type": "bool"
        }
      ],
      "name": "setApprovalForAll",
      "outputs": [],
      "stateMutability": "nonpayable",
      "type": "function"
    },
    {
      "inputs": [
        {
          "internalType": "bytes4",
          "name": "interfaceId",
          "type": "bytes4"
        }
      ],
      "name": "supportsInterface",
      "outputs": [
        {
          "internalType": "bool",
          "name": "",
          "type": "bool"
        }
      ],
      "stateMutability": "view",
      "type": "function"
    },
    {
      "inputs": [],
      "name": "symbol",
      "outputs": [
        {
          "internalType": "string",
          "name": "",
          "type": "string"
        }
      ],
      "stateMutability": "view",
      "type": "function"
    },
    {
      "inputs": [
        {
          "internalType": "uint256",
          "name": "index",
          "type": "uint256"
        }
      ],
      "name": "tokenByIndex",
      "outputs": [
        {
          "internalType": "uint256",
          "name": "",
          "type": "uint256"
        }
      ],
      "stateMutability": "view",
      "type": "function"
    },
    {
      "inputs": [
        {
          "internalType": "address",
          "name": "owner",
          "type": "address"
        },
        {
          "internalType": "uint256",
          "name": "index",
          "type": "uint256"
        }
      ],
      "name": "tokenOfOwnerByIndex",
      "outputs": [
        {
          "internalType": "uint256",
          "name": "",
          "type": "uint256"
        }
      ],
      "stateMutability": "view",
      "type": "function"
    },
    {
      "inputs": [
        {
          "internalType": "uint256",
          "name": "tokenId",
          "type": "uint256"
        }
      ],
      "name": "tokenURI",
      "outputs": [
        {
          "internalType": "string",
          "name": "",
          "type": "string"
        }
      ],
      "stateMutability": "view",
      "type": "function"
    },
    {
      "inputs": [],
      "name": "totalSupply",
      "outputs": [
        {
          "internalType": "uint256",
          "name": "",
          "type": "uint256"
        }
      ],
      "stateMutability": "view",
      "type": "function"
    },
    {
      "inputs": [
        {
          "internalType": "address",
          "name": "from",
          "type": "address"
        },
        {
          "internalType": "address",
          "name": "to",
          "type": "address"
        },
        {
          "internalType": "uint256",
          "name": "tokenId",
          "type": "uint256"
        }
      ],
      "name": "transferFrom",
      "outputs": [],
      "stateMutability": "nonpayable",
      "type": "function"
    }
  ],
  "bytecode": "0x60806040523480156200001157600080fd5b506040518060400160405280600781526020017f4d79546f6b656e000000000000000000000000000000000000000000000000008152506040518060400160405280600381526020017f4d544b000000000000000000000000000000000000000000000000000000000081525081600090805190602001906200009692919062000264565b508060019080519060200190620000af92919062000264565b505050620000c76000801b33620000ff60201b60201c565b620000f97f9f2df0fed2c77648de5860a4cc508cd0818c85b8b8a1ab4ceeef8d981c8956a633620000ff60201b60201c565b62000379565b620001118282620001f160201b60201c565b620001ed576001600b600084815260200190815260200160002060000160008373ffffffffffffffffffffffffffffffffffffffff1673ffffffffffffffffffffffffffffffffffffffff16815260200190815260200160002060006101000a81548160ff021916908315150217905550620001926200025c60201b60201c565b73ffffffffffffffffffffffffffffffffffffffff168173ffffffffffffffffffffffffffffffffffffffff16837f2f8788117e7eff1d82e926ec794901d17c78024a50270940304540a733656f0d60405160405180910390a45b5050565b6000600b600084815260200190815260200160002060000160008373ffffffffffffffffffffffffffffffffffffffff1673ffffffffffffffffffffffffffffffffffffffff16815260200190815260200160002060009054906101000a900460ff16905092915050565b600033905090565b828054620002729062000314565b90600052602060002090601f016020900481019282620002965760008555620002e2565b82601f10620002b157805160ff1916838001178555620002e2565b82800160010185558215620002e2579182015b82811115620002e1578251825591602001919060010190620002c4565b5b509050620002f19190620002f5565b5090565b5b8082111562000310576000816000905550600101620002f6565b5090565b600060028204905060018216806200032d57607f821691505b602082108114156200034457620003436200034a565b5b50919050565b7f4e487b7100000000000000000000000000000000000000000000000000000000600052602260045260246000fd5b61421f80620003896000396000f3fe608060405234801561001057600080fd5b50600436106101735760003560e01c80634f6ccce7116100de578063a22cb46511610097578063d204c45e11610071578063d204c45e14610480578063d53913931461049c578063d547741f146104ba578063e985e9c5146104d657610173565b8063a22cb46514610418578063b88d4fde14610434578063c87b56dd1461045057610173565b80634f6ccce71461031c5780636352211e1461034c57806370a082311461037c57806391d14854146103ac57806395d89b41146103dc578063a217fddf146103fa57610173565b8063248a9ca311610130578063248a9ca31461024c5780632f2ff15d1461027c5780632f745c591461029857806336568abe146102c857806342842e0e146102e457806342966c681461030057610173565b806301ffc9a71461017857806306fdde03146101a8578063081812fc146101c6578063095ea7b3146101f657806318160ddd1461021257806323b872dd14610230575b600080fd5b610192600480360381019061018d9190612df9565b610506565b60405161019f9190613349565b60405180910390f35b6101b0610518565b6040516101bd919061337f565b60405180910390f35b6101e060048036038101906101db9190612e53565b6105aa565b6040516101ed91906132e2565b60405180910390f35b610210600480360381019061020b9190612d4c565b61062f565b005b61021a610747565b6040516102279190613641565b60405180910390f35b61024a60048036038101906102459190612bda565b610754565b005b61026660048036038101906102619190612d8c565b6107b4565b6040516102739190613364565b60405180910390f35b61029660048036038101906102919190612db9565b6107d4565b005b6102b260048036038101906102ad9190612d4c565b6107fd565b6040516102bf9190613641565b60405180910390f35b6102e260048036038101906102dd9190612db9565b6108a2565b005b6102fe60048036038101906102f99190612bda565b610925565b005b61031a60048036038101906103159190612e53565b610945565b005b61033660048036038101906103319190612e53565b6109a1565b6040516103439190613641565b60405180910390f35b61036660048036038101906103619190612e53565b610a12565b60405161037391906132e2565b60405180910390f35b61039660048036038101906103919190612b6d565b610ac4565b6040516103a39190613641565b60405180910390f35b6103c660048036038101906103c19190612db9565b610b7c565b6040516103d39190613349565b60405180910390f35b6103e4610be7565b6040516103f1919061337f565b60405180910390f35b610402610c79565b60405161040f9190613364565b60405180910390f35b610432600480360381019061042d9190612cb0565b610c80565b005b61044e60048036038101906104499190612c2d565b610c96565b005b61046a60048036038101906104659190612e53565b610cf8565b604051610477919061337f565b60405180910390f35b61049a60048036038101906104959190612cf0565b610d0a565b005b6104a4610d6e565b6040516104b19190613364565b60405180910390f35b6104d460048036038101906104cf9190612db9565b610d92565b005b6104f060048036038101906104eb9190612b9a565b610dbb565b6040516104fd9190613349565b60405180910390f35b600061051182610e4f565b9050919050565b60606000805461052790613925565b80601f016020809104026020016040519081016040528092919081815260200182805461055390613925565b80156105a05780601f10610575576101008083540402835291602001916105a0565b820191906000526020600020905b81548152906001019060200180831161058357829003601f168201915b5050505050905090565b60006105b582610ec9565b6105f4576040517f08c379a00000000000000000000000000000000000000000000000000000000081526004016105eb90613561565b60405180910390fd5b6004600083815260200190815260200160002060009054906101000a900473ffffffffffffffffffffffffffffffffffffffff169050919050565b600061063a82610a12565b90508073ffffffffffffffffffffffffffffffffffffffff168373ffffffffffffffffffffffffffffffffffffffff1614156106ab576040517f08c379a00000000000000000000000000000000000000000000000000000000081526004016106a2906135a1565b60405180910390fd5b8073ffffffffffffffffffffffffffffffffffffffff166106ca610f35565b73ffffffffffffffffffffffffffffffffffffffff1614806106f957506106f8816106f3610f35565b610dbb565b5b610738576040517f08c379a000000000000000000000000000000000000000000000000000000000815260040161072f906134a1565b60405180910390fd5b6107428383610f3d565b505050565b6000600880549050905090565b61076561075f610f35565b82610ff6565b6107a4576040517f08c379a000000000000000000000000000000000000000000000000000000000815260040161079b906135c1565b60405180910390fd5b6107af8383836110d4565b505050565b6000600b6000838152602001908152602001600020600101549050919050565b6107dd826107b4565b6107ee816107e9610f35565b61133b565b6107f883836113d8565b505050565b600061080883610ac4565b8210610849576040517f08c379a0000000000000000000000000000000000000000000000000000000008152600401610840906133c1565b60405180910390fd5b600660008473ffffffffffffffffffffffffffffffffffffffff1673ffffffffffffffffffffffffffffffffffffffff168152602001908152602001600020600083815260200190815260200160002054905092915050565b6108aa610f35565b73ffffffffffffffffffffffffffffffffffffffff168173ffffffffffffffffffffffffffffffffffffffff1614610917576040517f08c379a000000000000000000000000000000000000000000000000000000000815260040161090e90613621565b60405180910390fd5b61092182826114b9565b5050565b61094083838360405180602001604052806000815250610c96565b505050565b610956610950610f35565b82610ff6565b610995576040517f08c379a000000000000000000000000000000000000000000000000000000000815260040161098c90613601565b60405180910390fd5b61099e8161159b565b50565b60006109ab610747565b82106109ec576040517f08c379a00000000000000000000000000000000000000000000000000000000081526004016109e3906135e1565b60405180910390fd5b60088281548110610a00576109ff613abe565b5b90600052602060002001549050919050565b6000806002600084815260200190815260200160002060009054906101000a900473ffffffffffffffffffffffffffffffffffffffff169050600073ffffffffffffffffffffffffffffffffffffffff168173ffffffffffffffffffffffffffffffffffffffff161415610abb576040517f08c379a0000000000000000000000000000000000000000000000000000000008152600401610ab2906134e1565b60405180910390fd5b80915050919050565b60008073ffffffffffffffffffffffffffffffffffffffff168273ffffffffffffffffffffffffffffffffffffffff161415610b35576040517f08c379a0000000000000000000000000000000000000000000000000000000008152600401610b2c906134c1565b60405180910390fd5b600360008373ffffffffffffffffffffffffffffffffffffffff1673ffffffffffffffffffffffffffffffffffffffff168152602001908152602001600020549050919050565b6000600b600084815260200190815260200160002060000160008373ffffffffffffffffffffffffffffffffffffffff1673ffffffffffffffffffffffffffffffffffffffff16815260200190815260200160002060009054906101000a900460ff16905092915050565b606060018054610bf690613925565b80601f0160208091040260200160405190810160405280929190818152602001828054610c2290613925565b8015610c6f5780601f10610c4457610100808354040283529160200191610c6f565b820191906000526020600020905b815481529060010190602001808311610c5257829003601f168201915b5050505050905090565b6000801b81565b610c92610c8b610f35565b83836115a7565b5050565b610ca7610ca1610f35565b83610ff6565b610ce6576040517f08c379a0000000000000000000000000000000000000000000000000000000008152600401610cdd906135c1565b60405180910390fd5b610cf284848484611714565b50505050565b6060610d0382611770565b9050919050565b7f9f2df0fed2c77648de5860a4cc508cd0818c85b8b8a1ab4ceeef8d981c8956a6610d3c81610d37610f35565b61133b565b6000610d48600c6118c2565b9050610d54600c6118d0565b610d5e84826118e6565b610d688184611904565b50505050565b7f9f2df0fed2c77648de5860a4cc508cd0818c85b8b8a1ab4ceeef8d981c8956a681565b610d9b826107b4565b610dac81610da7610f35565b61133b565b610db683836114b9565b505050565b6000600560008473ffffffffffffffffffffffffffffffffffffffff1673ffffffffffffffffffffffffffffffffffffffff16815260200190815260200160002060008373ffffffffffffffffffffffffffffffffffffffff1673ffffffffffffffffffffffffffffffffffffffff16815260200190815260200160002060009054906101000a900460ff16905092915050565b60007f7965db0b000000000000000000000000000000000000000000000000000000007bffffffffffffffffffffffffffffffffffffffffffffffffffffffff1916827bffffffffffffffffffffffffffffffffffffffffffffffffffffffff19161480610ec25750610ec182611978565b5b9050919050565b60008073ffffffffffffffffffffffffffffffffffffffff166002600084815260200190815260200160002060009054906101000a900473ffffffffffffffffffffffffffffffffffffffff1673ffffffffffffffffffffffffffffffffffffffff1614159050919050565b600033905090565b816004600083815260200190815260200160002060006101000a81548173ffffffffffffffffffffffffffffffffffffffff021916908373ffffffffffffffffffffffffffffffffffffffff160217905550808273ffffffffffffffffffffffffffffffffffffffff16610fb083610a12565b73ffffffffffffffffffffffffffffffffffffffff167f8c5be1e5ebec7d5bd14f71427d1e84f3dd0314c0f7b2291e5b200ac8c7c3b92560405160405180910390a45050565b600061100182610ec9565b611040576040517f08c379a000000000000000000000000000000000000000000000000000000000815260040161103790613481565b60405180910390fd5b600061104b83610a12565b90508073ffffffffffffffffffffffffffffffffffffffff168473ffffffffffffffffffffffffffffffffffffffff1614806110ba57508373ffffffffffffffffffffffffffffffffffffffff166110a2846105aa565b73ffffffffffffffffffffffffffffffffffffffff16145b806110cb57506110ca8185610dbb565b5b91505092915050565b8273ffffffffffffffffffffffffffffffffffffffff166110f482610a12565b73ffffffffffffffffffffffffffffffffffffffff161461114a576040517f08c379a000000000000000000000000000000000000000000000000000000000815260040161114190613401565b60405180910390fd5b600073ffffffffffffffffffffffffffffffffffffffff168273ffffffffffffffffffffffffffffffffffffffff1614156111ba576040517f08c379a00000000000000000000000000000000000000000000000000000000081526004016111b190613441565b60405180910390fd5b6111c58383836119f2565b6111d0600082610f3d565b6001600360008573ffffffffffffffffffffffffffffffffffffffff1673ffffffffffffffffffffffffffffffffffffffff16815260200190815260200160002060008282546112209190613807565b925050819055506001600360008473ffffffffffffffffffffffffffffffffffffffff1673ffffffffffffffffffffffffffffffffffffffff16815260200190815260200160002060008282546112779190613726565b92505081905550816002600083815260200190815260200160002060006101000a81548173ffffffffffffffffffffffffffffffffffffffff021916908373ffffffffffffffffffffffffffffffffffffffff160217905550808273ffffffffffffffffffffffffffffffffffffffff168473ffffffffffffffffffffffffffffffffffffffff167fddf252ad1be2c89b69c2b068fc378daa952ba7f163c4a11628f55a4df523b3ef60405160405180910390a4611336838383611a02565b505050565b6113458282610b7c565b6113d45761136a8173ffffffffffffffffffffffffffffffffffffffff166014611a07565b6113788360001c6020611a07565b6040516020016113899291906132a8565b6040516020818303038152906040526040517f08c379a00000000000000000000000000000000000000000000000000000000081526004016113cb919061337f565b60405180910390fd5b5050565b6113e28282610b7c565b6114b5576001600b600084815260200190815260200160002060000160008373ffffffffffffffffffffffffffffffffffffffff1673ffffffffffffffffffffffffffffffffffffffff16815260200190815260200160002060006101000a81548160ff02191690831515021790555061145a610f35565b73ffffffffffffffffffffffffffffffffffffffff168173ffffffffffffffffffffffffffffffffffffffff16837f2f8788117e7eff1d82e926ec794901d17c78024a50270940304540a733656f0d60405160405180910390a45b5050565b6114c38282610b7c565b15611597576000600b600084815260200190815260200160002060000160008373ffffffffffffffffffffffffffffffffffffffff1673ffffffffffffffffffffffffffffffffffffffff16815260200190815260200160002060006101000a81548160ff02191690831515021790555061153c610f35565b73ffffffffffffffffffffffffffffffffffffffff168173ffffffffffffffffffffffffffffffffffffffff16837ff6391f5c32d9c69d2a47ea670b442974b53935d1edc7fd64eb21e047a839171b60405160405180910390a45b5050565b6115a481611c43565b50565b8173ffffffffffffffffffffffffffffffffffffffff168373ffffffffffffffffffffffffffffffffffffffff161415611616576040517f08c379a000000000000000000000000000000000000000000000000000000000815260040161160d90613461565b60405180910390fd5b80600560008573ffffffffffffffffffffffffffffffffffffffff1673ffffffffffffffffffffffffffffffffffffffff16815260200190815260200160002060008473ffffffffffffffffffffffffffffffffffffffff1673ffffffffffffffffffffffffffffffffffffffff16815260200190815260200160002060006101000a81548160ff0219169083151502179055508173ffffffffffffffffffffffffffffffffffffffff168373ffffffffffffffffffffffffffffffffffffffff167f17307eab39ab6107e8899845ad3d59bd9653f200f220920489ca2b5937696c31836040516117079190613349565b60405180910390a3505050565b61171f8484846110d4565b61172b84848484611c96565b61176a576040517f08c379a0000000000000000000000000000000000000000000000000000000008152600401611761906133e1565b60405180910390fd5b50505050565b606061177b82610ec9565b6117ba576040517f08c379a00000000000000000000000000000000000000000000000000000000081526004016117b190613541565b60405180910390fd5b6000600a600084815260200190815260200160002080546117da90613925565b80601f016020809104026020016040519081016040528092919081815260200182805461180690613925565b80156118535780601f1061182857610100808354040283529160200191611853565b820191906000526020600020905b81548152906001019060200180831161183657829003601f168201915b505050505090506000611864611e2d565b905060008151141561187a5781925050506118bd565b6000825111156118af578082604051602001611897929190613284565b604051602081830303815290604052925050506118bd565b6118b884611e44565b925050505b919050565b600081600001549050919050565b6001816000016000828254019250508190555050565b611900828260405180602001604052806000815250611eeb565b5050565b61190d82610ec9565b61194c576040517f08c379a000000000000000000000000000000000000000000000000000000000815260040161194390613501565b60405180910390fd5b80600a6000848152602001908152602001600020908051906020019061197392919061292c565b505050565b60007f780e9d63000000000000000000000000000000000000000000000000000000007bffffffffffffffffffffffffffffffffffffffffffffffffffffffff1916827bffffffffffffffffffffffffffffffffffffffffffffffffffffffff191614806119eb57506119ea82611f46565b5b9050919050565b6119fd838383612028565b505050565b505050565b606060006002836002611a1a91906137ad565b611a249190613726565b67ffffffffffffffff811115611a3d57611a3c613aed565b5b6040519080825280601f01601f191660200182016040528015611a6f5781602001600182028036833780820191505090505b5090507f300000000000000000000000000000000000000000000000000000000000000081600081518110611aa757611aa6613abe565b5b60200101907effffffffffffffffffffffffffffffffffffffffffffffffffffffffffffff1916908160001a9053507f780000000000000000000000000000000000000000000000000000000000000081600181518110611b0b57611b0a613abe565b5b60200101907effffffffffffffffffffffffffffffffffffffffffffffffffffffffffffff1916908160001a90535060006001846002611b4b91906137ad565b611b559190613726565b90505b6001811115611bf5577f3031323334353637383961626364656600000000000000000000000000000000600f861660108110611b9757611b96613abe565b5b1a60f81b828281518110611bae57611bad613abe565b5b60200101907effffffffffffffffffffffffffffffffffffffffffffffffffffffffffffff1916908160001a905350600485901c945080611bee906138fb565b9050611b58565b5060008414611c39576040517f08c379a0000000000000000000000000000000000000000000000000000000008152600401611c30906133a1565b60405180910390fd5b8091505092915050565b611c4c8161213c565b6000600a60008381526020019081526020016000208054611c6c90613925565b905014611c9357600a60008281526020019081526020016000206000611c9291906129b2565b5b50565b6000611cb78473ffffffffffffffffffffffffffffffffffffffff16612259565b15611e20578373ffffffffffffffffffffffffffffffffffffffff1663150b7a02611ce0610f35565b8786866040518563ffffffff1660e01b8152600401611d0294939291906132fd565b602060405180830381600087803b158015611d1c57600080fd5b505af1925050508015611d4d57506040513d601f19601f82011682018060405250810190611d4a9190612e26565b60015b611dd0573d8060008114611d7d576040519150601f19603f3d011682016040523d82523d6000602084013e611d82565b606091505b50600081511415611dc8576040517f08c379a0000000000000000000000000000000000000000000000000000000008152600401611dbf906133e1565b60405180910390fd5b805181602001fd5b63150b7a0260e01b7bffffffffffffffffffffffffffffffffffffffffffffffffffffffff1916817bffffffffffffffffffffffffffffffffffffffffffffffffffffffff191614915050611e25565b600190505b949350505050565b606060405180602001604052806000815250905090565b6060611e4f82610ec9565b611e8e576040517f08c379a0000000000000000000000000000000000000000000000000000000008152600401611e8590613581565b60405180910390fd5b6000611e98611e2d565b90506000815111611eb85760405180602001604052806000815250611ee3565b80611ec28461227c565b604051602001611ed3929190613284565b6040516020818303038152906040525b915050919050565b611ef583836123dd565b611f026000848484611c96565b611f41576040517f08c379a0000000000000000000000000000000000000000000000000000000008152600401611f38906133e1565b60405180910390fd5b505050565b60007f80ac58cd000000000000000000000000000000000000000000000000000000007bffffffffffffffffffffffffffffffffffffffffffffffffffffffff1916827bffffffffffffffffffffffffffffffffffffffffffffffffffffffff1916148061201157507f5b5e139f000000000000000000000000000000000000000000000000000000007bffffffffffffffffffffffffffffffffffffffffffffffffffffffff1916827bffffffffffffffffffffffffffffffffffffffffffffffffffffffff1916145b806120215750612020826125b7565b5b9050919050565b612033838383612621565b600073ffffffffffffffffffffffffffffffffffffffff168373ffffffffffffffffffffffffffffffffffffffff1614156120765761207181612626565b6120b5565b8173ffffffffffffffffffffffffffffffffffffffff168373ffffffffffffffffffffffffffffffffffffffff16146120b4576120b3838261266f565b5b5b600073ffffffffffffffffffffffffffffffffffffffff168273ffffffffffffffffffffffffffffffffffffffff1614156120f8576120f3816127dc565b612137565b8273ffffffffffffffffffffffffffffffffffffffff168273ffffffffffffffffffffffffffffffffffffffff16146121365761213582826128ad565b5b5b505050565b600061214782610a12565b9050612155816000846119f2565b612160600083610f3d565b6001600360008373ffffffffffffffffffffffffffffffffffffffff1673ffffffffffffffffffffffffffffffffffffffff16815260200190815260200160002060008282546121b09190613807565b925050819055506002600083815260200190815260200160002060006101000a81549073ffffffffffffffffffffffffffffffffffffffff021916905581600073ffffffffffffffffffffffffffffffffffffffff168273ffffffffffffffffffffffffffffffffffffffff167fddf252ad1be2c89b69c2b068fc378daa952ba7f163c4a11628f55a4df523b3ef60405160405180910390a461225581600084611a02565b5050565b6000808273ffffffffffffffffffffffffffffffffffffffff163b119050919050565b606060008214156122c4576040518060400160405280600181526020017f300000000000000000000000000000000000000000000000000000000000000081525090506123d8565b600082905060005b600082146122f65780806122df90613988565b915050600a826122ef919061377c565b91506122cc565b60008167ffffffffffffffff81111561231257612311613aed565b5b6040519080825280601f01601f1916602001820160405280156123445781602001600182028036833780820191505090505b5090505b600085146123d15760018261235d9190613807565b9150600a8561236c91906139d1565b60306123789190613726565b60f81b81838151811061238e5761238d613abe565b5b60200101907effffffffffffffffffffffffffffffffffffffffffffffffffffffffffffff1916908160001a905350600a856123ca919061377c565b9450612348565b8093505050505b919050565b600073ffffffffffffffffffffffffffffffffffffffff168273ffffffffffffffffffffffffffffffffffffffff16141561244d576040517f08c379a000000000000000000000000000000000000000000000000000000000815260040161244490613521565b60405180910390fd5b61245681610ec9565b15612496576040517f08c379a000000000000000000000000000000000000000000000000000000000815260040161248d90613421565b60405180910390fd5b6124a2600083836119f2565b6001600360008473ffffffffffffffffffffffffffffffffffffffff1673ffffffffffffffffffffffffffffffffffffffff16815260200190815260200160002060008282546124f29190613726565b92505081905550816002600083815260200190815260200160002060006101000a81548173ffffffffffffffffffffffffffffffffffffffff021916908373ffffffffffffffffffffffffffffffffffffffff160217905550808273ffffffffffffffffffffffffffffffffffffffff16600073ffffffffffffffffffffffffffffffffffffffff167fddf252ad1be2c89b69c2b068fc378daa952ba7f163c4a11628f55a4df523b3ef60405160405180910390a46125b360008383611a02565b5050565b60007f01ffc9a7000000000000000000000000000000000000000000000000000000007bffffffffffffffffffffffffffffffffffffffffffffffffffffffff1916827bffffffffffffffffffffffffffffffffffffffffffffffffffffffff1916149050919050565b505050565b6008805490506009600083815260200190815260200160002081905550600881908060018154018082558091505060019003906000526020600020016000909190919091505550565b6000600161267c84610ac4565b6126869190613807565b905060006007600084815260200190815260200160002054905081811461276b576000600660008673ffffffffffffffffffffffffffffffffffffffff1673ffffffffffffffffffffffffffffffffffffffff168152602001908152602001600020600084815260200190815260200160002054905080600660008773ffffffffffffffffffffffffffffffffffffffff1673ffffffffffffffffffffffffffffffffffffffff168152602001908152602001600020600084815260200190815260200160002081905550816007600083815260200190815260200160002081905550505b6007600084815260200190815260200160002060009055600660008573ffffffffffffffffffffffffffffffffffffffff1673ffffffffffffffffffffffffffffffffffffffff16815260200190815260200160002060008381526020019081526020016000206000905550505050565b600060016008805490506127f09190613807565b90506000600960008481526020019081526020016000205490506000600883815481106128205761281f613abe565b5b90600052602060002001549050806008838154811061284257612841613abe565b5b90600052602060002001819055508160096000838152602001908152602001600020819055506009600085815260200190815260200160002060009055600880548061289157612890613a8f565b5b6001900381819060005260206000200160009055905550505050565b60006128b883610ac4565b905081600660008573ffffffffffffffffffffffffffffffffffffffff1673ffffffffffffffffffffffffffffffffffffffff168152602001908152602001600020600083815260200190815260200160002081905550806007600084815260200190815260200160002081905550505050565b82805461293890613925565b90600052602060002090601f01602090048101928261295a57600085556129a1565b82601f1061297357805160ff19168380011785556129a1565b828001600101855582156129a1579182015b828111156129a0578251825591602001919060010190612985565b5b5090506129ae91906129f2565b5090565b5080546129be90613925565b6000825580601f106129d057506129ef565b601f0160209004906000526020600020908101906129ee91906129f2565b5b50565b5b80821115612a0b5760008160009055506001016129f3565b5090565b6000612a22612a1d84613681565b61365c565b905082815260208101848484011115612a3e57612a3d613b21565b5b612a498482856138b9565b509392505050565b6000612a64612a5f846136b2565b61365c565b905082815260208101848484011115612a8057612a7f613b21565b5b612a8b8482856138b9565b509392505050565b600081359050612aa281614176565b92915050565b600081359050612ab78161418d565b92915050565b600081359050612acc816141a4565b92915050565b600081359050612ae1816141bb565b92915050565b600081519050612af6816141bb565b92915050565b600082601f830112612b1157612b10613b1c565b5b8135612b21848260208601612a0f565b91505092915050565b600082601f830112612b3f57612b3e613b1c565b5b8135612b4f848260208601612a51565b91505092915050565b600081359050612b67816141d2565b92915050565b600060208284031215612b8357612b82613b2b565b5b6000612b9184828501612a93565b91505092915050565b60008060408385031215612bb157612bb0613b2b565b5b6000612bbf85828601612a93565b9250506020612bd085828601612a93565b9150509250929050565b600080600060608486031215612bf357612bf2613b2b565b5b6000612c0186828701612a93565b9350506020612c1286828701612a93565b9250506040612c2386828701612b58565b9150509250925092565b60008060008060808587031215612c4757612c46613b2b565b5b6000612c5587828801612a93565b9450506020612c6687828801612a93565b9350506040612c7787828801612b58565b925050606085013567ffffffffffffffff811115612c9857612c97613b26565b5b612ca487828801612afc565b91505092959194509250565b60008060408385031215612cc757612cc6613b2b565b5b6000612cd585828601612a93565b9250506020612ce685828601612aa8565b9150509250929050565b60008060408385031215612d0757612d06613b2b565b5b6000612d1585828601612a93565b925050602083013567ffffffffffffffff811115612d3657612d35613b26565b5b612d4285828601612b2a565b9150509250929050565b60008060408385031215612d6357612d62613b2b565b5b6000612d7185828601612a93565b9250506020612d8285828601612b58565b9150509250929050565b600060208284031215612da257612da1613b2b565b5b6000612db084828501612abd565b91505092915050565b60008060408385031215612dd057612dcf613b2b565b5b6000612dde85828601612abd565b9250506020612def85828601612a93565b9150509250929050565b600060208284031215612e0f57612e0e613b2b565b5b6000612e1d84828501612ad2565b91505092915050565b600060208284031215612e3c57612e3b613b2b565b5b6000612e4a84828501612ae7565b91505092915050565b600060208284031215612e6957612e68613b2b565b5b6000612e7784828501612b58565b91505092915050565b612e898161383b565b82525050565b612e988161384d565b82525050565b612ea781613859565b82525050565b6000612eb8826136e3565b612ec281856136f9565b9350612ed28185602086016138c8565b612edb81613b30565b840191505092915050565b6000612ef1826136ee565b612efb818561370a565b9350612f0b8185602086016138c8565b612f1481613b30565b840191505092915050565b6000612f2a826136ee565b612f34818561371b565b9350612f448185602086016138c8565b80840191505092915050565b6000612f5d60208361370a565b9150612f6882613b41565b602082019050919050565b6000612f80602b8361370a565b9150612f8b82613b6a565b604082019050919050565b6000612fa360328361370a565b9150612fae82613bb9565b604082019050919050565b6000612fc660258361370a565b9150612fd182613c08565b604082019050919050565b6000612fe9601c8361370a565b9150612ff482613c57565b602082019050919050565b600061300c60248361370a565b915061301782613c80565b604082019050919050565b600061302f60198361370a565b915061303a82613ccf565b602082019050919050565b6000613052602c8361370a565b915061305d82613cf8565b604082019050919050565b600061307560388361370a565b915061308082613d47565b604082019050919050565b6000613098602a8361370a565b91506130a382613d96565b604082019050919050565b60006130bb60298361370a565b91506130c682613de5565b604082019050919050565b60006130de602e8361370a565b91506130e982613e34565b604082019050919050565b600061310160208361370a565b915061310c82613e83565b602082019050919050565b600061312460318361370a565b915061312f82613eac565b604082019050919050565b6000613147602c8361370a565b915061315282613efb565b604082019050919050565b600061316a602f8361370a565b915061317582613f4a565b604082019050919050565b600061318d60218361370a565b915061319882613f99565b604082019050919050565b60006131b060318361370a565b91506131bb82613fe8565b604082019050919050565b60006131d3602c8361370a565b91506131de82614037565b604082019050919050565b60006131f660178361371b565b915061320182614086565b601782019050919050565b600061321960308361370a565b9150613224826140af565b604082019050919050565b600061323c60118361371b565b9150613247826140fe565b601182019050919050565b600061325f602f8361370a565b915061326a82614127565b604082019050919050565b61327e816138af565b82525050565b60006132908285612f1f565b915061329c8284612f1f565b91508190509392505050565b60006132b3826131e9565b91506132bf8285612f1f565b91506132ca8261322f565b91506132d68284612f1f565b91508190509392505050565b60006020820190506132f76000830184612e80565b92915050565b60006080820190506133126000830187612e80565b61331f6020830186612e80565b61332c6040830185613275565b818103606083015261333e8184612ead565b905095945050505050565b600060208201905061335e6000830184612e8f565b92915050565b60006020820190506133796000830184612e9e565b92915050565b600060208201905081810360008301526133998184612ee6565b905092915050565b600060208201905081810360008301526133ba81612f50565b9050919050565b600060208201905081810360008301526133da81612f73565b9050919050565b600060208201905081810360008301526133fa81612f96565b9050919050565b6000602082019050818103600083015261341a81612fb9565b9050919050565b6000602082019050818103600083015261343a81612fdc565b9050919050565b6000602082019050818103600083015261345a81612fff565b9050919050565b6000602082019050818103600083015261347a81613022565b9050919050565b6000602082019050818103600083015261349a81613045565b9050919050565b600060208201905081810360008301526134ba81613068565b9050919050565b600060208201905081810360008301526134da8161308b565b9050919050565b600060208201905081810360008301526134fa816130ae565b9050919050565b6000602082019050818103600083015261351a816130d1565b9050919050565b6000602082019050818103600083015261353a816130f4565b9050919050565b6000602082019050818103600083015261355a81613117565b9050919050565b6000602082019050818103600083015261357a8161313a565b9050919050565b6000602082019050818103600083015261359a8161315d565b9050919050565b600060208201905081810360008301526135ba81613180565b9050919050565b600060208201905081810360008301526135da816131a3565b9050919050565b600060208201905081810360008301526135fa816131c6565b9050919050565b6000602082019050818103600083015261361a8161320c565b9050919050565b6000602082019050818103600083015261363a81613252565b9050919050565b60006020820190506136566000830184613275565b92915050565b6000613666613677565b90506136728282613957565b919050565b6000604051905090565b600067ffffffffffffffff82111561369c5761369b613aed565b5b6136a582613b30565b9050602081019050919050565b600067ffffffffffffffff8211156136cd576136cc613aed565b5b6136d682613b30565b9050602081019050919050565b600081519050919050565b600081519050919050565b600082825260208201905092915050565b600082825260208201905092915050565b600081905092915050565b6000613731826138af565b915061373c836138af565b9250827fffffffffffffffffffffffffffffffffffffffffffffffffffffffffffffffff0382111561377157613770613a02565b5b828201905092915050565b6000613787826138af565b9150613792836138af565b9250826137a2576137a1613a31565b5b828204905092915050565b60006137b8826138af565b91506137c3836138af565b9250817fffffffffffffffffffffffffffffffffffffffffffffffffffffffffffffffff04831182151516156137fc576137fb613a02565b5b828202905092915050565b6000613812826138af565b915061381d836138af565b9250828210156138305761382f613a02565b5b828203905092915050565b60006138468261388f565b9050919050565b60008115159050919050565b6000819050919050565b60007fffffffff0000000000000000000000000000000000000000000000000000000082169050919050565b600073ffffffffffffffffffffffffffffffffffffffff82169050919050565b6000819050919050565b82818337600083830152505050565b60005b838110156138e65780820151818401526020810190506138cb565b838111156138f5576000848401525b50505050565b6000613906826138af565b9150600082141561391a57613919613a02565b5b600182039050919050565b6000600282049050600182168061393d57607f821691505b6020821081141561395157613950613a60565b5b50919050565b61396082613b30565b810181811067ffffffffffffffff8211171561397f5761397e613aed565b5b80604052505050565b6000613993826138af565b91507fffffffffffffffffffffffffffffffffffffffffffffffffffffffffffffffff8214156139c6576139c5613a02565b5b600182019050919050565b60006139dc826138af565b91506139e7836138af565b9250826139f7576139f6613a31565b5b828206905092915050565b7f4e487b7100000000000000000000000000000000000000000000000000000000600052601160045260246000fd5b7f4e487b7100000000000000000000000000000000000000000000000000000000600052601260045260246000fd5b7f4e487b7100000000000000000000000000000000000000000000000000000000600052602260045260246000fd5b7f4e487b7100000000000000000000000000000000000000000000000000000000600052603160045260246000fd5b7f4e487b7100000000000000000000000000000000000000000000000000000000600052603260045260246000fd5b7f4e487b7100000000000000000000000000000000000000000000000000000000600052604160045260246000fd5b600080fd5b600080fd5b600080fd5b600080fd5b6000601f19601f8301169050919050565b7f537472696e67733a20686578206c656e67746820696e73756666696369656e74600082015250565b7f455243373231456e756d657261626c653a206f776e657220696e646578206f7560008201527f74206f6620626f756e6473000000000000000000000000000000000000000000602082015250565b7f4552433732313a207472616e7366657220746f206e6f6e20455243373231526560008201527f63656976657220696d706c656d656e7465720000000000000000000000000000602082015250565b7f4552433732313a207472616e736665722066726f6d20696e636f72726563742060008201527f6f776e6572000000000000000000000000000000000000000000000000000000602082015250565b7f4552433732313a20746f6b656e20616c7265616479206d696e74656400000000600082015250565b7f4552433732313a207472616e7366657220746f20746865207a65726f2061646460008201527f7265737300000000000000000000000000000000000000000000000000000000602082015250565b7f4552433732313a20617070726f766520746f2063616c6c657200000000000000600082015250565b7f4552433732313a206f70657261746f7220717565727920666f72206e6f6e657860008201527f697374656e7420746f6b656e0000000000000000000000000000000000000000602082015250565b7f4552433732313a20617070726f76652063616c6c6572206973206e6f74206f7760008201527f6e6572206e6f7220617070726f76656420666f7220616c6c0000000000000000602082015250565b7f4552433732313a2062616c616e636520717565727920666f7220746865207a6560008201527f726f206164647265737300000000000000000000000000000000000000000000602082015250565b7f4552433732313a206f776e657220717565727920666f72206e6f6e657869737460008201527f656e7420746f6b656e0000000000000000000000000000000000000000000000602082015250565b7f45524337323155524953746f726167653a2055524920736574206f66206e6f6e60008201527f6578697374656e7420746f6b656e000000000000000000000000000000000000602082015250565b7f4552433732313a206d696e7420746f20746865207a65726f2061646472657373600082015250565b7f45524337323155524953746f726167653a2055524920717565727920666f722060008201527f6e6f6e6578697374656e7420746f6b656e000000000000000000000000000000602082015250565b7f4552433732313a20617070726f76656420717565727920666f72206e6f6e657860008201527f697374656e7420746f6b656e0000000000000000000000000000000000000000602082015250565b7f4552433732314d657461646174613a2055524920717565727920666f72206e6f60008201527f6e6578697374656e7420746f6b656e0000000000000000000000000000000000602082015250565b7f4552433732313a20617070726f76616c20746f2063757272656e74206f776e6560008201527f7200000000000000000000000000000000000000000000000000000000000000602082015250565b7f4552433732313a207472616e736665722063616c6c6572206973206e6f74206f60008201527f776e6572206e6f7220617070726f766564000000000000000000000000000000602082015250565b7f455243373231456e756d657261626c653a20676c6f62616c20696e646578206f60008201527f7574206f6620626f756e64730000000000000000000000000000000000000000602082015250565b7f416363657373436f6e74726f6c3a206163636f756e7420000000000000000000600082015250565b7f4552433732314275726e61626c653a2063616c6c6572206973206e6f74206f7760008201527f6e6572206e6f7220617070726f76656400000000000000000000000000000000602082015250565b7f206973206d697373696e6720726f6c6520000000000000000000000000000000600082015250565b7f416363657373436f6e74726f6c3a2063616e206f6e6c792072656e6f756e636560008201527f20726f6c657320666f722073656c660000000000000000000000000000000000602082015250565b61417f8161383b565b811461418a57600080fd5b50565b6141968161384d565b81146141a157600080fd5b50565b6141ad81613859565b81146141b857600080fd5b50565b6141c481613863565b81146141cf57600080fd5b50565b6141db816138af565b81146141e657600080fd5b5056fea2646970667358221220e0b84ad1be938c9d2f12b819cc58e02b2b6dec5a9cfc5b5ebb41af40e2770cc364736f6c63430008070033",
  "linkReferences": {},
  "deployedLinkReferences": {}
}