{
	"MoonCats_flat.sol": {
		"MoonCats": {
			"abi": [
				{
					"inputs": [],
					"stateMutability": "nonpayable",
					"type": "constructor"
				},
				{
					"anonymous": false,
					"inputs": [
						{
							"indexed": true,
							"internalType": "address",
							"name": "owner",
							"type": "address"
						},
						{
							"indexed": true,
							"internalType": "address",
							"name": "approved",
							"type": "address"
						},
						{
							"indexed": true,
							"internalType": "uint256",
							"name": "tokenId",
							"type": "uint256"
						}
					],
					"name": "Approval",
					"type": "event"
				},
				{
					"anonymous": false,
					"inputs": [
						{
							"indexed": true,
							"internalType": "address",
							"name": "owner",
							"type": "address"
						},
						{
							"indexed": true,
							"internalType": "address",
							"name": "operator",
							"type": "address"
						},
						{
							"indexed": false,
							"internalType": "bool",
							"name": "approved",
							"type": "bool"
						}
					],
					"name": "ApprovalForAll",
					"type": "event"
				},
				{
					"anonymous": false,
					"inputs": [
						{
							"indexed": true,
							"internalType": "address",
							"name": "previousOwner",
							"type": "address"
						},
						{
							"indexed": true,
							"internalType": "address",
							"name": "newOwner",
							"type": "address"
						}
					],
					"name": "OwnershipTransferred",
					"type": "event"
				},
				{
					"anonymous": false,
					"inputs": [
						{
							"indexed": true,
							"internalType": "address",
							"name": "from",
							"type": "address"
						},
						{
							"indexed": true,
							"internalType": "address",
							"name": "to",
							"type": "address"
						},
						{
							"indexed": true,
							"internalType": "uint256",
							"name": "tokenId",
							"type": "uint256"
						}
					],
					"name": "Transfer",
					"type": "event"
				},
				{
					"inputs": [
						{
							"internalType": "address",
							"name": "to",
							"type": "address"
						},
						{
							"internalType": "uint256",
							"name": "tokenId",
							"type": "uint256"
						}
					],
					"name": "approve",
					"outputs": [],
					"stateMutability": "nonpayable",
					"type": "function"
				},
				{
					"inputs": [
						{
							"internalType": "address",
							"name": "owner",
							"type": "address"
						}
					],
					"name": "balanceOf",
					"outputs": [
						{
							"internalType": "uint256",
							"name": "",
							"type": "uint256"
						}
					],
					"stateMutability": "view",
					"type": "function"
				},
				{
					"inputs": [
						{
							"internalType": "uint256",
							"name": "tokenId",
							"type": "uint256"
						}
					],
					"name": "burn",
					"outputs": [],
					"stateMutability": "nonpayable",
					"type": "function"
				},
				{
					"inputs": [
						{
							"internalType": "uint256",
							"name": "tokenId",
							"type": "uint256"
						}
					],
					"name": "getApproved",
					"outputs": [
						{
							"internalType": "address",
							"name": "",
							"type": "address"
						}
					],
					"stateMutability": "view",
					"type": "function"
				},
				{
					"inputs": [
						{
							"internalType": "address",
							"name": "owner",
							"type": "address"
						},
						{
							"internalType": "address",
							"name": "operator",
							"type": "address"
						}
					],
					"name": "isApprovedForAll",
					"outputs": [
						{
							"internalType": "bool",
							"name": "",
							"type": "bool"
						}
					],
					"stateMutability": "view",
					"type": "function"
				},
				{
					"inputs": [],
					"name": "name",
					"outputs": [
						{
							"internalType": "string",
							"name": "",
							"type": "string"
						}
					],
					"stateMutability": "view",
					"type": "function"
				},
				{
					"inputs": [],
					"name": "owner",
					"outputs": [
						{
							"internalType": "address",
							"name": "",
							"type": "address"
						}
					],
					"stateMutability": "view",
					"type": "function"
				},
				{
					"inputs": [
						{
							"internalType": "uint256",
							"name": "tokenId",
							"type": "uint256"
						}
					],
					"name": "ownerOf",
					"outputs": [
						{
							"internalType": "address",
							"name": "",
							"type": "address"
						}
					],
					"stateMutability": "view",
					"type": "function"
				},
				{
					"inputs": [],
					"name": "renounceOwnership",
					"outputs": [],
					"stateMutability": "nonpayable",
					"type": "function"
				},
				{
					"inputs": [
						{
							"internalType": "address",
							"name": "to",
							"type": "address"
						},
						{
							"internalType": "string",
							"name": "uri",
							"type": "string"
						}
					],
					"name": "safeMint",
					"outputs": [],
					"stateMutability": "payable",
					"type": "function"
				},
				{
					"inputs": [
						{
							"internalType": "address",
							"name": "from",
							"type": "address"
						},
						{
							"internalType": "address",
							"name": "to",
							"type": "address"
						},
						{
							"internalType": "uint256",
							"name": "tokenId",
							"type": "uint256"
						}
					],
					"name": "safeTransferFrom",
					"outputs": [],
					"stateMutability": "nonpayable",
					"type": "function"
				},
				{
					"inputs": [
						{
							"internalType": "address",
							"name": "from",
							"type": "address"
						},
						{
							"internalType": "address",
							"name": "to",
							"type": "address"
						},
						{
							"internalType": "uint256",
							"name": "tokenId",
							"type": "uint256"
						},
						{
							"internalType": "bytes",
							"name": "_data",
							"type": "bytes"
						}
					],
					"name": "safeTransferFrom",
					"outputs": [],
					"stateMutability": "nonpayable",
					"type": "function"
				},
				{
					"inputs": [
						{
							"internalType": "address",
							"name": "operator",
							"type": "address"
						},
						{
							"internalType": "bool",
							"name": "approved",
							"type": "bool"
						}
					],
					"name": "setApprovalForAll",
					"outputs": [],
					"stateMutability": "nonpayable",
					"type": "function"
				},
				{
					"inputs": [
						{
							"internalType": "bytes4",
							"name": "interfaceId",
							"type": "bytes4"
						}
					],
					"name": "supportsInterface",
					"outputs": [
						{
							"internalType": "bool",
							"name": "",
							"type": "bool"
						}
					],
					"stateMutability": "view",
					"type": "function"
				},
				{
					"inputs": [],
					"name": "symbol",
					"outputs": [
						{
							"internalType": "string",
							"name": "",
							"type": "string"
						}
					],
					"stateMutability": "view",
					"type": "function"
				},
				{
					"inputs": [
						{
							"internalType": "uint256",
							"name": "tokenId",
							"type": "uint256"
						}
					],
					"name": "tokenURI",
					"outputs": [
						{
							"internalType": "string",
							"name": "",
							"type": "string"
						}
					],
					"stateMutability": "view",
					"type": "function"
				},
				{
					"inputs": [
						{
							"internalType": "address",
							"name": "from",
							"type": "address"
						},
						{
							"internalType": "address",
							"name": "to",
							"type": "address"
						},
						{
							"internalType": "uint256",
							"name": "tokenId",
							"type": "uint256"
						}
					],
					"name": "transferFrom",
					"outputs": [],
					"stateMutability": "nonpayable",
					"type": "function"
				},
				{
					"inputs": [
						{
							"internalType": "address",
							"name": "newOwner",
							"type": "address"
						}
					],
					"name": "transferOwnership",
					"outputs": [],
					"stateMutability": "nonpayable",
					"type": "function"
				},
				{
					"inputs": [],
					"name": "withdraw",
					"outputs": [],
					"stateMutability": "payable",
					"type": "function"
				}
			],
			"devdoc": {
				"kind": "dev",
				"methods": {
					"approve(address,uint256)": {
						"details": "See {IERC721-approve}."
					},
					"balanceOf(address)": {
						"details": "See {IERC721-balanceOf}."
					},
					"burn(uint256)": {
						"details": "Burns `tokenId`. See {ERC721-_burn}. Requirements: - The caller must own `tokenId` or be an approved operator."
					},
					"getApproved(uint256)": {
						"details": "See {IERC721-getApproved}."
					},
					"isApprovedForAll(address,address)": {
						"details": "See {IERC721-isApprovedForAll}."
					},
					"name()": {
						"details": "See {IERC721Metadata-name}."
					},
					"owner()": {
						"details": "Returns the address of the current owner."
					},
					"ownerOf(uint256)": {
						"details": "See {IERC721-ownerOf}."
					},
					"renounceOwnership()": {
						"details": "Leaves the contract without owner. It will not be possible to call `onlyOwner` functions anymore. Can only be called by the current owner. NOTE: Renouncing ownership will leave the contract without an owner, thereby removing any functionality that is only available to the owner."
					},
					"safeTransferFrom(address,address,uint256)": {
						"details": "See {IERC721-safeTransferFrom}."
					},
					"safeTransferFrom(address,address,uint256,bytes)": {
						"details": "See {IERC721-safeTransferFrom}."
					},
					"setApprovalForAll(address,bool)": {
						"details": "See {IERC721-setApprovalForAll}."
					},
					"supportsInterface(bytes4)": {
						"details": "See {IERC165-supportsInterface}."
					},
					"symbol()": {
						"details": "See {IERC721Metadata-symbol}."
					},
					"transferFrom(address,address,uint256)": {
						"details": "See {IERC721-transferFrom}."
					},
					"transferOwnership(address)": {
						"details": "Transfers ownership of the contract to a new account (`newOwner`). Can only be called by the current owner."
					}
				},
				"version": 1
			},
			"evm": {
				"assembly": "    /* \"MoonCats_flat.sol\":39309:40378  contract MoonCats is ERC721, ERC721URIStorage, ERC721Burnable, Ownable {... */\n  mstore(0x40, 0x80)\n    /* \"MoonCats_flat.sol\":39475:39519  constructor() ERC721(\"MoonCats\", \"MCATS\") {} */\n  callvalue\n  dup1\n  iszero\n  tag_1\n  jumpi\n  0x00\n  dup1\n  revert\ntag_1:\n  pop\n    /* \"MoonCats_flat.sol\":24303:24416  constructor(string memory name_, string memory symbol_) {... */\n  0x40\n  dup1\n  mload\n  dup1\n  dup3\n  add\n  dup3\n  mstore\n  0x08\n  dup2\n  mstore\n  shl(0xc0, 0x4d6f6f6e43617473)\n  0x20\n  dup1\n  dup4\n  add\n  swap2\n  dup3\n  mstore\n  dup4\n  mload\n  dup1\n  dup6\n  add\n  swap1\n  swap5\n  mstore\n  0x05\n  dup5\n  mstore\n  shl(0xd8, 0x4d43415453)\n  swap1\n  dup5\n  add\n  mstore\n    /* \"MoonCats_flat.sol\":24369:24382  _name = name_ */\n  dup2\n  mload\n    /* \"MoonCats_flat.sol\":24303:24416  constructor(string memory name_, string memory symbol_) {... */\n  swap2\n  swap3\n  swap2\n    /* \"MoonCats_flat.sol\":24369:24382  _name = name_ */\n  tag_6\n  swap2\n  0x00\n  swap2\n  tag_7\n  jump\t// in\ntag_6:\n  pop\n    /* \"MoonCats_flat.sol\":24392:24409  _symbol = symbol_ */\n  dup1\n  mload\n  tag_8\n  swap1\n    /* \"MoonCats_flat.sol\":24392:24399  _symbol */\n  0x01\n  swap1\n    /* \"MoonCats_flat.sol\":24392:24409  _symbol = symbol_ */\n  0x20\n  dup5\n  add\n  swap1\n  tag_7\n  jump\t// in\ntag_8:\n  pop\n    /* \"MoonCats_flat.sol\":24303:24416  constructor(string memory name_, string memory symbol_) {... */\n  pop\n  pop\n    /* \"MoonCats_flat.sol\":5283:5315  _transferOwnership(_msgSender()) */\n  tag_10\n    /* \"MoonCats_flat.sol\":5302:5314  _msgSender() */\n  tag_11\n    /* \"MoonCats_flat.sol\":5302:5312  _msgSender */\n  shl(0x20, tag_12)\n    /* \"MoonCats_flat.sol\":5302:5314  _msgSender() */\n  0x20\n  shr\n  jump\t// in\ntag_11:\n    /* \"MoonCats_flat.sol\":5283:5301  _transferOwnership */\n  tag_13\n    /* \"MoonCats_flat.sol\":5283:5315  _transferOwnership(_msgSender()) */\n  jump\t// in\ntag_10:\n    /* \"MoonCats_flat.sol\":39309:40378  contract MoonCats is ERC721, ERC721URIStorage, ERC721Burnable, Ownable {... */\n  jump(tag_29)\n    /* \"MoonCats_flat.sol\":4166:4262  function _msgSender() internal view virtual returns (address) {... */\ntag_12:\n    /* \"MoonCats_flat.sol\":4245:4255  msg.sender */\n  caller\n  swap1\n    /* \"MoonCats_flat.sol\":4166:4262  function _msgSender() internal view virtual returns (address) {... */\n  jump\t// out\n    /* \"MoonCats_flat.sol\":6632:6819  function _transferOwnership(address newOwner) internal virtual {... */\ntag_13:\n    /* \"MoonCats_flat.sol\":6724:6730  _owner */\n  0x07\n  dup1\n  sload\n  sub(shl(0xa0, 0x01), 0x01)\n    /* \"MoonCats_flat.sol\":6740:6757  _owner = newOwner */\n  dup4\n  dup2\n  and\n  not(sub(shl(0xa0, 0x01), 0x01))\n  dup4\n  and\n  dup2\n  or\n  swap1\n  swap4\n  sstore\n    /* \"MoonCats_flat.sol\":6772:6812  OwnershipTransferred(oldOwner, newOwner) */\n  mload(0x40)\n    /* \"MoonCats_flat.sol\":6724:6730  _owner */\n  swap2\n  and\n  swap2\n    /* \"MoonCats_flat.sol\":6740:6757  _owner = newOwner */\n  swap1\n    /* \"MoonCats_flat.sol\":6724:6730  _owner */\n  dup3\n  swap1\n    /* \"MoonCats_flat.sol\":6772:6812  OwnershipTransferred(oldOwner, newOwner) */\n  0x8be0079c531659141344cd1fd0a4f28419497f9722a3daafe3b4186f6b6457e0\n  swap1\n    /* \"MoonCats_flat.sol\":6705:6721  address oldOwner */\n  0x00\n  swap1\n    /* \"MoonCats_flat.sol\":6772:6812  OwnershipTransferred(oldOwner, newOwner) */\n  log3\n    /* \"MoonCats_flat.sol\":6695:6819  {... */\n  pop\n    /* \"MoonCats_flat.sol\":6632:6819  function _transferOwnership(address newOwner) internal virtual {... */\n  pop\n  jump\t// out\n    /* \"MoonCats_flat.sol\":39309:40378  contract MoonCats is ERC721, ERC721URIStorage, ERC721Burnable, Ownable {... */\ntag_7:\n  dup3\n  dup1\n  sload\n  tag_18\n  swap1\n  tag_19\n  jump\t// in\ntag_18:\n  swap1\n  0x00\n  mstore\n  keccak256(0x00, 0x20)\n  swap1\n  0x1f\n  add\n  0x20\n  swap1\n  div\n  dup2\n  add\n  swap3\n  dup3\n  tag_21\n  jumpi\n  0x00\n  dup6\n  sstore\n  jump(tag_24)\ntag_21:\n  dup3\n  0x1f\n  lt\n  tag_22\n  jumpi\n  dup1\n  mload\n  not(0xff)\n  and\n  dup4\n  dup1\n  add\n  or\n  dup6\n  sstore\n  jump(tag_24)\ntag_22:\n  dup3\n  dup1\n  add\n  0x01\n  add\n  dup6\n  sstore\n  dup3\n  iszero\n  tag_24\n  jumpi\n  swap2\n  dup3\n  add\ntag_23:\n  dup3\n  dup2\n  gt\n  iszero\n  tag_24\n  jumpi\n  dup3\n  mload\n  dup3\n  sstore\n  swap2\n  0x20\n  add\n  swap2\n  swap1\n  0x01\n  add\n  swap1\n  jump(tag_23)\ntag_24:\n  pop\n  tag_25\n  swap3\n  swap2\n  pop\n  tag_26\n  jump\t// in\ntag_25:\n  pop\n  swap1\n  jump\t// out\ntag_26:\ntag_27:\n  dup1\n  dup3\n  gt\n  iszero\n  tag_25\n  jumpi\n  0x00\n  dup2\n  sstore\n  0x01\n  add\n  jump(tag_27)\n    /* \"#utility.yul\":14:394   */\ntag_19:\n    /* \"#utility.yul\":93:94   */\n  0x01\n    /* \"#utility.yul\":89:101   */\n  dup2\n  dup2\n  shr\n  swap1\n    /* \"#utility.yul\":136:148   */\n  dup3\n  and\n  dup1\n    /* \"#utility.yul\":157:218   */\n  tag_31\n  jumpi\n    /* \"#utility.yul\":211:215   */\n  0x7f\n    /* \"#utility.yul\":203:209   */\n  dup3\n    /* \"#utility.yul\":199:216   */\n  and\n    /* \"#utility.yul\":189:216   */\n  swap2\n  pop\n    /* \"#utility.yul\":157:218   */\ntag_31:\n    /* \"#utility.yul\":264:266   */\n  0x20\n    /* \"#utility.yul\":256:262   */\n  dup3\n    /* \"#utility.yul\":253:267   */\n  lt\n    /* \"#utility.yul\":233:251   */\n  dup2\n    /* \"#utility.yul\":230:268   */\n  eq\n    /* \"#utility.yul\":227:388   */\n  iszero\n  tag_32\n  jumpi\n    /* \"#utility.yul\":310:320   */\n  0x4e487b71\n    /* \"#utility.yul\":305:308   */\n  0xe0\n    /* \"#utility.yul\":301:321   */\n  shl\n    /* \"#utility.yul\":298:299   */\n  0x00\n    /* \"#utility.yul\":291:322   */\n  mstore\n    /* \"#utility.yul\":345:349   */\n  0x22\n    /* \"#utility.yul\":342:343   */\n  0x04\n    /* \"#utility.yul\":335:350   */\n  mstore\n    /* \"#utility.yul\":373:377   */\n  0x24\n    /* \"#utility.yul\":370:371   */\n  0x00\n    /* \"#utility.yul\":363:378   */\n  revert\n    /* \"#utility.yul\":227:388   */\ntag_32:\n  pop\n    /* \"#utility.yul\":14:394   */\n  swap2\n  swap1\n  pop\n  jump\t// out\ntag_29:\n    /* \"MoonCats_flat.sol\":39309:40378  contract MoonCats is ERC721, ERC721URIStorage, ERC721Burnable, Ownable {... */\n  dataSize(sub_0)\n  dup1\n  dataOffset(sub_0)\n  0x00\n  codecopy\n  0x00\n  return\nstop\n\nsub_0: assembly {\n        /* \"MoonCats_flat.sol\":39309:40378  contract MoonCats is ERC721, ERC721URIStorage, ERC721Burnable, Ownable {... */\n      mstore(0x40, 0x80)\n      jumpi(tag_1, lt(calldatasize, 0x04))\n      shr(0xe0, calldataload(0x00))\n      dup1\n      0x70a08231\n      gt\n      tag_21\n      jumpi\n      dup1\n      0xb88d4fde\n      gt\n      tag_22\n      jumpi\n      dup1\n      0xb88d4fde\n      eq\n      tag_16\n      jumpi\n      dup1\n      0xc87b56dd\n      eq\n      tag_17\n      jumpi\n      dup1\n      0xd204c45e\n      eq\n      tag_18\n      jumpi\n      dup1\n      0xe985e9c5\n      eq\n      tag_19\n      jumpi\n      dup1\n      0xf2fde38b\n      eq\n      tag_20\n      jumpi\n      0x00\n      dup1\n      revert\n    tag_22:\n      dup1\n      0x70a08231\n      eq\n      tag_11\n      jumpi\n      dup1\n      0x715018a6\n      eq\n      tag_12\n      jumpi\n      dup1\n      0x8da5cb5b\n      eq\n      tag_13\n      jumpi\n      dup1\n      0x95d89b41\n      eq\n      tag_14\n      jumpi\n      dup1\n      0xa22cb465\n      eq\n      tag_15\n      jumpi\n      0x00\n      dup1\n      revert\n    tag_21:\n      dup1\n      0x23b872dd\n      gt\n      tag_23\n      jumpi\n      dup1\n      0x23b872dd\n      eq\n      tag_6\n      jumpi\n      dup1\n      0x3ccfd60b\n      eq\n      tag_7\n      jumpi\n      dup1\n      0x42842e0e\n      eq\n      tag_8\n      jumpi\n      dup1\n      0x42966c68\n      eq\n      tag_9\n      jumpi\n      dup1\n      0x6352211e\n      eq\n      tag_10\n      jumpi\n      0x00\n      dup1\n      revert\n    tag_23:\n      dup1\n      0x01ffc9a7\n      eq\n      tag_2\n      jumpi\n      dup1\n      0x06fdde03\n      eq\n      tag_3\n      jumpi\n      dup1\n      0x081812fc\n      eq\n      tag_4\n      jumpi\n      dup1\n      0x095ea7b3\n      eq\n      tag_5\n      jumpi\n    tag_1:\n      0x00\n      dup1\n      revert\n        /* \"MoonCats_flat.sol\":24483:24783  function supportsInterface(bytes4 interfaceId) public view virtual override(ERC165, IERC165) returns (bool) {... */\n    tag_2:\n      callvalue\n      dup1\n      iszero\n      tag_24\n      jumpi\n      0x00\n      dup1\n      revert\n    tag_24:\n      pop\n      tag_25\n      tag_26\n      calldatasize\n      0x04\n      tag_27\n      jump\t// in\n    tag_26:\n      tag_28\n      jump\t// in\n    tag_25:\n      mload(0x40)\n        /* \"#utility.yul\":5720:5734   */\n      swap1\n      iszero\n        /* \"#utility.yul\":5713:5735   */\n      iszero\n        /* \"#utility.yul\":5695:5736   */\n      dup2\n      mstore\n        /* \"#utility.yul\":5683:5685   */\n      0x20\n        /* \"#utility.yul\":5668:5686   */\n      add\n        /* \"MoonCats_flat.sol\":24483:24783  function supportsInterface(bytes4 interfaceId) public view virtual override(ERC165, IERC165) returns (bool) {... */\n    tag_29:\n      mload(0x40)\n      dup1\n      swap2\n      sub\n      swap1\n      return\n        /* \"MoonCats_flat.sol\":25401:25499  function name() public view virtual override returns (string memory) {... */\n    tag_3:\n      callvalue\n      dup1\n      iszero\n      tag_31\n      jumpi\n      0x00\n      dup1\n      revert\n    tag_31:\n      pop\n      tag_32\n      tag_33\n      jump\t// in\n    tag_32:\n      mload(0x40)\n      tag_29\n      swap2\n      swap1\n      tag_35\n      jump\t// in\n        /* \"MoonCats_flat.sol\":26912:27129  function getApproved(uint256 tokenId) public view virtual override returns (address) {... */\n    tag_4:\n      callvalue\n      dup1\n      iszero\n      tag_36\n      jumpi\n      0x00\n      dup1\n      revert\n    tag_36:\n      pop\n      tag_37\n      tag_38\n      calldatasize\n      0x04\n      tag_39\n      jump\t// in\n    tag_38:\n      tag_40\n      jump\t// in\n    tag_37:\n      mload(0x40)\n      sub(shl(0xa0, 0x01), 0x01)\n        /* \"#utility.yul\":5018:5050   */\n      swap1\n      swap2\n      and\n        /* \"#utility.yul\":5000:5051   */\n      dup2\n      mstore\n        /* \"#utility.yul\":4988:4990   */\n      0x20\n        /* \"#utility.yul\":4973:4991   */\n      add\n        /* \"MoonCats_flat.sol\":26912:27129  function getApproved(uint256 tokenId) public view virtual override returns (address) {... */\n      tag_29\n        /* \"#utility.yul\":4854:5057   */\n      jump\n        /* \"MoonCats_flat.sol\":26450:26851  function approve(address to, uint256 tokenId) public virtual override {... */\n    tag_5:\n      callvalue\n      dup1\n      iszero\n      tag_43\n      jumpi\n      0x00\n      dup1\n      revert\n    tag_43:\n      pop\n      tag_44\n      tag_45\n      calldatasize\n      0x04\n      tag_46\n      jump\t// in\n    tag_45:\n      tag_47\n      jump\t// in\n    tag_44:\n      stop\n        /* \"MoonCats_flat.sol\":27639:27969  function transferFrom(... */\n    tag_6:\n      callvalue\n      dup1\n      iszero\n      tag_48\n      jumpi\n      0x00\n      dup1\n      revert\n    tag_48:\n      pop\n      tag_44\n      tag_50\n      calldatasize\n      0x04\n      tag_51\n      jump\t// in\n    tag_50:\n      tag_52\n      jump\t// in\n        /* \"MoonCats_flat.sol\":40163:40375  function withdraw() public  payable  {... */\n    tag_7:\n      tag_44\n      tag_54\n      jump\t// in\n        /* \"MoonCats_flat.sol\":28035:28214  function safeTransferFrom(... */\n    tag_8:\n      callvalue\n      dup1\n      iszero\n      tag_55\n      jumpi\n      0x00\n      dup1\n      revert\n    tag_55:\n      pop\n      tag_44\n      tag_57\n      calldatasize\n      0x04\n      tag_51\n      jump\t// in\n    tag_57:\n      tag_58\n      jump\t// in\n        /* \"MoonCats_flat.sol\":37064:37305  function burn(uint256 tokenId) public virtual {... */\n    tag_9:\n      callvalue\n      dup1\n      iszero\n      tag_59\n      jumpi\n      0x00\n      dup1\n      revert\n    tag_59:\n      pop\n      tag_44\n      tag_61\n      calldatasize\n      0x04\n      tag_39\n      jump\t// in\n    tag_61:\n      tag_62\n      jump\t// in\n        /* \"MoonCats_flat.sol\":25104:25339  function ownerOf(uint256 tokenId) public view virtual override returns (address) {... */\n    tag_10:\n      callvalue\n      dup1\n      iszero\n      tag_63\n      jumpi\n      0x00\n      dup1\n      revert\n    tag_63:\n      pop\n      tag_37\n      tag_65\n      calldatasize\n      0x04\n      tag_39\n      jump\t// in\n    tag_65:\n      tag_66\n      jump\t// in\n        /* \"MoonCats_flat.sol\":24842:25047  function balanceOf(address owner) public view virtual override returns (uint256) {... */\n    tag_11:\n      callvalue\n      dup1\n      iszero\n      tag_68\n      jumpi\n      0x00\n      dup1\n      revert\n    tag_68:\n      pop\n      tag_69\n      tag_70\n      calldatasize\n      0x04\n      tag_71\n      jump\t// in\n    tag_70:\n      tag_72\n      jump\t// in\n    tag_69:\n      mload(0x40)\n        /* \"#utility.yul\":14155:14180   */\n      swap1\n      dup2\n      mstore\n        /* \"#utility.yul\":14143:14145   */\n      0x20\n        /* \"#utility.yul\":14128:14146   */\n      add\n        /* \"MoonCats_flat.sol\":24842:25047  function balanceOf(address owner) public view virtual override returns (uint256) {... */\n      tag_29\n        /* \"#utility.yul\":14009:14186   */\n      jump\n        /* \"MoonCats_flat.sol\":6030:6131  function renounceOwnership() public virtual onlyOwner {... */\n    tag_12:\n      callvalue\n      dup1\n      iszero\n      tag_75\n      jumpi\n      0x00\n      dup1\n      revert\n    tag_75:\n      pop\n      tag_44\n      tag_77\n      jump\t// in\n        /* \"MoonCats_flat.sol\":5398:5483  function owner() public view virtual returns (address) {... */\n    tag_13:\n      callvalue\n      dup1\n      iszero\n      tag_78\n      jumpi\n      0x00\n      dup1\n      revert\n    tag_78:\n      pop\n        /* \"MoonCats_flat.sol\":5470:5476  _owner */\n      and(sub(shl(0xa0, 0x01), 0x01), sload(0x07))\n        /* \"MoonCats_flat.sol\":5398:5483  function owner() public view virtual returns (address) {... */\n      jump(tag_37)\n        /* \"MoonCats_flat.sol\":25563:25665  function symbol() public view virtual override returns (string memory) {... */\n    tag_14:\n      callvalue\n      dup1\n      iszero\n      tag_82\n      jumpi\n      0x00\n      dup1\n      revert\n    tag_82:\n      pop\n      tag_32\n      tag_84\n      jump\t// in\n        /* \"MoonCats_flat.sol\":27196:27349  function setApprovalForAll(address operator, bool approved) public virtual override {... */\n    tag_15:\n      callvalue\n      dup1\n      iszero\n      tag_86\n      jumpi\n      0x00\n      dup1\n      revert\n    tag_86:\n      pop\n      tag_44\n      tag_88\n      calldatasize\n      0x04\n      tag_89\n      jump\t// in\n    tag_88:\n      tag_90\n      jump\t// in\n        /* \"MoonCats_flat.sol\":28280:28600  function safeTransferFrom(... */\n    tag_16:\n      callvalue\n      dup1\n      iszero\n      tag_91\n      jumpi\n      0x00\n      dup1\n      revert\n    tag_91:\n      pop\n      tag_44\n      tag_93\n      calldatasize\n      0x04\n      tag_94\n      jump\t// in\n    tag_93:\n      tag_95\n      jump\t// in\n        /* \"MoonCats_flat.sol\":39968:40157  function tokenURI(uint256 tokenId)... */\n    tag_17:\n      callvalue\n      dup1\n      iszero\n      tag_96\n      jumpi\n      0x00\n      dup1\n      revert\n    tag_96:\n      pop\n      tag_32\n      tag_98\n      calldatasize\n      0x04\n      tag_39\n      jump\t// in\n    tag_98:\n      tag_99\n      jump\t// in\n        /* \"MoonCats_flat.sol\":39525:39843  function safeMint(address to, string memory uri) public payable {... */\n    tag_18:\n      tag_44\n      tag_102\n      calldatasize\n      0x04\n      tag_103\n      jump\t// in\n    tag_102:\n      tag_104\n      jump\t// in\n        /* \"MoonCats_flat.sol\":27415:27577  function isApprovedForAll(address owner, address operator) public view virtual override returns (bool) {... */\n    tag_19:\n      callvalue\n      dup1\n      iszero\n      tag_105\n      jumpi\n      0x00\n      dup1\n      revert\n    tag_105:\n      pop\n      tag_25\n      tag_107\n      calldatasize\n      0x04\n      tag_108\n      jump\t// in\n    tag_107:\n      sub(shl(0xa0, 0x01), 0x01)\n        /* \"MoonCats_flat.sol\":27535:27560  _operatorApprovals[owner] */\n      swap2\n      dup3\n      and\n        /* \"MoonCats_flat.sol\":27512:27516  bool */\n      0x00\n        /* \"MoonCats_flat.sol\":27535:27560  _operatorApprovals[owner] */\n      swap1\n      dup2\n      mstore\n        /* \"MoonCats_flat.sol\":27535:27553  _operatorApprovals */\n      0x05\n        /* \"MoonCats_flat.sol\":27535:27560  _operatorApprovals[owner] */\n      0x20\n      swap1\n      dup2\n      mstore\n      0x40\n      dup1\n      dup4\n      keccak256\n        /* \"MoonCats_flat.sol\":27535:27570  _operatorApprovals[owner][operator] */\n      swap4\n      swap1\n      swap5\n      and\n      dup3\n      mstore\n      swap2\n      swap1\n      swap2\n      mstore\n      keccak256\n      sload\n      0xff\n      and\n      swap1\n        /* \"MoonCats_flat.sol\":27415:27577  function isApprovedForAll(address owner, address operator) public view virtual override returns (bool) {... */\n      jump\n        /* \"MoonCats_flat.sol\":6280:6478  function transferOwnership(address newOwner) public virtual onlyOwner {... */\n    tag_20:\n      callvalue\n      dup1\n      iszero\n      tag_111\n      jumpi\n      0x00\n      dup1\n      revert\n    tag_111:\n      pop\n      tag_44\n      tag_113\n      calldatasize\n      0x04\n      tag_71\n      jump\t// in\n    tag_113:\n      tag_114\n      jump\t// in\n        /* \"MoonCats_flat.sol\":24483:24783  function supportsInterface(bytes4 interfaceId) public view virtual override(ERC165, IERC165) returns (bool) {... */\n    tag_28:\n        /* \"MoonCats_flat.sol\":24585:24589  bool */\n      0x00\n      not(sub(shl(0xe0, 0x01), 0x01))\n        /* \"MoonCats_flat.sol\":24620:24660  interfaceId == type(IERC721).interfaceId */\n      dup3\n      and\n      shl(0xe0, 0x80ac58cd)\n      eq\n      dup1\n        /* \"MoonCats_flat.sol\":24620:24724  interfaceId == type(IERC721).interfaceId ||... */\n      tag_116\n      jumpi\n      pop\n      not(sub(shl(0xe0, 0x01), 0x01))\n        /* \"MoonCats_flat.sol\":24676:24724  interfaceId == type(IERC721Metadata).interfaceId */\n      dup3\n      and\n      shl(0xe0, 0x5b5e139f)\n      eq\n        /* \"MoonCats_flat.sol\":24620:24724  interfaceId == type(IERC721).interfaceId ||... */\n    tag_116:\n        /* \"MoonCats_flat.sol\":24620:24776  interfaceId == type(IERC721).interfaceId ||... */\n      dup1\n      tag_118\n      jumpi\n      pop\n      shl(0xe0, 0x01ffc9a7)\n      not(sub(shl(0xe0, 0x01), 0x01))\n        /* \"MoonCats_flat.sol\":17591:17631  interfaceId == type(IERC165).interfaceId */\n      dup4\n      and\n      eq\n        /* \"MoonCats_flat.sol\":24740:24776  super.supportsInterface(interfaceId) */\n    tag_118:\n        /* \"MoonCats_flat.sol\":24601:24776  return... */\n      swap3\n        /* \"MoonCats_flat.sol\":24483:24783  function supportsInterface(bytes4 interfaceId) public view virtual override(ERC165, IERC165) returns (bool) {... */\n      swap2\n      pop\n      pop\n      jump\t// out\n        /* \"MoonCats_flat.sol\":25401:25499  function name() public view virtual override returns (string memory) {... */\n    tag_33:\n        /* \"MoonCats_flat.sol\":25455:25468  string memory */\n      0x60\n        /* \"MoonCats_flat.sol\":25487:25492  _name */\n      0x00\n        /* \"MoonCats_flat.sol\":25480:25492  return _name */\n      dup1\n      sload\n      tag_121\n      swap1\n      tag_122\n      jump\t// in\n    tag_121:\n      dup1\n      0x1f\n      add\n      0x20\n      dup1\n      swap2\n      div\n      mul\n      0x20\n      add\n      mload(0x40)\n      swap1\n      dup2\n      add\n      0x40\n      mstore\n      dup1\n      swap3\n      swap2\n      swap1\n      dup2\n      dup2\n      mstore\n      0x20\n      add\n      dup3\n      dup1\n      sload\n      tag_123\n      swap1\n      tag_122\n      jump\t// in\n    tag_123:\n      dup1\n      iszero\n      tag_124\n      jumpi\n      dup1\n      0x1f\n      lt\n      tag_125\n      jumpi\n      0x0100\n      dup1\n      dup4\n      sload\n      div\n      mul\n      dup4\n      mstore\n      swap2\n      0x20\n      add\n      swap2\n      jump(tag_124)\n    tag_125:\n      dup3\n      add\n      swap2\n      swap1\n      0x00\n      mstore\n      keccak256(0x00, 0x20)\n      swap1\n    tag_126:\n      dup2\n      sload\n      dup2\n      mstore\n      swap1\n      0x01\n      add\n      swap1\n      0x20\n      add\n      dup1\n      dup4\n      gt\n      tag_126\n      jumpi\n      dup3\n      swap1\n      sub\n      0x1f\n      and\n      dup3\n      add\n      swap2\n    tag_124:\n      pop\n      pop\n      pop\n      pop\n      pop\n      swap1\n      pop\n        /* \"MoonCats_flat.sol\":25401:25499  function name() public view virtual override returns (string memory) {... */\n      swap1\n      jump\t// out\n        /* \"MoonCats_flat.sol\":26912:27129  function getApproved(uint256 tokenId) public view virtual override returns (address) {... */\n    tag_40:\n        /* \"MoonCats_flat.sol\":26988:26995  address */\n      0x00\n        /* \"MoonCats_flat.sol\":27015:27031  _exists(tokenId) */\n      tag_128\n        /* \"MoonCats_flat.sol\":27023:27030  tokenId */\n      dup3\n        /* \"MoonCats_flat.sol\":27015:27022  _exists */\n      tag_129\n        /* \"MoonCats_flat.sol\":27015:27031  _exists(tokenId) */\n      jump\t// in\n    tag_128:\n        /* \"MoonCats_flat.sol\":27007:27080  require(_exists(tokenId), \"ERC721: approved query for nonexistent token\") */\n      tag_130\n      jumpi\n      mload(0x40)\n      shl(0xe5, 0x461bcd)\n      dup2\n      mstore\n        /* \"#utility.yul\":10968:10970   */\n      0x20\n        /* \"MoonCats_flat.sol\":27007:27080  require(_exists(tokenId), \"ERC721: approved query for nonexistent token\") */\n      0x04\n      dup3\n      add\n        /* \"#utility.yul\":10950:10971   */\n      mstore\n        /* \"#utility.yul\":11007:11009   */\n      0x2c\n        /* \"#utility.yul\":10987:11005   */\n      0x24\n      dup3\n      add\n        /* \"#utility.yul\":10980:11010   */\n      mstore\n        /* \"#utility.yul\":11046:11080   */\n      0x4552433732313a20617070726f76656420717565727920666f72206e6f6e6578\n        /* \"#utility.yul\":11026:11044   */\n      0x44\n      dup3\n      add\n        /* \"#utility.yul\":11019:11081   */\n      mstore\n      shl(0xa1, 0x34b9ba32b73a103a37b5b2b7)\n        /* \"#utility.yul\":11097:11115   */\n      0x64\n      dup3\n      add\n        /* \"#utility.yul\":11090:11132   */\n      mstore\n        /* \"#utility.yul\":11149:11168   */\n      0x84\n      add\n        /* \"MoonCats_flat.sol\":27007:27080  require(_exists(tokenId), \"ERC721: approved query for nonexistent token\") */\n    tag_131:\n      mload(0x40)\n      dup1\n      swap2\n      sub\n      swap1\n      revert\n    tag_130:\n      pop\n        /* \"MoonCats_flat.sol\":27098:27122  _tokenApprovals[tokenId] */\n      0x00\n      swap1\n      dup2\n      mstore\n        /* \"MoonCats_flat.sol\":27098:27113  _tokenApprovals */\n      0x04\n        /* \"MoonCats_flat.sol\":27098:27122  _tokenApprovals[tokenId] */\n      0x20\n      mstore\n      0x40\n      swap1\n      keccak256\n      sload\n      sub(shl(0xa0, 0x01), 0x01)\n      and\n      swap1\n        /* \"MoonCats_flat.sol\":26912:27129  function getApproved(uint256 tokenId) public view virtual override returns (address) {... */\n      jump\t// out\n        /* \"MoonCats_flat.sol\":26450:26851  function approve(address to, uint256 tokenId) public virtual override {... */\n    tag_47:\n        /* \"MoonCats_flat.sol\":26530:26543  address owner */\n      0x00\n        /* \"MoonCats_flat.sol\":26546:26569  ERC721.ownerOf(tokenId) */\n      tag_134\n        /* \"MoonCats_flat.sol\":26561:26568  tokenId */\n      dup3\n        /* \"MoonCats_flat.sol\":26546:26560  ERC721.ownerOf */\n      tag_66\n        /* \"MoonCats_flat.sol\":26546:26569  ERC721.ownerOf(tokenId) */\n      jump\t// in\n    tag_134:\n        /* \"MoonCats_flat.sol\":26530:26569  address owner = ERC721.ownerOf(tokenId) */\n      swap1\n      pop\n        /* \"MoonCats_flat.sol\":26593:26598  owner */\n      dup1\n      sub(shl(0xa0, 0x01), 0x01)\n        /* \"MoonCats_flat.sol\":26587:26598  to != owner */\n      and\n        /* \"MoonCats_flat.sol\":26587:26589  to */\n      dup4\n      sub(shl(0xa0, 0x01), 0x01)\n        /* \"MoonCats_flat.sol\":26587:26598  to != owner */\n      and\n      eq\n      iszero\n        /* \"MoonCats_flat.sol\":26579:26636  require(to != owner, \"ERC721: approval to current owner\") */\n      tag_135\n      jumpi\n      mload(0x40)\n      shl(0xe5, 0x461bcd)\n      dup2\n      mstore\n        /* \"#utility.yul\":12568:12570   */\n      0x20\n        /* \"MoonCats_flat.sol\":26579:26636  require(to != owner, \"ERC721: approval to current owner\") */\n      0x04\n      dup3\n      add\n        /* \"#utility.yul\":12550:12571   */\n      mstore\n        /* \"#utility.yul\":12607:12609   */\n      0x21\n        /* \"#utility.yul\":12587:12605   */\n      0x24\n      dup3\n      add\n        /* \"#utility.yul\":12580:12610   */\n      mstore\n        /* \"#utility.yul\":12646:12680   */\n      0x4552433732313a20617070726f76616c20746f2063757272656e74206f776e65\n        /* \"#utility.yul\":12626:12644   */\n      0x44\n      dup3\n      add\n        /* \"#utility.yul\":12619:12681   */\n      mstore\n      shl(0xf9, 0x39)\n        /* \"#utility.yul\":12697:12715   */\n      0x64\n      dup3\n      add\n        /* \"#utility.yul\":12690:12721   */\n      mstore\n        /* \"#utility.yul\":12738:12757   */\n      0x84\n      add\n        /* \"MoonCats_flat.sol\":26579:26636  require(to != owner, \"ERC721: approval to current owner\") */\n      tag_131\n        /* \"#utility.yul\":12366:12763   */\n      jump\n        /* \"MoonCats_flat.sol\":26579:26636  require(to != owner, \"ERC721: approval to current owner\") */\n    tag_135:\n        /* \"MoonCats_flat.sol\":4245:4255  msg.sender */\n      caller\n      sub(shl(0xa0, 0x01), 0x01)\n        /* \"MoonCats_flat.sol\":26668:26689  _msgSender() == owner */\n      dup3\n      and\n      eq\n      dup1\n        /* \"MoonCats_flat.sol\":26668:26730  _msgSender() == owner || isApprovedForAll(owner, _msgSender()) */\n      tag_141\n      jumpi\n      pop\n        /* \"MoonCats_flat.sol\":26693:26730  isApprovedForAll(owner, _msgSender()) */\n      tag_141\n        /* \"MoonCats_flat.sol\":26710:26715  owner */\n      dup2\n        /* \"MoonCats_flat.sol\":4245:4255  msg.sender */\n      caller\n        /* \"MoonCats_flat.sol\":27415:27577  function isApprovedForAll(address owner, address operator) public view virtual override returns (bool) {... */\n      tag_107\n      jump\t// in\n        /* \"MoonCats_flat.sol\":26693:26730  isApprovedForAll(owner, _msgSender()) */\n    tag_141:\n        /* \"MoonCats_flat.sol\":26647:26812  require(... */\n      tag_143\n      jumpi\n      mload(0x40)\n      shl(0xe5, 0x461bcd)\n      dup2\n      mstore\n        /* \"#utility.yul\":8528:8530   */\n      0x20\n        /* \"MoonCats_flat.sol\":26647:26812  require(... */\n      0x04\n      dup3\n      add\n        /* \"#utility.yul\":8510:8531   */\n      mstore\n        /* \"#utility.yul\":8567:8569   */\n      0x38\n        /* \"#utility.yul\":8547:8565   */\n      0x24\n      dup3\n      add\n        /* \"#utility.yul\":8540:8570   */\n      mstore\n        /* \"#utility.yul\":8606:8640   */\n      0x4552433732313a20617070726f76652063616c6c6572206973206e6f74206f77\n        /* \"#utility.yul\":8586:8604   */\n      0x44\n      dup3\n      add\n        /* \"#utility.yul\":8579:8641   */\n      mstore\n        /* \"#utility.yul\":8677:8703   */\n      0x6e6572206e6f7220617070726f76656420666f7220616c6c0000000000000000\n        /* \"#utility.yul\":8657:8675   */\n      0x64\n      dup3\n      add\n        /* \"#utility.yul\":8650:8704   */\n      mstore\n        /* \"#utility.yul\":8721:8740   */\n      0x84\n      add\n        /* \"MoonCats_flat.sol\":26647:26812  require(... */\n      tag_131\n        /* \"#utility.yul\":8326:8746   */\n      jump\n        /* \"MoonCats_flat.sol\":26647:26812  require(... */\n    tag_143:\n        /* \"MoonCats_flat.sol\":26823:26844  _approve(to, tokenId) */\n      tag_146\n        /* \"MoonCats_flat.sol\":26832:26834  to */\n      dup4\n        /* \"MoonCats_flat.sol\":26836:26843  tokenId */\n      dup4\n        /* \"MoonCats_flat.sol\":26823:26831  _approve */\n      tag_147\n        /* \"MoonCats_flat.sol\":26823:26844  _approve(to, tokenId) */\n      jump\t// in\n    tag_146:\n        /* \"MoonCats_flat.sol\":26520:26851  {... */\n      pop\n        /* \"MoonCats_flat.sol\":26450:26851  function approve(address to, uint256 tokenId) public virtual override {... */\n      pop\n      pop\n      jump\t// out\n        /* \"MoonCats_flat.sol\":27639:27969  function transferFrom(... */\n    tag_52:\n        /* \"MoonCats_flat.sol\":27828:27869  _isApprovedOrOwner(_msgSender(), tokenId) */\n      tag_149\n        /* \"MoonCats_flat.sol\":4245:4255  msg.sender */\n      caller\n        /* \"MoonCats_flat.sol\":27847:27859  _msgSender() */\n    tag_150:\n        /* \"MoonCats_flat.sol\":27861:27868  tokenId */\n      dup3\n        /* \"MoonCats_flat.sol\":27828:27846  _isApprovedOrOwner */\n      tag_151\n        /* \"MoonCats_flat.sol\":27828:27869  _isApprovedOrOwner(_msgSender(), tokenId) */\n      jump\t// in\n    tag_149:\n        /* \"MoonCats_flat.sol\":27820:27923  require(_isApprovedOrOwner(_msgSender(), tokenId), \"ERC721: transfer caller is not owner nor approved\") */\n      tag_152\n      jumpi\n      mload(0x40)\n      shl(0xe5, 0x461bcd)\n      dup2\n      mstore\n      0x04\n      add\n      tag_131\n      swap1\n      tag_154\n      jump\t// in\n    tag_152:\n        /* \"MoonCats_flat.sol\":27934:27962  _transfer(from, to, tokenId) */\n      tag_146\n        /* \"MoonCats_flat.sol\":27944:27948  from */\n      dup4\n        /* \"MoonCats_flat.sol\":27950:27952  to */\n      dup4\n        /* \"MoonCats_flat.sol\":27954:27961  tokenId */\n      dup4\n        /* \"MoonCats_flat.sol\":27934:27943  _transfer */\n      tag_156\n        /* \"MoonCats_flat.sol\":27934:27962  _transfer(from, to, tokenId) */\n      jump\t// in\n        /* \"MoonCats_flat.sol\":40163:40375  function withdraw() public  payable  {... */\n    tag_54:\n        /* \"MoonCats_flat.sol\":40210:40223  address owner */\n      0x00\n        /* \"MoonCats_flat.sol\":40226:40233  owner() */\n      tag_158\n        /* \"MoonCats_flat.sol\":5470:5476  _owner */\n      and(sub(shl(0xa0, 0x01), 0x01), sload(0x07))\n      swap1\n        /* \"MoonCats_flat.sol\":5398:5483  function owner() public view virtual returns (address) {... */\n      jump\n        /* \"MoonCats_flat.sol\":40226:40233  owner() */\n    tag_158:\n        /* \"MoonCats_flat.sol\":40210:40233  address owner = owner() */\n      swap1\n      pop\n      sub(shl(0xa0, 0x01), 0x01)\n        /* \"MoonCats_flat.sol\":40251:40270  owner == msg.sender */\n      dup2\n      and\n        /* \"MoonCats_flat.sol\":40260:40270  msg.sender */\n      caller\n        /* \"MoonCats_flat.sol\":40251:40270  owner == msg.sender */\n      eq\n        /* \"MoonCats_flat.sol\":40243:40271  require(owner == msg.sender) */\n      tag_159\n      jumpi\n      0x00\n      dup1\n      revert\n    tag_159:\n        /* \"MoonCats_flat.sol\":40331:40365  to.transfer(address(this).balance) */\n      mload(0x40)\n        /* \"MoonCats_flat.sol\":40310:40320  msg.sender */\n      caller\n      swap1\n      dup2\n      swap1\n        /* \"MoonCats_flat.sol\":40343:40364  address(this).balance */\n      selfbalance\n        /* \"MoonCats_flat.sol\":40331:40365  to.transfer(address(this).balance) */\n      dup1\n      iszero\n      0x08fc\n      mul\n      swap2\n        /* \"MoonCats_flat.sol\":40281:40299  address payable to */\n      0x00\n        /* \"MoonCats_flat.sol\":40331:40365  to.transfer(address(this).balance) */\n      dup2\n        /* \"MoonCats_flat.sol\":40281:40299  address payable to */\n      dup2\n        /* \"MoonCats_flat.sol\":40331:40365  to.transfer(address(this).balance) */\n      dup2\n        /* \"MoonCats_flat.sol\":40343:40364  address(this).balance */\n      dup6\n        /* \"MoonCats_flat.sol\":40310:40320  msg.sender */\n      dup9\n        /* \"MoonCats_flat.sol\":40331:40365  to.transfer(address(this).balance) */\n      dup9\n      call\n      swap4\n      pop\n      pop\n      pop\n      pop\n      iszero\n      dup1\n      iszero\n      tag_146\n      jumpi\n      returndatasize\n      0x00\n      dup1\n      returndatacopy\n      revert(0x00, returndatasize)\n        /* \"MoonCats_flat.sol\":28035:28214  function safeTransferFrom(... */\n    tag_58:\n        /* \"MoonCats_flat.sol\":28168:28207  safeTransferFrom(from, to, tokenId, \"\") */\n      tag_146\n        /* \"MoonCats_flat.sol\":28185:28189  from */\n      dup4\n        /* \"MoonCats_flat.sol\":28191:28193  to */\n      dup4\n        /* \"MoonCats_flat.sol\":28195:28202  tokenId */\n      dup4\n        /* \"MoonCats_flat.sol\":28168:28207  safeTransferFrom(from, to, tokenId, \"\") */\n      mload(0x40)\n      dup1\n      0x20\n      add\n      0x40\n      mstore\n      dup1\n      0x00\n      dup2\n      mstore\n      pop\n        /* \"MoonCats_flat.sol\":28168:28184  safeTransferFrom */\n      tag_95\n        /* \"MoonCats_flat.sol\":28168:28207  safeTransferFrom(from, to, tokenId, \"\") */\n      jump\t// in\n        /* \"MoonCats_flat.sol\":37064:37305  function burn(uint256 tokenId) public virtual {... */\n    tag_62:\n        /* \"MoonCats_flat.sol\":37180:37221  _isApprovedOrOwner(_msgSender(), tokenId) */\n      tag_165\n        /* \"MoonCats_flat.sol\":4245:4255  msg.sender */\n      caller\n        /* \"MoonCats_flat.sol\":37199:37211  _msgSender() */\n      tag_150\n        /* \"MoonCats_flat.sol\":4166:4262  function _msgSender() internal view virtual returns (address) {... */\n      jump\n        /* \"MoonCats_flat.sol\":37180:37221  _isApprovedOrOwner(_msgSender(), tokenId) */\n    tag_165:\n        /* \"MoonCats_flat.sol\":37172:37274  require(_isApprovedOrOwner(_msgSender(), tokenId), \"ERC721Burnable: caller is not owner nor approved\") */\n      tag_167\n      jumpi\n      mload(0x40)\n      shl(0xe5, 0x461bcd)\n      dup2\n      mstore\n        /* \"#utility.yul\":13794:13796   */\n      0x20\n        /* \"MoonCats_flat.sol\":37172:37274  require(_isApprovedOrOwner(_msgSender(), tokenId), \"ERC721Burnable: caller is not owner nor approved\") */\n      0x04\n      dup3\n      add\n        /* \"#utility.yul\":13776:13797   */\n      mstore\n        /* \"#utility.yul\":13833:13835   */\n      0x30\n        /* \"#utility.yul\":13813:13831   */\n      0x24\n      dup3\n      add\n        /* \"#utility.yul\":13806:13836   */\n      mstore\n        /* \"#utility.yul\":13872:13906   */\n      0x4552433732314275726e61626c653a2063616c6c6572206973206e6f74206f77\n        /* \"#utility.yul\":13852:13870   */\n      0x44\n      dup3\n      add\n        /* \"#utility.yul\":13845:13907   */\n      mstore\n      shl(0x82, 0x1b995c881b9bdc88185c1c1c9bdd9959)\n        /* \"#utility.yul\":13923:13941   */\n      0x64\n      dup3\n      add\n        /* \"#utility.yul\":13916:13962   */\n      mstore\n        /* \"#utility.yul\":13979:13998   */\n      0x84\n      add\n        /* \"MoonCats_flat.sol\":37172:37274  require(_isApprovedOrOwner(_msgSender(), tokenId), \"ERC721Burnable: caller is not owner nor approved\") */\n      tag_131\n        /* \"#utility.yul\":13592:14004   */\n      jump\n        /* \"MoonCats_flat.sol\":37172:37274  require(_isApprovedOrOwner(_msgSender(), tokenId), \"ERC721Burnable: caller is not owner nor approved\") */\n    tag_167:\n        /* \"MoonCats_flat.sol\":37284:37298  _burn(tokenId) */\n      tag_170\n        /* \"MoonCats_flat.sol\":37290:37297  tokenId */\n      dup2\n        /* \"MoonCats_flat.sol\":37284:37289  _burn */\n      tag_171\n        /* \"MoonCats_flat.sol\":37284:37298  _burn(tokenId) */\n      jump\t// in\n    tag_170:\n        /* \"MoonCats_flat.sol\":37064:37305  function burn(uint256 tokenId) public virtual {... */\n      pop\n      jump\t// out\n        /* \"MoonCats_flat.sol\":25104:25339  function ownerOf(uint256 tokenId) public view virtual override returns (address) {... */\n    tag_66:\n        /* \"MoonCats_flat.sol\":25176:25183  address */\n      0x00\n        /* \"MoonCats_flat.sol\":25211:25227  _owners[tokenId] */\n      dup2\n      dup2\n      mstore\n        /* \"MoonCats_flat.sol\":25211:25218  _owners */\n      0x02\n        /* \"MoonCats_flat.sol\":25211:25227  _owners[tokenId] */\n      0x20\n      mstore\n      0x40\n      dup2\n      keccak256\n      sload\n      sub(shl(0xa0, 0x01), 0x01)\n      and\n        /* \"MoonCats_flat.sol\":25245:25264  owner != address(0) */\n      dup1\n        /* \"MoonCats_flat.sol\":25237:25310  require(owner != address(0), \"ERC721: owner query for nonexistent token\") */\n      tag_118\n      jumpi\n      mload(0x40)\n      shl(0xe5, 0x461bcd)\n      dup2\n      mstore\n        /* \"#utility.yul\":9364:9366   */\n      0x20\n        /* \"MoonCats_flat.sol\":25237:25310  require(owner != address(0), \"ERC721: owner query for nonexistent token\") */\n      0x04\n      dup3\n      add\n        /* \"#utility.yul\":9346:9367   */\n      mstore\n        /* \"#utility.yul\":9403:9405   */\n      0x29\n        /* \"#utility.yul\":9383:9401   */\n      0x24\n      dup3\n      add\n        /* \"#utility.yul\":9376:9406   */\n      mstore\n        /* \"#utility.yul\":9442:9476   */\n      0x4552433732313a206f776e657220717565727920666f72206e6f6e6578697374\n        /* \"#utility.yul\":9422:9440   */\n      0x44\n      dup3\n      add\n        /* \"#utility.yul\":9415:9477   */\n      mstore\n      shl(0xb9, 0x32b73a103a37b5b2b7)\n        /* \"#utility.yul\":9493:9511   */\n      0x64\n      dup3\n      add\n        /* \"#utility.yul\":9486:9525   */\n      mstore\n        /* \"#utility.yul\":9542:9561   */\n      0x84\n      add\n        /* \"MoonCats_flat.sol\":25237:25310  require(owner != address(0), \"ERC721: owner query for nonexistent token\") */\n      tag_131\n        /* \"#utility.yul\":9162:9567   */\n      jump\n        /* \"MoonCats_flat.sol\":24842:25047  function balanceOf(address owner) public view virtual override returns (uint256) {... */\n    tag_72:\n        /* \"MoonCats_flat.sol\":24914:24921  uint256 */\n      0x00\n      sub(shl(0xa0, 0x01), 0x01)\n        /* \"MoonCats_flat.sol\":24941:24960  owner != address(0) */\n      dup3\n      and\n        /* \"MoonCats_flat.sol\":24933:25007  require(owner != address(0), \"ERC721: balance query for the zero address\") */\n      tag_177\n      jumpi\n      mload(0x40)\n      shl(0xe5, 0x461bcd)\n      dup2\n      mstore\n        /* \"#utility.yul\":8953:8955   */\n      0x20\n        /* \"MoonCats_flat.sol\":24933:25007  require(owner != address(0), \"ERC721: balance query for the zero address\") */\n      0x04\n      dup3\n      add\n        /* \"#utility.yul\":8935:8956   */\n      mstore\n        /* \"#utility.yul\":8992:8994   */\n      0x2a\n        /* \"#utility.yul\":8972:8990   */\n      0x24\n      dup3\n      add\n        /* \"#utility.yul\":8965:8995   */\n      mstore\n        /* \"#utility.yul\":9031:9065   */\n      0x4552433732313a2062616c616e636520717565727920666f7220746865207a65\n        /* \"#utility.yul\":9011:9029   */\n      0x44\n      dup3\n      add\n        /* \"#utility.yul\":9004:9066   */\n      mstore\n      shl(0xb0, 0x726f2061646472657373)\n        /* \"#utility.yul\":9082:9100   */\n      0x64\n      dup3\n      add\n        /* \"#utility.yul\":9075:9115   */\n      mstore\n        /* \"#utility.yul\":9132:9151   */\n      0x84\n      add\n        /* \"MoonCats_flat.sol\":24933:25007  require(owner != address(0), \"ERC721: balance query for the zero address\") */\n      tag_131\n        /* \"#utility.yul\":8751:9157   */\n      jump\n        /* \"MoonCats_flat.sol\":24933:25007  require(owner != address(0), \"ERC721: balance query for the zero address\") */\n    tag_177:\n      pop\n      sub(shl(0xa0, 0x01), 0x01)\n        /* \"MoonCats_flat.sol\":25024:25040  _balances[owner] */\n      and\n      0x00\n      swap1\n      dup2\n      mstore\n        /* \"MoonCats_flat.sol\":25024:25033  _balances */\n      0x03\n        /* \"MoonCats_flat.sol\":25024:25040  _balances[owner] */\n      0x20\n      mstore\n      0x40\n      swap1\n      keccak256\n      sload\n      swap1\n        /* \"MoonCats_flat.sol\":24842:25047  function balanceOf(address owner) public view virtual override returns (uint256) {... */\n      jump\t// out\n        /* \"MoonCats_flat.sol\":6030:6131  function renounceOwnership() public virtual onlyOwner {... */\n    tag_77:\n        /* \"MoonCats_flat.sol\":5470:5476  _owner */\n      and(sub(shl(0xa0, 0x01), 0x01), sload(0x07))\n        /* \"MoonCats_flat.sol\":4245:4255  msg.sender */\n      caller\n        /* \"MoonCats_flat.sol\":5610:5633  owner() == _msgSender() */\n      eq\n        /* \"MoonCats_flat.sol\":5602:5670  require(owner() == _msgSender(), \"Ownable: caller is not the owner\") */\n      tag_183\n      jumpi\n      mload(0x40)\n      shl(0xe5, 0x461bcd)\n      dup2\n      mstore\n        /* \"#utility.yul\":11381:11383   */\n      0x20\n        /* \"MoonCats_flat.sol\":5602:5670  require(owner() == _msgSender(), \"Ownable: caller is not the owner\") */\n      0x04\n      dup3\n      add\n        /* \"#utility.yul\":11363:11384   */\n      dup2\n      swap1\n      mstore\n        /* \"#utility.yul\":11400:11418   */\n      0x24\n      dup3\n      add\n        /* \"#utility.yul\":11393:11423   */\n      mstore\n        /* \"#utility.yul\":11459:11493   */\n      0x4f776e61626c653a2063616c6c6572206973206e6f7420746865206f776e6572\n        /* \"#utility.yul\":11439:11457   */\n      0x44\n      dup3\n      add\n        /* \"#utility.yul\":11432:11494   */\n      mstore\n        /* \"#utility.yul\":11511:11529   */\n      0x64\n      add\n        /* \"MoonCats_flat.sol\":5602:5670  require(owner() == _msgSender(), \"Ownable: caller is not the owner\") */\n      tag_131\n        /* \"#utility.yul\":11179:11535   */\n      jump\n        /* \"MoonCats_flat.sol\":5602:5670  require(owner() == _msgSender(), \"Ownable: caller is not the owner\") */\n    tag_183:\n        /* \"MoonCats_flat.sol\":6094:6124  _transferOwnership(address(0)) */\n      tag_187\n        /* \"MoonCats_flat.sol\":6121:6122  0 */\n      0x00\n        /* \"MoonCats_flat.sol\":6094:6112  _transferOwnership */\n      tag_188\n        /* \"MoonCats_flat.sol\":6094:6124  _transferOwnership(address(0)) */\n      jump\t// in\n    tag_187:\n        /* \"MoonCats_flat.sol\":6030:6131  function renounceOwnership() public virtual onlyOwner {... */\n      jump\t// out\n        /* \"MoonCats_flat.sol\":25563:25665  function symbol() public view virtual override returns (string memory) {... */\n    tag_84:\n        /* \"MoonCats_flat.sol\":25619:25632  string memory */\n      0x60\n        /* \"MoonCats_flat.sol\":25651:25658  _symbol */\n      0x01\n        /* \"MoonCats_flat.sol\":25644:25658  return _symbol */\n      dup1\n      sload\n      tag_121\n      swap1\n      tag_122\n      jump\t// in\n        /* \"MoonCats_flat.sol\":27196:27349  function setApprovalForAll(address operator, bool approved) public virtual override {... */\n    tag_90:\n        /* \"MoonCats_flat.sol\":27290:27342  _setApprovalForAll(_msgSender(), operator, approved) */\n      tag_197\n        /* \"MoonCats_flat.sol\":4245:4255  msg.sender */\n      caller\n        /* \"MoonCats_flat.sol\":27323:27331  operator */\n      dup4\n        /* \"MoonCats_flat.sol\":27333:27341  approved */\n      dup4\n        /* \"MoonCats_flat.sol\":27290:27308  _setApprovalForAll */\n      tag_199\n        /* \"MoonCats_flat.sol\":27290:27342  _setApprovalForAll(_msgSender(), operator, approved) */\n      jump\t// in\n    tag_197:\n        /* \"MoonCats_flat.sol\":27196:27349  function setApprovalForAll(address operator, bool approved) public virtual override {... */\n      pop\n      pop\n      jump\t// out\n        /* \"MoonCats_flat.sol\":28280:28600  function safeTransferFrom(... */\n    tag_95:\n        /* \"MoonCats_flat.sol\":28449:28490  _isApprovedOrOwner(_msgSender(), tokenId) */\n      tag_201\n        /* \"MoonCats_flat.sol\":4245:4255  msg.sender */\n      caller\n        /* \"MoonCats_flat.sol\":28482:28489  tokenId */\n      dup4\n        /* \"MoonCats_flat.sol\":28449:28467  _isApprovedOrOwner */\n      tag_151\n        /* \"MoonCats_flat.sol\":28449:28490  _isApprovedOrOwner(_msgSender(), tokenId) */\n      jump\t// in\n    tag_201:\n        /* \"MoonCats_flat.sol\":28441:28544  require(_isApprovedOrOwner(_msgSender(), tokenId), \"ERC721: transfer caller is not owner nor approved\") */\n      tag_203\n      jumpi\n      mload(0x40)\n      shl(0xe5, 0x461bcd)\n      dup2\n      mstore\n      0x04\n      add\n      tag_131\n      swap1\n      tag_154\n      jump\t// in\n    tag_203:\n        /* \"MoonCats_flat.sol\":28554:28593  _safeTransfer(from, to, tokenId, _data) */\n      tag_205\n        /* \"MoonCats_flat.sol\":28568:28572  from */\n      dup5\n        /* \"MoonCats_flat.sol\":28574:28576  to */\n      dup5\n        /* \"MoonCats_flat.sol\":28578:28585  tokenId */\n      dup5\n        /* \"MoonCats_flat.sol\":28587:28592  _data */\n      dup5\n        /* \"MoonCats_flat.sol\":28554:28567  _safeTransfer */\n      tag_206\n        /* \"MoonCats_flat.sol\":28554:28593  _safeTransfer(from, to, tokenId, _data) */\n      jump\t// in\n    tag_205:\n        /* \"MoonCats_flat.sol\":28280:28600  function safeTransferFrom(... */\n      pop\n      pop\n      pop\n      pop\n      jump\t// out\n        /* \"MoonCats_flat.sol\":39968:40157  function tokenURI(uint256 tokenId)... */\n    tag_99:\n        /* \"MoonCats_flat.sol\":40091:40104  string memory */\n      0x60\n        /* \"MoonCats_flat.sol\":40127:40150  super.tokenURI(tokenId) */\n      tag_118\n        /* \"MoonCats_flat.sol\":40142:40149  tokenId */\n      dup3\n        /* \"MoonCats_flat.sol\":40127:40141  super.tokenURI */\n      tag_209\n        /* \"MoonCats_flat.sol\":40127:40150  super.tokenURI(tokenId) */\n      jump\t// in\n        /* \"MoonCats_flat.sol\":39525:39843  function safeMint(address to, string memory uri) public payable {... */\n    tag_104:\n        /* \"MoonCats_flat.sol\":39607:39616  msg.value */\n      callvalue\n        /* \"MoonCats_flat.sol\":39620:39627  2 ether */\n      0x1bc16d674ec80000\n        /* \"MoonCats_flat.sol\":39607:39627  msg.value == 2 ether */\n      eq\n        /* \"MoonCats_flat.sol\":39599:39669  require(msg.value == 2 ether, 'Only 2 glmr allowed to be transfered.') */\n      tag_211\n      jumpi\n      mload(0x40)\n      shl(0xe5, 0x461bcd)\n      dup2\n      mstore\n        /* \"#utility.yul\":13388:13390   */\n      0x20\n        /* \"MoonCats_flat.sol\":39599:39669  require(msg.value == 2 ether, 'Only 2 glmr allowed to be transfered.') */\n      0x04\n      dup3\n      add\n        /* \"#utility.yul\":13370:13391   */\n      mstore\n        /* \"#utility.yul\":13427:13429   */\n      0x25\n        /* \"#utility.yul\":13407:13425   */\n      0x24\n      dup3\n      add\n        /* \"#utility.yul\":13400:13430   */\n      mstore\n        /* \"#utility.yul\":13466:13500   */\n      0x4f6e6c79203220676c6d7220616c6c6f77656420746f206265207472616e7366\n        /* \"#utility.yul\":13446:13464   */\n      0x44\n      dup3\n      add\n        /* \"#utility.yul\":13439:13501   */\n      mstore\n      shl(0xd9, 0x32b932b217)\n        /* \"#utility.yul\":13517:13535   */\n      0x64\n      dup3\n      add\n        /* \"#utility.yul\":13510:13545   */\n      mstore\n        /* \"#utility.yul\":13562:13581   */\n      0x84\n      add\n        /* \"MoonCats_flat.sol\":39599:39669  require(msg.value == 2 ether, 'Only 2 glmr allowed to be transfered.') */\n      tag_131\n        /* \"#utility.yul\":13186:13587   */\n      jump\n        /* \"MoonCats_flat.sol\":39599:39669  require(msg.value == 2 ether, 'Only 2 glmr allowed to be transfered.') */\n    tag_211:\n        /* \"MoonCats_flat.sol\":39688:39703  uint256 tokenId */\n      0x00\n        /* \"MoonCats_flat.sol\":39706:39731  _tokenIdCounter.current() */\n      tag_214\n        /* \"MoonCats_flat.sol\":39706:39721  _tokenIdCounter */\n      0x08\n        /* \"MoonCats_flat.sol\":972:986  counter._value */\n      sload\n      swap1\n        /* \"MoonCats_flat.sol\":881:993  function current(Counter storage counter) internal view returns (uint256) {... */\n      jump\n        /* \"MoonCats_flat.sol\":39706:39731  _tokenIdCounter.current() */\n    tag_214:\n        /* \"MoonCats_flat.sol\":39688:39731  uint256 tokenId = _tokenIdCounter.current() */\n      swap1\n      pop\n        /* \"MoonCats_flat.sol\":39741:39768  _tokenIdCounter.increment() */\n      tag_216\n        /* \"MoonCats_flat.sol\":39741:39756  _tokenIdCounter */\n      0x08\n        /* \"MoonCats_flat.sol\":1086:1105  counter._value += 1 */\n      dup1\n      sload\n        /* \"MoonCats_flat.sol\":1104:1105  1 */\n      0x01\n        /* \"MoonCats_flat.sol\":1086:1105  counter._value += 1 */\n      add\n      swap1\n      sstore\n        /* \"MoonCats_flat.sol\":999:1122  function increment(Counter storage counter) internal {... */\n      jump\n        /* \"MoonCats_flat.sol\":39741:39768  _tokenIdCounter.increment() */\n    tag_216:\n        /* \"MoonCats_flat.sol\":39778:39800  _safeMint(to, tokenId) */\n      tag_218\n        /* \"MoonCats_flat.sol\":39788:39790  to */\n      dup4\n        /* \"MoonCats_flat.sol\":39792:39799  tokenId */\n      dup3\n        /* \"MoonCats_flat.sol\":39778:39787  _safeMint */\n      tag_219\n        /* \"MoonCats_flat.sol\":39778:39800  _safeMint(to, tokenId) */\n      jump\t// in\n    tag_218:\n        /* \"MoonCats_flat.sol\":39810:39836  _setTokenURI(tokenId, uri) */\n      tag_146\n        /* \"MoonCats_flat.sol\":39823:39830  tokenId */\n      dup2\n        /* \"MoonCats_flat.sol\":39832:39835  uri */\n      dup4\n        /* \"MoonCats_flat.sol\":39810:39822  _setTokenURI */\n      tag_221\n        /* \"MoonCats_flat.sol\":39810:39836  _setTokenURI(tokenId, uri) */\n      jump\t// in\n        /* \"MoonCats_flat.sol\":6280:6478  function transferOwnership(address newOwner) public virtual onlyOwner {... */\n    tag_114:\n        /* \"MoonCats_flat.sol\":5470:5476  _owner */\n      and(sub(shl(0xa0, 0x01), 0x01), sload(0x07))\n        /* \"MoonCats_flat.sol\":4245:4255  msg.sender */\n      caller\n        /* \"MoonCats_flat.sol\":5610:5633  owner() == _msgSender() */\n      eq\n        /* \"MoonCats_flat.sol\":5602:5670  require(owner() == _msgSender(), \"Ownable: caller is not the owner\") */\n      tag_226\n      jumpi\n      mload(0x40)\n      shl(0xe5, 0x461bcd)\n      dup2\n      mstore\n        /* \"#utility.yul\":11381:11383   */\n      0x20\n        /* \"MoonCats_flat.sol\":5602:5670  require(owner() == _msgSender(), \"Ownable: caller is not the owner\") */\n      0x04\n      dup3\n      add\n        /* \"#utility.yul\":11363:11384   */\n      dup2\n      swap1\n      mstore\n        /* \"#utility.yul\":11400:11418   */\n      0x24\n      dup3\n      add\n        /* \"#utility.yul\":11393:11423   */\n      mstore\n        /* \"#utility.yul\":11459:11493   */\n      0x4f776e61626c653a2063616c6c6572206973206e6f7420746865206f776e6572\n        /* \"#utility.yul\":11439:11457   */\n      0x44\n      dup3\n      add\n        /* \"#utility.yul\":11432:11494   */\n      mstore\n        /* \"#utility.yul\":11511:11529   */\n      0x64\n      add\n        /* \"MoonCats_flat.sol\":5602:5670  require(owner() == _msgSender(), \"Ownable: caller is not the owner\") */\n      tag_131\n        /* \"#utility.yul\":11179:11535   */\n      jump\n        /* \"MoonCats_flat.sol\":5602:5670  require(owner() == _msgSender(), \"Ownable: caller is not the owner\") */\n    tag_226:\n      sub(shl(0xa0, 0x01), 0x01)\n        /* \"MoonCats_flat.sol\":6368:6390  newOwner != address(0) */\n      dup2\n      and\n        /* \"MoonCats_flat.sol\":6360:6433  require(newOwner != address(0), \"Ownable: new owner is the zero address\") */\n      tag_229\n      jumpi\n      mload(0x40)\n      shl(0xe5, 0x461bcd)\n      dup2\n      mstore\n        /* \"#utility.yul\":6592:6594   */\n      0x20\n        /* \"MoonCats_flat.sol\":6360:6433  require(newOwner != address(0), \"Ownable: new owner is the zero address\") */\n      0x04\n      dup3\n      add\n        /* \"#utility.yul\":6574:6595   */\n      mstore\n        /* \"#utility.yul\":6631:6633   */\n      0x26\n        /* \"#utility.yul\":6611:6629   */\n      0x24\n      dup3\n      add\n        /* \"#utility.yul\":6604:6634   */\n      mstore\n        /* \"#utility.yul\":6670:6704   */\n      0x4f776e61626c653a206e6577206f776e657220697320746865207a65726f2061\n        /* \"#utility.yul\":6650:6668   */\n      0x44\n      dup3\n      add\n        /* \"#utility.yul\":6643:6705   */\n      mstore\n      shl(0xd0, 0x646472657373)\n        /* \"#utility.yul\":6721:6739   */\n      0x64\n      dup3\n      add\n        /* \"#utility.yul\":6714:6750   */\n      mstore\n        /* \"#utility.yul\":6767:6786   */\n      0x84\n      add\n        /* \"MoonCats_flat.sol\":6360:6433  require(newOwner != address(0), \"Ownable: new owner is the zero address\") */\n      tag_131\n        /* \"#utility.yul\":6390:6792   */\n      jump\n        /* \"MoonCats_flat.sol\":6360:6433  require(newOwner != address(0), \"Ownable: new owner is the zero address\") */\n    tag_229:\n        /* \"MoonCats_flat.sol\":6443:6471  _transferOwnership(newOwner) */\n      tag_170\n        /* \"MoonCats_flat.sol\":6462:6470  newOwner */\n      dup2\n        /* \"MoonCats_flat.sol\":6443:6461  _transferOwnership */\n      tag_188\n        /* \"MoonCats_flat.sol\":6443:6471  _transferOwnership(newOwner) */\n      jump\t// in\n        /* \"MoonCats_flat.sol\":30072:30197  function _exists(uint256 tokenId) internal view virtual returns (bool) {... */\n    tag_129:\n        /* \"MoonCats_flat.sol\":30137:30141  bool */\n      0x00\n        /* \"MoonCats_flat.sol\":30160:30176  _owners[tokenId] */\n      swap1\n      dup2\n      mstore\n        /* \"MoonCats_flat.sol\":30160:30167  _owners */\n      0x02\n        /* \"MoonCats_flat.sol\":30160:30176  _owners[tokenId] */\n      0x20\n      mstore\n      0x40\n      swap1\n      keccak256\n      sload\n      sub(shl(0xa0, 0x01), 0x01)\n      and\n        /* \"MoonCats_flat.sol\":30160:30190  _owners[tokenId] != address(0) */\n      iszero\n      iszero\n      swap1\n        /* \"MoonCats_flat.sol\":30072:30197  function _exists(uint256 tokenId) internal view virtual returns (bool) {... */\n      jump\t// out\n        /* \"MoonCats_flat.sol\":33923:34094  function _approve(address to, uint256 tokenId) internal virtual {... */\n    tag_147:\n        /* \"MoonCats_flat.sol\":33997:34021  _tokenApprovals[tokenId] */\n      0x00\n      dup2\n      dup2\n      mstore\n        /* \"MoonCats_flat.sol\":33997:34012  _tokenApprovals */\n      0x04\n        /* \"MoonCats_flat.sol\":33997:34021  _tokenApprovals[tokenId] */\n      0x20\n      mstore\n      0x40\n      swap1\n      keccak256\n        /* \"MoonCats_flat.sol\":33997:34026  _tokenApprovals[tokenId] = to */\n      dup1\n      sload\n      not(sub(shl(0xa0, 0x01), 0x01))\n      and\n      sub(shl(0xa0, 0x01), 0x01)\n      dup5\n      and\n      swap1\n      dup2\n      or\n      swap1\n      swap2\n      sstore\n        /* \"MoonCats_flat.sol\":33997:34021  _tokenApprovals[tokenId] */\n      dup2\n      swap1\n        /* \"MoonCats_flat.sol\":34050:34073  ERC721.ownerOf(tokenId) */\n      tag_237\n        /* \"MoonCats_flat.sol\":33997:34021  _tokenApprovals[tokenId] */\n      dup3\n        /* \"MoonCats_flat.sol\":34050:34064  ERC721.ownerOf */\n      tag_66\n        /* \"MoonCats_flat.sol\":34050:34073  ERC721.ownerOf(tokenId) */\n      jump\t// in\n    tag_237:\n      sub(shl(0xa0, 0x01), 0x01)\n        /* \"MoonCats_flat.sol\":34041:34087  Approval(ERC721.ownerOf(tokenId), to, tokenId) */\n      and\n      0x8c5be1e5ebec7d5bd14f71427d1e84f3dd0314c0f7b2291e5b200ac8c7c3b925\n      mload(0x40)\n      mload(0x40)\n      dup1\n      swap2\n      sub\n      swap1\n      log4\n        /* \"MoonCats_flat.sol\":33923:34094  function _approve(address to, uint256 tokenId) internal virtual {... */\n      pop\n      pop\n      jump\t// out\n        /* \"MoonCats_flat.sol\":30355:30699  function _isApprovedOrOwner(address spender, uint256 tokenId) internal view virtual returns (bool) {... */\n    tag_151:\n        /* \"MoonCats_flat.sol\":30448:30452  bool */\n      0x00\n        /* \"MoonCats_flat.sol\":30472:30488  _exists(tokenId) */\n      tag_239\n        /* \"MoonCats_flat.sol\":30480:30487  tokenId */\n      dup3\n        /* \"MoonCats_flat.sol\":30472:30479  _exists */\n      tag_129\n        /* \"MoonCats_flat.sol\":30472:30488  _exists(tokenId) */\n      jump\t// in\n    tag_239:\n        /* \"MoonCats_flat.sol\":30464:30537  require(_exists(tokenId), \"ERC721: operator query for nonexistent token\") */\n      tag_240\n      jumpi\n      mload(0x40)\n      shl(0xe5, 0x461bcd)\n      dup2\n      mstore\n        /* \"#utility.yul\":8115:8117   */\n      0x20\n        /* \"MoonCats_flat.sol\":30464:30537  require(_exists(tokenId), \"ERC721: operator query for nonexistent token\") */\n      0x04\n      dup3\n      add\n        /* \"#utility.yul\":8097:8118   */\n      mstore\n        /* \"#utility.yul\":8154:8156   */\n      0x2c\n        /* \"#utility.yul\":8134:8152   */\n      0x24\n      dup3\n      add\n        /* \"#utility.yul\":8127:8157   */\n      mstore\n        /* \"#utility.yul\":8193:8227   */\n      0x4552433732313a206f70657261746f7220717565727920666f72206e6f6e6578\n        /* \"#utility.yul\":8173:8191   */\n      0x44\n      dup3\n      add\n        /* \"#utility.yul\":8166:8228   */\n      mstore\n      shl(0xa1, 0x34b9ba32b73a103a37b5b2b7)\n        /* \"#utility.yul\":8244:8262   */\n      0x64\n      dup3\n      add\n        /* \"#utility.yul\":8237:8279   */\n      mstore\n        /* \"#utility.yul\":8296:8315   */\n      0x84\n      add\n        /* \"MoonCats_flat.sol\":30464:30537  require(_exists(tokenId), \"ERC721: operator query for nonexistent token\") */\n      tag_131\n        /* \"#utility.yul\":7913:8321   */\n      jump\n        /* \"MoonCats_flat.sol\":30464:30537  require(_exists(tokenId), \"ERC721: operator query for nonexistent token\") */\n    tag_240:\n        /* \"MoonCats_flat.sol\":30547:30560  address owner */\n      0x00\n        /* \"MoonCats_flat.sol\":30563:30586  ERC721.ownerOf(tokenId) */\n      tag_243\n        /* \"MoonCats_flat.sol\":30578:30585  tokenId */\n      dup4\n        /* \"MoonCats_flat.sol\":30563:30577  ERC721.ownerOf */\n      tag_66\n        /* \"MoonCats_flat.sol\":30563:30586  ERC721.ownerOf(tokenId) */\n      jump\t// in\n    tag_243:\n        /* \"MoonCats_flat.sol\":30547:30586  address owner = ERC721.ownerOf(tokenId) */\n      swap1\n      pop\n        /* \"MoonCats_flat.sol\":30615:30620  owner */\n      dup1\n      sub(shl(0xa0, 0x01), 0x01)\n        /* \"MoonCats_flat.sol\":30604:30620  spender == owner */\n      and\n        /* \"MoonCats_flat.sol\":30604:30611  spender */\n      dup5\n      sub(shl(0xa0, 0x01), 0x01)\n        /* \"MoonCats_flat.sol\":30604:30620  spender == owner */\n      and\n      eq\n        /* \"MoonCats_flat.sol\":30604:30655  spender == owner || getApproved(tokenId) == spender */\n      dup1\n      tag_244\n      jumpi\n      pop\n        /* \"MoonCats_flat.sol\":30648:30655  spender */\n      dup4\n      sub(shl(0xa0, 0x01), 0x01)\n        /* \"MoonCats_flat.sol\":30624:30655  getApproved(tokenId) == spender */\n      and\n        /* \"MoonCats_flat.sol\":30624:30644  getApproved(tokenId) */\n      tag_245\n        /* \"MoonCats_flat.sol\":30636:30643  tokenId */\n      dup5\n        /* \"MoonCats_flat.sol\":30624:30635  getApproved */\n      tag_40\n        /* \"MoonCats_flat.sol\":30624:30644  getApproved(tokenId) */\n      jump\t// in\n    tag_245:\n      sub(shl(0xa0, 0x01), 0x01)\n        /* \"MoonCats_flat.sol\":30624:30655  getApproved(tokenId) == spender */\n      and\n      eq\n        /* \"MoonCats_flat.sol\":30604:30655  spender == owner || getApproved(tokenId) == spender */\n    tag_244:\n        /* \"MoonCats_flat.sol\":30604:30691  spender == owner || getApproved(tokenId) == spender || isApprovedForAll(owner, spender) */\n      dup1\n      tag_247\n      jumpi\n      pop\n      sub(shl(0xa0, 0x01), 0x01)\n        /* \"MoonCats_flat.sol\":27535:27560  _operatorApprovals[owner] */\n      dup1\n      dup3\n      and\n        /* \"MoonCats_flat.sol\":27512:27516  bool */\n      0x00\n        /* \"MoonCats_flat.sol\":27535:27560  _operatorApprovals[owner] */\n      swap1\n      dup2\n      mstore\n        /* \"MoonCats_flat.sol\":27535:27553  _operatorApprovals */\n      0x05\n        /* \"MoonCats_flat.sol\":27535:27560  _operatorApprovals[owner] */\n      0x20\n      swap1\n      dup2\n      mstore\n      0x40\n      dup1\n      dup4\n      keccak256\n        /* \"MoonCats_flat.sol\":27535:27570  _operatorApprovals[owner][operator] */\n      swap4\n      dup9\n      and\n      dup4\n      mstore\n      swap3\n      swap1\n      mstore\n      keccak256\n      sload\n      0xff\n      and\n        /* \"MoonCats_flat.sol\":30659:30691  isApprovedForAll(owner, spender) */\n    tag_247:\n        /* \"MoonCats_flat.sol\":30596:30692  return (spender == owner || getApproved(tokenId) == spender || isApprovedForAll(owner, spender)) */\n      swap5\n        /* \"MoonCats_flat.sol\":30355:30699  function _isApprovedOrOwner(address spender, uint256 tokenId) internal view virtual returns (bool) {... */\n      swap4\n      pop\n      pop\n      pop\n      pop\n      jump\t// out\n        /* \"MoonCats_flat.sol\":33252:33812  function _transfer(... */\n    tag_156:\n        /* \"MoonCats_flat.sol\":33406:33410  from */\n      dup3\n      sub(shl(0xa0, 0x01), 0x01)\n        /* \"MoonCats_flat.sol\":33379:33410  ERC721.ownerOf(tokenId) == from */\n      and\n        /* \"MoonCats_flat.sol\":33379:33402  ERC721.ownerOf(tokenId) */\n      tag_249\n        /* \"MoonCats_flat.sol\":33394:33401  tokenId */\n      dup3\n        /* \"MoonCats_flat.sol\":33379:33393  ERC721.ownerOf */\n      tag_66\n        /* \"MoonCats_flat.sol\":33379:33402  ERC721.ownerOf(tokenId) */\n      jump\t// in\n    tag_249:\n      sub(shl(0xa0, 0x01), 0x01)\n        /* \"MoonCats_flat.sol\":33379:33410  ERC721.ownerOf(tokenId) == from */\n      and\n      eq\n        /* \"MoonCats_flat.sol\":33371:33456  require(ERC721.ownerOf(tokenId) == from, \"ERC721: transfer of token that is not own\") */\n      tag_250\n      jumpi\n      mload(0x40)\n      shl(0xe5, 0x461bcd)\n      dup2\n      mstore\n        /* \"#utility.yul\":11742:11744   */\n      0x20\n        /* \"MoonCats_flat.sol\":33371:33456  require(ERC721.ownerOf(tokenId) == from, \"ERC721: transfer of token that is not own\") */\n      0x04\n      dup3\n      add\n        /* \"#utility.yul\":11724:11745   */\n      mstore\n        /* \"#utility.yul\":11781:11783   */\n      0x29\n        /* \"#utility.yul\":11761:11779   */\n      0x24\n      dup3\n      add\n        /* \"#utility.yul\":11754:11784   */\n      mstore\n        /* \"#utility.yul\":11820:11854   */\n      0x4552433732313a207472616e73666572206f6620746f6b656e20746861742069\n        /* \"#utility.yul\":11800:11818   */\n      0x44\n      dup3\n      add\n        /* \"#utility.yul\":11793:11855   */\n      mstore\n      shl(0xb9, 0x39903737ba1037bbb7)\n        /* \"#utility.yul\":11871:11889   */\n      0x64\n      dup3\n      add\n        /* \"#utility.yul\":11864:11903   */\n      mstore\n        /* \"#utility.yul\":11920:11939   */\n      0x84\n      add\n        /* \"MoonCats_flat.sol\":33371:33456  require(ERC721.ownerOf(tokenId) == from, \"ERC721: transfer of token that is not own\") */\n      tag_131\n        /* \"#utility.yul\":11540:11945   */\n      jump\n        /* \"MoonCats_flat.sol\":33371:33456  require(ERC721.ownerOf(tokenId) == from, \"ERC721: transfer of token that is not own\") */\n    tag_250:\n      sub(shl(0xa0, 0x01), 0x01)\n        /* \"MoonCats_flat.sol\":33474:33490  to != address(0) */\n      dup3\n      and\n        /* \"MoonCats_flat.sol\":33466:33531  require(to != address(0), \"ERC721: transfer to the zero address\") */\n      tag_253\n      jumpi\n      mload(0x40)\n      shl(0xe5, 0x461bcd)\n      dup2\n      mstore\n        /* \"#utility.yul\":7356:7358   */\n      0x20\n        /* \"MoonCats_flat.sol\":33466:33531  require(to != address(0), \"ERC721: transfer to the zero address\") */\n      0x04\n      dup3\n      add\n        /* \"#utility.yul\":7338:7359   */\n      mstore\n        /* \"#utility.yul\":7395:7397   */\n      0x24\n        /* \"#utility.yul\":7375:7393   */\n      dup1\n      dup3\n      add\n        /* \"#utility.yul\":7368:7398   */\n      mstore\n        /* \"#utility.yul\":7434:7468   */\n      0x4552433732313a207472616e7366657220746f20746865207a65726f20616464\n        /* \"#utility.yul\":7414:7432   */\n      0x44\n      dup3\n      add\n        /* \"#utility.yul\":7407:7469   */\n      mstore\n      shl(0xe0, 0x72657373)\n        /* \"#utility.yul\":7485:7503   */\n      0x64\n      dup3\n      add\n        /* \"#utility.yul\":7478:7512   */\n      mstore\n        /* \"#utility.yul\":7529:7548   */\n      0x84\n      add\n        /* \"MoonCats_flat.sol\":33466:33531  require(to != address(0), \"ERC721: transfer to the zero address\") */\n      tag_131\n        /* \"#utility.yul\":7154:7554   */\n      jump\n        /* \"MoonCats_flat.sol\":33466:33531  require(to != address(0), \"ERC721: transfer to the zero address\") */\n    tag_253:\n        /* \"MoonCats_flat.sol\":33643:33672  _approve(address(0), tokenId) */\n      tag_258\n        /* \"MoonCats_flat.sol\":33660:33661  0 */\n      0x00\n        /* \"MoonCats_flat.sol\":33664:33671  tokenId */\n      dup3\n        /* \"MoonCats_flat.sol\":33643:33651  _approve */\n      tag_147\n        /* \"MoonCats_flat.sol\":33643:33672  _approve(address(0), tokenId) */\n      jump\t// in\n    tag_258:\n      sub(shl(0xa0, 0x01), 0x01)\n        /* \"MoonCats_flat.sol\":33683:33698  _balances[from] */\n      dup4\n      and\n      0x00\n      swap1\n      dup2\n      mstore\n        /* \"MoonCats_flat.sol\":33683:33692  _balances */\n      0x03\n        /* \"MoonCats_flat.sol\":33683:33698  _balances[from] */\n      0x20\n      mstore\n      0x40\n      dup2\n      keccak256\n        /* \"MoonCats_flat.sol\":33683:33703  _balances[from] -= 1 */\n      dup1\n      sload\n        /* \"MoonCats_flat.sol\":33702:33703  1 */\n      0x01\n      swap3\n        /* \"MoonCats_flat.sol\":33683:33698  _balances[from] */\n      swap1\n        /* \"MoonCats_flat.sol\":33683:33703  _balances[from] -= 1 */\n      tag_259\n      swap1\n        /* \"MoonCats_flat.sol\":33702:33703  1 */\n      dup5\n      swap1\n        /* \"MoonCats_flat.sol\":33683:33703  _balances[from] -= 1 */\n      tag_260\n      jump\t// in\n    tag_259:\n      swap1\n      swap2\n      sstore\n      pop\n      pop\n      sub(shl(0xa0, 0x01), 0x01)\n        /* \"MoonCats_flat.sol\":33713:33726  _balances[to] */\n      dup3\n      and\n      0x00\n      swap1\n      dup2\n      mstore\n        /* \"MoonCats_flat.sol\":33713:33722  _balances */\n      0x03\n        /* \"MoonCats_flat.sol\":33713:33726  _balances[to] */\n      0x20\n      mstore\n      0x40\n      dup2\n      keccak256\n        /* \"MoonCats_flat.sol\":33713:33731  _balances[to] += 1 */\n      dup1\n      sload\n        /* \"MoonCats_flat.sol\":33730:33731  1 */\n      0x01\n      swap3\n        /* \"MoonCats_flat.sol\":33713:33726  _balances[to] */\n      swap1\n        /* \"MoonCats_flat.sol\":33713:33731  _balances[to] += 1 */\n      tag_261\n      swap1\n        /* \"MoonCats_flat.sol\":33730:33731  1 */\n      dup5\n      swap1\n        /* \"MoonCats_flat.sol\":33713:33731  _balances[to] += 1 */\n      tag_262\n      jump\t// in\n    tag_261:\n      swap1\n      swap2\n      sstore\n      pop\n      pop\n        /* \"MoonCats_flat.sol\":33741:33757  _owners[tokenId] */\n      0x00\n      dup2\n      dup2\n      mstore\n        /* \"MoonCats_flat.sol\":33741:33748  _owners */\n      0x02\n        /* \"MoonCats_flat.sol\":33741:33757  _owners[tokenId] */\n      0x20\n      mstore\n      0x40\n      dup1\n      dup3\n      keccak256\n        /* \"MoonCats_flat.sol\":33741:33762  _owners[tokenId] = to */\n      dup1\n      sload\n      not(sub(shl(0xa0, 0x01), 0x01))\n      and\n      sub(shl(0xa0, 0x01), 0x01)\n      dup7\n      dup2\n      and\n      swap2\n      dup3\n      or\n      swap1\n      swap3\n      sstore\n        /* \"MoonCats_flat.sol\":33778:33805  Transfer(from, to, tokenId) */\n      swap2\n      mload\n        /* \"MoonCats_flat.sol\":33741:33757  _owners[tokenId] */\n      dup5\n      swap4\n        /* \"MoonCats_flat.sol\":33778:33805  Transfer(from, to, tokenId) */\n      swap2\n      dup8\n      and\n      swap2\n      0xddf252ad1be2c89b69c2b068fc378daa952ba7f163c4a11628f55a4df523b3ef\n      swap2\n      log4\n        /* \"MoonCats_flat.sol\":33252:33812  function _transfer(... */\n      pop\n      pop\n      pop\n      jump\t// out\n        /* \"MoonCats_flat.sol\":39849:39962  function _burn(uint256 tokenId) internal override(ERC721, ERC721URIStorage) {... */\n    tag_171:\n        /* \"MoonCats_flat.sol\":39935:39955  super._burn(tokenId) */\n      tag_170\n        /* \"MoonCats_flat.sol\":39947:39954  tokenId */\n      dup2\n        /* \"MoonCats_flat.sol\":39935:39946  super._burn */\n      tag_265\n        /* \"MoonCats_flat.sol\":39935:39955  super._burn(tokenId) */\n      jump\t// in\n        /* \"MoonCats_flat.sol\":6632:6819  function _transferOwnership(address newOwner) internal virtual {... */\n    tag_188:\n        /* \"MoonCats_flat.sol\":6724:6730  _owner */\n      0x07\n      dup1\n      sload\n      sub(shl(0xa0, 0x01), 0x01)\n        /* \"MoonCats_flat.sol\":6740:6757  _owner = newOwner */\n      dup4\n      dup2\n      and\n      not(sub(shl(0xa0, 0x01), 0x01))\n      dup4\n      and\n      dup2\n      or\n      swap1\n      swap4\n      sstore\n        /* \"MoonCats_flat.sol\":6772:6812  OwnershipTransferred(oldOwner, newOwner) */\n      mload(0x40)\n        /* \"MoonCats_flat.sol\":6724:6730  _owner */\n      swap2\n      and\n      swap2\n        /* \"MoonCats_flat.sol\":6740:6757  _owner = newOwner */\n      swap1\n        /* \"MoonCats_flat.sol\":6724:6730  _owner */\n      dup3\n      swap1\n        /* \"MoonCats_flat.sol\":6772:6812  OwnershipTransferred(oldOwner, newOwner) */\n      0x8be0079c531659141344cd1fd0a4f28419497f9722a3daafe3b4186f6b6457e0\n      swap1\n        /* \"MoonCats_flat.sol\":6705:6721  address oldOwner */\n      0x00\n      swap1\n        /* \"MoonCats_flat.sol\":6772:6812  OwnershipTransferred(oldOwner, newOwner) */\n      log3\n        /* \"MoonCats_flat.sol\":6695:6819  {... */\n      pop\n        /* \"MoonCats_flat.sol\":6632:6819  function _transferOwnership(address newOwner) internal virtual {... */\n      pop\n      jump\t// out\n        /* \"MoonCats_flat.sol\":34229:34536  function _setApprovalForAll(... */\n    tag_199:\n        /* \"MoonCats_flat.sol\":34379:34387  operator */\n      dup2\n      sub(shl(0xa0, 0x01), 0x01)\n        /* \"MoonCats_flat.sol\":34370:34387  owner != operator */\n      and\n        /* \"MoonCats_flat.sol\":34370:34375  owner */\n      dup4\n      sub(shl(0xa0, 0x01), 0x01)\n        /* \"MoonCats_flat.sol\":34370:34387  owner != operator */\n      and\n      eq\n      iszero\n        /* \"MoonCats_flat.sol\":34362:34417  require(owner != operator, \"ERC721: approve to caller\") */\n      tag_268\n      jumpi\n      mload(0x40)\n      shl(0xe5, 0x461bcd)\n      dup2\n      mstore\n        /* \"#utility.yul\":7761:7763   */\n      0x20\n        /* \"MoonCats_flat.sol\":34362:34417  require(owner != operator, \"ERC721: approve to caller\") */\n      0x04\n      dup3\n      add\n        /* \"#utility.yul\":7743:7764   */\n      mstore\n        /* \"#utility.yul\":7800:7802   */\n      0x19\n        /* \"#utility.yul\":7780:7798   */\n      0x24\n      dup3\n      add\n        /* \"#utility.yul\":7773:7803   */\n      mstore\n        /* \"#utility.yul\":7839:7866   */\n      0x4552433732313a20617070726f766520746f2063616c6c657200000000000000\n        /* \"#utility.yul\":7819:7837   */\n      0x44\n      dup3\n      add\n        /* \"#utility.yul\":7812:7867   */\n      mstore\n        /* \"#utility.yul\":7884:7902   */\n      0x64\n      add\n        /* \"MoonCats_flat.sol\":34362:34417  require(owner != operator, \"ERC721: approve to caller\") */\n      tag_131\n        /* \"#utility.yul\":7559:7908   */\n      jump\n        /* \"MoonCats_flat.sol\":34362:34417  require(owner != operator, \"ERC721: approve to caller\") */\n    tag_268:\n      sub(shl(0xa0, 0x01), 0x01)\n        /* \"MoonCats_flat.sol\":34427:34452  _operatorApprovals[owner] */\n      dup4\n      dup2\n      and\n      0x00\n      dup2\n      dup2\n      mstore\n        /* \"MoonCats_flat.sol\":34427:34445  _operatorApprovals */\n      0x05\n        /* \"MoonCats_flat.sol\":34427:34452  _operatorApprovals[owner] */\n      0x20\n      swap1\n      dup2\n      mstore\n      0x40\n      dup1\n      dup4\n      keccak256\n        /* \"MoonCats_flat.sol\":34427:34462  _operatorApprovals[owner][operator] */\n      swap5\n      dup8\n      and\n      dup1\n      dup5\n      mstore\n      swap5\n      dup3\n      mstore\n      swap2\n      dup3\n      swap1\n      keccak256\n        /* \"MoonCats_flat.sol\":34427:34473  _operatorApprovals[owner][operator] = approved */\n      dup1\n      sload\n      not(0xff)\n      and\n      dup7\n      iszero\n      iszero\n      swap1\n      dup2\n      or\n      swap1\n      swap2\n      sstore\n        /* \"MoonCats_flat.sol\":34488:34529  ApprovalForAll(owner, operator, approved) */\n      swap2\n      mload\n        /* \"#utility.yul\":5695:5736   */\n      swap2\n      dup3\n      mstore\n        /* \"MoonCats_flat.sol\":34488:34529  ApprovalForAll(owner, operator, approved) */\n      0x17307eab39ab6107e8899845ad3d59bd9653f200f220920489ca2b5937696c31\n      swap2\n        /* \"#utility.yul\":5668:5686   */\n      add\n        /* \"MoonCats_flat.sol\":34488:34529  ApprovalForAll(owner, operator, approved) */\n      mload(0x40)\n      dup1\n      swap2\n      sub\n      swap1\n      log3\n        /* \"MoonCats_flat.sol\":34229:34536  function _setApprovalForAll(... */\n      pop\n      pop\n      pop\n      jump\t// out\n        /* \"MoonCats_flat.sol\":29462:29769  function _safeTransfer(... */\n    tag_206:\n        /* \"MoonCats_flat.sol\":29613:29641  _transfer(from, to, tokenId) */\n      tag_273\n        /* \"MoonCats_flat.sol\":29623:29627  from */\n      dup5\n        /* \"MoonCats_flat.sol\":29629:29631  to */\n      dup5\n        /* \"MoonCats_flat.sol\":29633:29640  tokenId */\n      dup5\n        /* \"MoonCats_flat.sol\":29613:29622  _transfer */\n      tag_156\n        /* \"MoonCats_flat.sol\":29613:29641  _transfer(from, to, tokenId) */\n      jump\t// in\n    tag_273:\n        /* \"MoonCats_flat.sol\":29659:29707  _checkOnERC721Received(from, to, tokenId, _data) */\n      tag_274\n        /* \"MoonCats_flat.sol\":29682:29686  from */\n      dup5\n        /* \"MoonCats_flat.sol\":29688:29690  to */\n      dup5\n        /* \"MoonCats_flat.sol\":29692:29699  tokenId */\n      dup5\n        /* \"MoonCats_flat.sol\":29701:29706  _data */\n      dup5\n        /* \"MoonCats_flat.sol\":29659:29681  _checkOnERC721Received */\n      tag_275\n        /* \"MoonCats_flat.sol\":29659:29707  _checkOnERC721Received(from, to, tokenId, _data) */\n      jump\t// in\n    tag_274:\n        /* \"MoonCats_flat.sol\":29651:29762  require(_checkOnERC721Received(from, to, tokenId, _data), \"ERC721: transfer to non ERC721Receiver implementer\") */\n      tag_205\n      jumpi\n      mload(0x40)\n      shl(0xe5, 0x461bcd)\n      dup2\n      mstore\n      0x04\n      add\n      tag_131\n      swap1\n      tag_278\n      jump\t// in\n        /* \"MoonCats_flat.sol\":37800:38463  function tokenURI(uint256 tokenId) public view virtual override returns (string memory) {... */\n    tag_209:\n        /* \"MoonCats_flat.sol\":37873:37886  string memory */\n      0x60\n        /* \"MoonCats_flat.sol\":37906:37922  _exists(tokenId) */\n      tag_280\n        /* \"MoonCats_flat.sol\":37914:37921  tokenId */\n      dup3\n        /* \"MoonCats_flat.sol\":37906:37913  _exists */\n      tag_129\n        /* \"MoonCats_flat.sol\":37906:37922  _exists(tokenId) */\n      jump\t// in\n    tag_280:\n        /* \"MoonCats_flat.sol\":37898:37976  require(_exists(tokenId), \"ERC721URIStorage: URI query for nonexistent token\") */\n      tag_281\n      jumpi\n      mload(0x40)\n      shl(0xe5, 0x461bcd)\n      dup2\n      mstore\n        /* \"#utility.yul\":10550:10552   */\n      0x20\n        /* \"MoonCats_flat.sol\":37898:37976  require(_exists(tokenId), \"ERC721URIStorage: URI query for nonexistent token\") */\n      0x04\n      dup3\n      add\n        /* \"#utility.yul\":10532:10553   */\n      mstore\n        /* \"#utility.yul\":10589:10591   */\n      0x31\n        /* \"#utility.yul\":10569:10587   */\n      0x24\n      dup3\n      add\n        /* \"#utility.yul\":10562:10592   */\n      mstore\n        /* \"#utility.yul\":10628:10662   */\n      0x45524337323155524953746f726167653a2055524920717565727920666f7220\n        /* \"#utility.yul\":10608:10626   */\n      0x44\n      dup3\n      add\n        /* \"#utility.yul\":10601:10663   */\n      mstore\n      shl(0x79, 0x3737b732bc34b9ba32b73a103a37b5b2b7)\n        /* \"#utility.yul\":10679:10697   */\n      0x64\n      dup3\n      add\n        /* \"#utility.yul\":10672:10719   */\n      mstore\n        /* \"#utility.yul\":10736:10755   */\n      0x84\n      add\n        /* \"MoonCats_flat.sol\":37898:37976  require(_exists(tokenId), \"ERC721URIStorage: URI query for nonexistent token\") */\n      tag_131\n        /* \"#utility.yul\":10348:10761   */\n      jump\n        /* \"MoonCats_flat.sol\":37898:37976  require(_exists(tokenId), \"ERC721URIStorage: URI query for nonexistent token\") */\n    tag_281:\n        /* \"MoonCats_flat.sol\":37987:38010  string memory _tokenURI */\n      0x00\n        /* \"MoonCats_flat.sol\":38013:38032  _tokenURIs[tokenId] */\n      dup3\n      dup2\n      mstore\n        /* \"MoonCats_flat.sol\":38013:38023  _tokenURIs */\n      0x06\n        /* \"MoonCats_flat.sol\":38013:38032  _tokenURIs[tokenId] */\n      0x20\n      mstore\n      0x40\n      dup2\n      keccak256\n        /* \"MoonCats_flat.sol\":37987:38032  string memory _tokenURI = _tokenURIs[tokenId] */\n      dup1\n      sload\n      tag_284\n      swap1\n      tag_122\n      jump\t// in\n    tag_284:\n      dup1\n      0x1f\n      add\n      0x20\n      dup1\n      swap2\n      div\n      mul\n      0x20\n      add\n      mload(0x40)\n      swap1\n      dup2\n      add\n      0x40\n      mstore\n      dup1\n      swap3\n      swap2\n      swap1\n      dup2\n      dup2\n      mstore\n      0x20\n      add\n      dup3\n      dup1\n      sload\n      tag_285\n      swap1\n      tag_122\n      jump\t// in\n    tag_285:\n      dup1\n      iszero\n      tag_286\n      jumpi\n      dup1\n      0x1f\n      lt\n      tag_287\n      jumpi\n      0x0100\n      dup1\n      dup4\n      sload\n      div\n      mul\n      dup4\n      mstore\n      swap2\n      0x20\n      add\n      swap2\n      jump(tag_286)\n    tag_287:\n      dup3\n      add\n      swap2\n      swap1\n      0x00\n      mstore\n      keccak256(0x00, 0x20)\n      swap1\n    tag_288:\n      dup2\n      sload\n      dup2\n      mstore\n      swap1\n      0x01\n      add\n      swap1\n      0x20\n      add\n      dup1\n      dup4\n      gt\n      tag_288\n      jumpi\n      dup3\n      swap1\n      sub\n      0x1f\n      and\n      dup3\n      add\n      swap2\n    tag_286:\n      pop\n      pop\n      pop\n      pop\n      pop\n      swap1\n      pop\n        /* \"MoonCats_flat.sol\":38042:38060  string memory base */\n      0x00\n        /* \"MoonCats_flat.sol\":38063:38073  _baseURI() */\n      tag_289\n        /* \"MoonCats_flat.sol\":26377:26386  return \"\" */\n      0x40\n      dup1\n      mload\n      0x20\n      dup2\n      add\n      swap1\n      swap2\n      mstore\n      0x00\n      dup2\n      mstore\n      swap1\n        /* \"MoonCats_flat.sol\":26301:26393  function _baseURI() internal view virtual returns (string memory) {... */\n      jump\n        /* \"MoonCats_flat.sol\":38063:38073  _baseURI() */\n    tag_289:\n        /* \"MoonCats_flat.sol\":38042:38073  string memory base = _baseURI() */\n      swap1\n      pop\n        /* \"MoonCats_flat.sol\":38152:38156  base */\n      dup1\n        /* \"MoonCats_flat.sol\":38146:38164  bytes(base).length */\n      mload\n        /* \"MoonCats_flat.sol\":38168:38169  0 */\n      0x00\n        /* \"MoonCats_flat.sol\":38146:38169  bytes(base).length == 0 */\n      eq\n        /* \"MoonCats_flat.sol\":38142:38212  if (bytes(base).length == 0) {... */\n      iszero\n      tag_291\n      jumpi\n      pop\n        /* \"MoonCats_flat.sol\":38192:38201  _tokenURI */\n      swap3\n        /* \"MoonCats_flat.sol\":37800:38463  function tokenURI(uint256 tokenId) public view virtual override returns (string memory) {... */\n      swap2\n      pop\n      pop\n      jump\t// out\n        /* \"MoonCats_flat.sol\":38142:38212  if (bytes(base).length == 0) {... */\n    tag_291:\n        /* \"MoonCats_flat.sol\":38314:38337  bytes(_tokenURI).length */\n      dup2\n      mload\n        /* \"MoonCats_flat.sol\":38314:38341  bytes(_tokenURI).length > 0 */\n      iszero\n        /* \"MoonCats_flat.sol\":38310:38416  if (bytes(_tokenURI).length > 0) {... */\n      tag_292\n      jumpi\n        /* \"MoonCats_flat.sol\":38388:38392  base */\n      dup1\n        /* \"MoonCats_flat.sol\":38394:38403  _tokenURI */\n      dup3\n        /* \"MoonCats_flat.sol\":38371:38404  abi.encodePacked(base, _tokenURI) */\n      add(0x20, mload(0x40))\n      tag_293\n      swap3\n      swap2\n      swap1\n      tag_294\n      jump\t// in\n    tag_293:\n      mload(0x40)\n      0x20\n      dup2\n      dup4\n      sub\n      sub\n      dup2\n      mstore\n      swap1\n      0x40\n      mstore\n        /* \"MoonCats_flat.sol\":38357:38405  return string(abi.encodePacked(base, _tokenURI)) */\n      swap3\n      pop\n      pop\n      pop\n        /* \"MoonCats_flat.sol\":37800:38463  function tokenURI(uint256 tokenId) public view virtual override returns (string memory) {... */\n      swap2\n      swap1\n      pop\n      jump\t// out\n        /* \"MoonCats_flat.sol\":38310:38416  if (bytes(_tokenURI).length > 0) {... */\n    tag_292:\n        /* \"MoonCats_flat.sol\":38433:38456  super.tokenURI(tokenId) */\n      tag_247\n        /* \"MoonCats_flat.sol\":38448:38455  tokenId */\n      dup5\n        /* \"MoonCats_flat.sol\":38433:38447  super.tokenURI */\n      tag_296\n        /* \"MoonCats_flat.sol\":38433:38456  super.tokenURI(tokenId) */\n      jump\t// in\n        /* \"MoonCats_flat.sol\":31029:31137  function _safeMint(address to, uint256 tokenId) internal virtual {... */\n    tag_219:\n        /* \"MoonCats_flat.sol\":31104:31130  _safeMint(to, tokenId, \"\") */\n      tag_197\n        /* \"MoonCats_flat.sol\":31114:31116  to */\n      dup3\n        /* \"MoonCats_flat.sol\":31118:31125  tokenId */\n      dup3\n        /* \"MoonCats_flat.sol\":31104:31130  _safeMint(to, tokenId, \"\") */\n      mload(0x40)\n      dup1\n      0x20\n      add\n      0x40\n      mstore\n      dup1\n      0x00\n      dup2\n      mstore\n      pop\n        /* \"MoonCats_flat.sol\":31104:31113  _safeMint */\n      tag_301\n        /* \"MoonCats_flat.sol\":31104:31130  _safeMint(to, tokenId, \"\") */\n      jump\t// in\n        /* \"MoonCats_flat.sol\":38610:38824  function _setTokenURI(uint256 tokenId, string memory _tokenURI) internal virtual {... */\n    tag_221:\n        /* \"MoonCats_flat.sol\":38709:38725  _exists(tokenId) */\n      tag_303\n        /* \"MoonCats_flat.sol\":38717:38724  tokenId */\n      dup3\n        /* \"MoonCats_flat.sol\":38709:38716  _exists */\n      tag_129\n        /* \"MoonCats_flat.sol\":38709:38725  _exists(tokenId) */\n      jump\t// in\n    tag_303:\n        /* \"MoonCats_flat.sol\":38701:38776  require(_exists(tokenId), \"ERC721URIStorage: URI set of nonexistent token\") */\n      tag_304\n      jumpi\n      mload(0x40)\n      shl(0xe5, 0x461bcd)\n      dup2\n      mstore\n        /* \"#utility.yul\":9774:9776   */\n      0x20\n        /* \"MoonCats_flat.sol\":38701:38776  require(_exists(tokenId), \"ERC721URIStorage: URI set of nonexistent token\") */\n      0x04\n      dup3\n      add\n        /* \"#utility.yul\":9756:9777   */\n      mstore\n        /* \"#utility.yul\":9813:9815   */\n      0x2e\n        /* \"#utility.yul\":9793:9811   */\n      0x24\n      dup3\n      add\n        /* \"#utility.yul\":9786:9816   */\n      mstore\n        /* \"#utility.yul\":9852:9886   */\n      0x45524337323155524953746f726167653a2055524920736574206f66206e6f6e\n        /* \"#utility.yul\":9832:9850   */\n      0x44\n      dup3\n      add\n        /* \"#utility.yul\":9825:9887   */\n      mstore\n      shl(0x91, 0x32bc34b9ba32b73a103a37b5b2b7)\n        /* \"#utility.yul\":9903:9921   */\n      0x64\n      dup3\n      add\n        /* \"#utility.yul\":9896:9940   */\n      mstore\n        /* \"#utility.yul\":9957:9976   */\n      0x84\n      add\n        /* \"MoonCats_flat.sol\":38701:38776  require(_exists(tokenId), \"ERC721URIStorage: URI set of nonexistent token\") */\n      tag_131\n        /* \"#utility.yul\":9572:9982   */\n      jump\n        /* \"MoonCats_flat.sol\":38701:38776  require(_exists(tokenId), \"ERC721URIStorage: URI set of nonexistent token\") */\n    tag_304:\n        /* \"MoonCats_flat.sol\":38786:38805  _tokenURIs[tokenId] */\n      0x00\n      dup3\n      dup2\n      mstore\n        /* \"MoonCats_flat.sol\":38786:38796  _tokenURIs */\n      0x06\n        /* \"MoonCats_flat.sol\":38786:38805  _tokenURIs[tokenId] */\n      0x20\n      swap1\n      dup2\n      mstore\n      0x40\n      swap1\n      swap2\n      keccak256\n        /* \"MoonCats_flat.sol\":38786:38817  _tokenURIs[tokenId] = _tokenURI */\n      dup3\n      mload\n      tag_146\n      swap3\n      dup5\n      add\n      swap1\n      tag_308\n      jump\t// in\n        /* \"MoonCats_flat.sol\":39041:39241  function _burn(uint256 tokenId) internal virtual override {... */\n    tag_265:\n        /* \"MoonCats_flat.sol\":39109:39129  super._burn(tokenId) */\n      tag_311\n        /* \"MoonCats_flat.sol\":39121:39128  tokenId */\n      dup2\n        /* \"MoonCats_flat.sol\":39109:39120  super._burn */\n      tag_312\n        /* \"MoonCats_flat.sol\":39109:39129  super._burn(tokenId) */\n      jump\t// in\n    tag_311:\n        /* \"MoonCats_flat.sol\":39150:39169  _tokenURIs[tokenId] */\n      0x00\n      dup2\n      dup2\n      mstore\n        /* \"MoonCats_flat.sol\":39150:39160  _tokenURIs */\n      0x06\n        /* \"MoonCats_flat.sol\":39150:39169  _tokenURIs[tokenId] */\n      0x20\n      mstore\n      0x40\n      swap1\n      keccak256\n        /* \"MoonCats_flat.sol\":39144:39177  bytes(_tokenURIs[tokenId]).length */\n      dup1\n      sload\n      tag_313\n      swap1\n      tag_122\n      jump\t// in\n    tag_313:\n        /* \"MoonCats_flat.sol\":39144:39182  bytes(_tokenURIs[tokenId]).length != 0 */\n      iszero\n      swap1\n      pop\n        /* \"MoonCats_flat.sol\":39140:39235  if (bytes(_tokenURIs[tokenId]).length != 0) {... */\n      tag_170\n      jumpi\n        /* \"MoonCats_flat.sol\":39205:39224  _tokenURIs[tokenId] */\n      0x00\n      dup2\n      dup2\n      mstore\n        /* \"MoonCats_flat.sol\":39205:39215  _tokenURIs */\n      0x06\n        /* \"MoonCats_flat.sol\":39205:39224  _tokenURIs[tokenId] */\n      0x20\n      mstore\n      0x40\n      dup2\n      keccak256\n        /* \"MoonCats_flat.sol\":39198:39224  delete _tokenURIs[tokenId] */\n      tag_170\n      swap2\n      tag_316\n      jump\t// in\n        /* \"MoonCats_flat.sol\":35089:35867  function _checkOnERC721Received(... */\n    tag_275:\n        /* \"MoonCats_flat.sol\":35239:35243  bool */\n      0x00\n      sub(shl(0xa0, 0x01), 0x01)\n        /* \"MoonCats_flat.sol\":35259:35272  to.isContract */\n      dup5\n      and\n        /* \"MoonCats_flat.sol\":7931:7951  extcodesize(account) */\n      extcodesize\n        /* \"MoonCats_flat.sol\":7977:7985  size > 0 */\n      iszero\n        /* \"MoonCats_flat.sol\":35255:35861  if (to.isContract()) {... */\n      tag_320\n      jumpi\n        /* \"MoonCats_flat.sol\":35294:35366  IERC721Receiver(to).onERC721Received(_msgSender(), from, tokenId, _data) */\n      mload(0x40)\n      shl(0xe1, 0x0a85bd01)\n      dup2\n      mstore\n      sub(shl(0xa0, 0x01), 0x01)\n        /* \"MoonCats_flat.sol\":35294:35330  IERC721Receiver(to).onERC721Received */\n      dup6\n      and\n      swap1\n      0x150b7a02\n      swap1\n        /* \"MoonCats_flat.sol\":35294:35366  IERC721Receiver(to).onERC721Received(_msgSender(), from, tokenId, _data) */\n      tag_322\n      swap1\n        /* \"MoonCats_flat.sol\":4245:4255  msg.sender */\n      caller\n      swap1\n        /* \"MoonCats_flat.sol\":35345:35349  from */\n      dup10\n      swap1\n        /* \"MoonCats_flat.sol\":35351:35358  tokenId */\n      dup9\n      swap1\n        /* \"MoonCats_flat.sol\":35360:35365  _data */\n      dup9\n      swap1\n        /* \"MoonCats_flat.sol\":35294:35366  IERC721Receiver(to).onERC721Received(_msgSender(), from, tokenId, _data) */\n      0x04\n      add\n      tag_323\n      jump\t// in\n    tag_322:\n      0x20\n      mload(0x40)\n      dup1\n      dup4\n      sub\n      dup2\n      0x00\n      dup8\n      dup1\n      extcodesize\n      iszero\n      dup1\n      iszero\n      tag_324\n      jumpi\n      0x00\n      dup1\n      revert\n    tag_324:\n      pop\n      gas\n      call\n      swap3\n      pop\n      pop\n      pop\n      dup1\n      iszero\n      tag_325\n      jumpi\n      pop\n      0x40\n      dup1\n      mload\n      0x1f\n      returndatasize\n      swap1\n      dup2\n      add\n      not(0x1f)\n      and\n      dup3\n      add\n      swap1\n      swap3\n      mstore\n      tag_326\n      swap2\n      dup2\n      add\n      swap1\n      tag_327\n      jump\t// in\n    tag_326:\n      0x01\n    tag_325:\n        /* \"MoonCats_flat.sol\":35290:35809  try IERC721Receiver(to).onERC721Received(_msgSender(), from, tokenId, _data) returns (bytes4 retval) {... */\n      tag_328\n      jumpi\n      returndatasize\n      dup1\n      dup1\n      iszero\n      tag_333\n      jumpi\n      mload(0x40)\n      swap2\n      pop\n      and(add(returndatasize, 0x3f), not(0x1f))\n      dup3\n      add\n      0x40\n      mstore\n      returndatasize\n      dup3\n      mstore\n      returndatasize\n      0x00\n      0x20\n      dup5\n      add\n      returndatacopy\n      jump(tag_332)\n    tag_333:\n      0x60\n      swap2\n      pop\n    tag_332:\n      pop\n        /* \"MoonCats_flat.sol\":35533:35546  reason.length */\n      dup1\n      mload\n        /* \"MoonCats_flat.sol\":35529:35795  if (reason.length == 0) {... */\n      tag_334\n      jumpi\n        /* \"MoonCats_flat.sol\":35575:35635  revert(\"ERC721: transfer to non ERC721Receiver implementer\") */\n      mload(0x40)\n      shl(0xe5, 0x461bcd)\n      dup2\n      mstore\n      0x04\n      add\n      tag_131\n      swap1\n      tag_278\n      jump\t// in\n        /* \"MoonCats_flat.sol\":35529:35795  if (reason.length == 0) {... */\n    tag_334:\n        /* \"MoonCats_flat.sol\":35747:35753  reason */\n      dup1\n        /* \"MoonCats_flat.sol\":35741:35754  mload(reason) */\n      mload\n        /* \"MoonCats_flat.sol\":35732:35738  reason */\n      dup2\n        /* \"MoonCats_flat.sol\":35728:35730  32 */\n      0x20\n        /* \"MoonCats_flat.sol\":35724:35739  add(32, reason) */\n      add\n        /* \"MoonCats_flat.sol\":35717:35755  revert(add(32, reason), mload(reason)) */\n      revert\n        /* \"MoonCats_flat.sol\":35290:35809  try IERC721Receiver(to).onERC721Received(_msgSender(), from, tokenId, _data) returns (bytes4 retval) {... */\n    tag_328:\n      not(sub(shl(0xe0, 0x01), 0x01))\n        /* \"MoonCats_flat.sol\":35416:35467  retval == IERC721Receiver.onERC721Received.selector */\n      and\n      shl(0xe1, 0x0a85bd01)\n      eq\n      swap1\n      pop\n        /* \"MoonCats_flat.sol\":35409:35467  return retval == IERC721Receiver.onERC721Received.selector */\n      jump(tag_247)\n        /* \"MoonCats_flat.sol\":35255:35861  if (to.isContract()) {... */\n    tag_320:\n      pop\n        /* \"MoonCats_flat.sol\":35846:35850  true */\n      0x01\n        /* \"MoonCats_flat.sol\":35089:35867  function _checkOnERC721Received(... */\n      swap5\n      swap4\n      pop\n      pop\n      pop\n      pop\n      jump\t// out\n        /* \"MoonCats_flat.sol\":25731:26060  function tokenURI(uint256 tokenId) public view virtual override returns (string memory) {... */\n    tag_296:\n        /* \"MoonCats_flat.sol\":25804:25817  string memory */\n      0x60\n        /* \"MoonCats_flat.sol\":25837:25853  _exists(tokenId) */\n      tag_341\n        /* \"MoonCats_flat.sol\":25845:25852  tokenId */\n      dup3\n        /* \"MoonCats_flat.sol\":25837:25844  _exists */\n      tag_129\n        /* \"MoonCats_flat.sol\":25837:25853  _exists(tokenId) */\n      jump\t// in\n    tag_341:\n        /* \"MoonCats_flat.sol\":25829:25905  require(_exists(tokenId), \"ERC721Metadata: URI query for nonexistent token\") */\n      tag_342\n      jumpi\n      mload(0x40)\n      shl(0xe5, 0x461bcd)\n      dup2\n      mstore\n        /* \"#utility.yul\":12152:12154   */\n      0x20\n        /* \"MoonCats_flat.sol\":25829:25905  require(_exists(tokenId), \"ERC721Metadata: URI query for nonexistent token\") */\n      0x04\n      dup3\n      add\n        /* \"#utility.yul\":12134:12155   */\n      mstore\n        /* \"#utility.yul\":12191:12193   */\n      0x2f\n        /* \"#utility.yul\":12171:12189   */\n      0x24\n      dup3\n      add\n        /* \"#utility.yul\":12164:12194   */\n      mstore\n        /* \"#utility.yul\":12230:12264   */\n      0x4552433732314d657461646174613a2055524920717565727920666f72206e6f\n        /* \"#utility.yul\":12210:12228   */\n      0x44\n      dup3\n      add\n        /* \"#utility.yul\":12203:12265   */\n      mstore\n      shl(0x89, 0x3732bc34b9ba32b73a103a37b5b2b7)\n        /* \"#utility.yul\":12281:12299   */\n      0x64\n      dup3\n      add\n        /* \"#utility.yul\":12274:12319   */\n      mstore\n        /* \"#utility.yul\":12336:12355   */\n      0x84\n      add\n        /* \"MoonCats_flat.sol\":25829:25905  require(_exists(tokenId), \"ERC721Metadata: URI query for nonexistent token\") */\n      tag_131\n        /* \"#utility.yul\":11950:12361   */\n      jump\n        /* \"MoonCats_flat.sol\":25829:25905  require(_exists(tokenId), \"ERC721Metadata: URI query for nonexistent token\") */\n    tag_342:\n        /* \"MoonCats_flat.sol\":25916:25937  string memory baseURI */\n      0x00\n        /* \"MoonCats_flat.sol\":25940:25950  _baseURI() */\n      tag_345\n        /* \"MoonCats_flat.sol\":26377:26386  return \"\" */\n      0x40\n      dup1\n      mload\n      0x20\n      dup2\n      add\n      swap1\n      swap2\n      mstore\n      0x00\n      dup2\n      mstore\n      swap1\n        /* \"MoonCats_flat.sol\":26301:26393  function _baseURI() internal view virtual returns (string memory) {... */\n      jump\n        /* \"MoonCats_flat.sol\":25940:25950  _baseURI() */\n    tag_345:\n        /* \"MoonCats_flat.sol\":25916:25950  string memory baseURI = _baseURI() */\n      swap1\n      pop\n        /* \"MoonCats_flat.sol\":25991:25992  0 */\n      0x00\n        /* \"MoonCats_flat.sol\":25973:25980  baseURI */\n      dup2\n        /* \"MoonCats_flat.sol\":25967:25988  bytes(baseURI).length */\n      mload\n        /* \"MoonCats_flat.sol\":25967:25992  bytes(baseURI).length > 0 */\n      gt\n        /* \"MoonCats_flat.sol\":25967:26053  bytes(baseURI).length > 0 ? string(abi.encodePacked(baseURI, tokenId.toString())) : \"\" */\n      tag_346\n      jumpi\n      mload(0x40)\n      dup1\n      0x20\n      add\n      0x40\n      mstore\n      dup1\n      0x00\n      dup2\n      mstore\n      pop\n      jump(tag_347)\n    tag_346:\n        /* \"MoonCats_flat.sol\":26019:26026  baseURI */\n      dup1\n        /* \"MoonCats_flat.sol\":26028:26046  tokenId.toString() */\n      tag_348\n        /* \"MoonCats_flat.sol\":26028:26035  tokenId */\n      dup5\n        /* \"MoonCats_flat.sol\":26028:26044  tokenId.toString */\n      tag_349\n        /* \"MoonCats_flat.sol\":26028:26046  tokenId.toString() */\n      jump\t// in\n    tag_348:\n        /* \"MoonCats_flat.sol\":26002:26047  abi.encodePacked(baseURI, tokenId.toString()) */\n      add(0x20, mload(0x40))\n      tag_350\n      swap3\n      swap2\n      swap1\n      tag_294\n      jump\t// in\n    tag_350:\n      mload(0x40)\n      0x20\n      dup2\n      dup4\n      sub\n      sub\n      dup2\n      mstore\n      swap1\n      0x40\n      mstore\n        /* \"MoonCats_flat.sol\":25967:26053  bytes(baseURI).length > 0 ? string(abi.encodePacked(baseURI, tokenId.toString())) : \"\" */\n    tag_347:\n        /* \"MoonCats_flat.sol\":25960:26053  return bytes(baseURI).length > 0 ? string(abi.encodePacked(baseURI, tokenId.toString())) : \"\" */\n      swap4\n        /* \"MoonCats_flat.sol\":25731:26060  function tokenURI(uint256 tokenId) public view virtual override returns (string memory) {... */\n      swap3\n      pop\n      pop\n      pop\n      jump\t// out\n        /* \"MoonCats_flat.sol\":31358:31669  function _safeMint(... */\n    tag_301:\n        /* \"MoonCats_flat.sol\":31483:31501  _mint(to, tokenId) */\n      tag_352\n        /* \"MoonCats_flat.sol\":31489:31491  to */\n      dup4\n        /* \"MoonCats_flat.sol\":31493:31500  tokenId */\n      dup4\n        /* \"MoonCats_flat.sol\":31483:31488  _mint */\n      tag_353\n        /* \"MoonCats_flat.sol\":31483:31501  _mint(to, tokenId) */\n      jump\t// in\n    tag_352:\n        /* \"MoonCats_flat.sol\":31532:31586  _checkOnERC721Received(address(0), to, tokenId, _data) */\n      tag_354\n        /* \"MoonCats_flat.sol\":31563:31564  0 */\n      0x00\n        /* \"MoonCats_flat.sol\":31567:31569  to */\n      dup5\n        /* \"MoonCats_flat.sol\":31571:31578  tokenId */\n      dup5\n        /* \"MoonCats_flat.sol\":31580:31585  _data */\n      dup5\n        /* \"MoonCats_flat.sol\":31532:31554  _checkOnERC721Received */\n      tag_275\n        /* \"MoonCats_flat.sol\":31532:31586  _checkOnERC721Received(address(0), to, tokenId, _data) */\n      jump\t// in\n    tag_354:\n        /* \"MoonCats_flat.sol\":31511:31662  require(... */\n      tag_146\n      jumpi\n      mload(0x40)\n      shl(0xe5, 0x461bcd)\n      dup2\n      mstore\n      0x04\n      add\n      tag_131\n      swap1\n      tag_278\n      jump\t// in\n        /* \"MoonCats_flat.sol\":32580:32928  function _burn(uint256 tokenId) internal virtual {... */\n    tag_312:\n        /* \"MoonCats_flat.sol\":32639:32652  address owner */\n      0x00\n        /* \"MoonCats_flat.sol\":32655:32678  ERC721.ownerOf(tokenId) */\n      tag_358\n        /* \"MoonCats_flat.sol\":32670:32677  tokenId */\n      dup3\n        /* \"MoonCats_flat.sol\":32655:32669  ERC721.ownerOf */\n      tag_66\n        /* \"MoonCats_flat.sol\":32655:32678  ERC721.ownerOf(tokenId) */\n      jump\t// in\n    tag_358:\n        /* \"MoonCats_flat.sol\":32639:32678  address owner = ERC721.ownerOf(tokenId) */\n      swap1\n      pop\n        /* \"MoonCats_flat.sol\":32775:32804  _approve(address(0), tokenId) */\n      tag_360\n        /* \"MoonCats_flat.sol\":32792:32793  0 */\n      0x00\n        /* \"MoonCats_flat.sol\":32796:32803  tokenId */\n      dup4\n        /* \"MoonCats_flat.sol\":32775:32783  _approve */\n      tag_147\n        /* \"MoonCats_flat.sol\":32775:32804  _approve(address(0), tokenId) */\n      jump\t// in\n    tag_360:\n      sub(shl(0xa0, 0x01), 0x01)\n        /* \"MoonCats_flat.sol\":32815:32831  _balances[owner] */\n      dup2\n      and\n      0x00\n      swap1\n      dup2\n      mstore\n        /* \"MoonCats_flat.sol\":32815:32824  _balances */\n      0x03\n        /* \"MoonCats_flat.sol\":32815:32831  _balances[owner] */\n      0x20\n      mstore\n      0x40\n      dup2\n      keccak256\n        /* \"MoonCats_flat.sol\":32815:32836  _balances[owner] -= 1 */\n      dup1\n      sload\n        /* \"MoonCats_flat.sol\":32835:32836  1 */\n      0x01\n      swap3\n        /* \"MoonCats_flat.sol\":32815:32831  _balances[owner] */\n      swap1\n        /* \"MoonCats_flat.sol\":32815:32836  _balances[owner] -= 1 */\n      tag_361\n      swap1\n        /* \"MoonCats_flat.sol\":32835:32836  1 */\n      dup5\n      swap1\n        /* \"MoonCats_flat.sol\":32815:32836  _balances[owner] -= 1 */\n      tag_260\n      jump\t// in\n    tag_361:\n      swap1\n      swap2\n      sstore\n      pop\n      pop\n        /* \"MoonCats_flat.sol\":32853:32869  _owners[tokenId] */\n      0x00\n      dup3\n      dup2\n      mstore\n        /* \"MoonCats_flat.sol\":32853:32860  _owners */\n      0x02\n        /* \"MoonCats_flat.sol\":32853:32869  _owners[tokenId] */\n      0x20\n      mstore\n      0x40\n      dup1\n      dup3\n      keccak256\n        /* \"MoonCats_flat.sol\":32846:32869  delete _owners[tokenId] */\n      dup1\n      sload\n      not(sub(shl(0xa0, 0x01), 0x01))\n      and\n      swap1\n      sstore\n        /* \"MoonCats_flat.sol\":32885:32921  Transfer(owner, address(0), tokenId) */\n      mload\n        /* \"MoonCats_flat.sol\":32861:32868  tokenId */\n      dup4\n      swap2\n        /* \"MoonCats_flat.sol\":32853:32869  _owners[tokenId] */\n      swap1\n      sub(shl(0xa0, 0x01), 0x01)\n        /* \"MoonCats_flat.sol\":32885:32921  Transfer(owner, address(0), tokenId) */\n      dup5\n      and\n      swap1\n      0xddf252ad1be2c89b69c2b068fc378daa952ba7f163c4a11628f55a4df523b3ef\n      swap1\n        /* \"MoonCats_flat.sol\":32853:32869  _owners[tokenId] */\n      dup4\n      swap1\n        /* \"MoonCats_flat.sol\":32885:32921  Transfer(owner, address(0), tokenId) */\n      log4\n        /* \"MoonCats_flat.sol\":32629:32928  {... */\n      pop\n        /* \"MoonCats_flat.sol\":32580:32928  function _burn(uint256 tokenId) internal virtual {... */\n      pop\n      jump\t// out\n        /* \"MoonCats_flat.sol\":1800:2503  function toString(uint256 value) internal pure returns (string memory) {... */\n    tag_349:\n        /* \"MoonCats_flat.sol\":1856:1869  string memory */\n      0x60\n        /* \"MoonCats_flat.sol\":2073:2083  value == 0 */\n      dup2\n        /* \"MoonCats_flat.sol\":2069:2120  if (value == 0) {... */\n      tag_364\n      jumpi\n      pop\n      pop\n        /* \"MoonCats_flat.sol\":2099:2109  return \"0\" */\n      0x40\n      dup1\n      mload\n      dup1\n      dup3\n      add\n      swap1\n      swap2\n      mstore\n      0x01\n      dup2\n      mstore\n      shl(0xfc, 0x03)\n      0x20\n      dup3\n      add\n      mstore\n      swap1\n        /* \"MoonCats_flat.sol\":1800:2503  function toString(uint256 value) internal pure returns (string memory) {... */\n      jump\t// out\n        /* \"MoonCats_flat.sol\":2069:2120  if (value == 0) {... */\n    tag_364:\n        /* \"MoonCats_flat.sol\":2144:2149  value */\n      dup2\n        /* \"MoonCats_flat.sol\":2129:2141  uint256 temp */\n      0x00\n        /* \"MoonCats_flat.sol\":2183:2258  while (temp != 0) {... */\n    tag_365:\n        /* \"MoonCats_flat.sol\":2190:2199  temp != 0 */\n      dup2\n      iszero\n        /* \"MoonCats_flat.sol\":2183:2258  while (temp != 0) {... */\n      tag_366\n      jumpi\n        /* \"MoonCats_flat.sol\":2215:2223  digits++ */\n      dup1\n      tag_367\n      dup2\n      tag_368\n      jump\t// in\n    tag_367:\n      swap2\n      pop\n        /* \"MoonCats_flat.sol\":2237:2247  temp /= 10 */\n      tag_369\n      swap1\n      pop\n        /* \"MoonCats_flat.sol\":2245:2247  10 */\n      0x0a\n        /* \"MoonCats_flat.sol\":2237:2247  temp /= 10 */\n      dup4\n      tag_370\n      jump\t// in\n    tag_369:\n      swap2\n      pop\n        /* \"MoonCats_flat.sol\":2183:2258  while (temp != 0) {... */\n      jump(tag_365)\n    tag_366:\n        /* \"MoonCats_flat.sol\":2267:2286  bytes memory buffer */\n      0x00\n        /* \"MoonCats_flat.sol\":2299:2305  digits */\n      dup2\n        /* \"MoonCats_flat.sol\":2289:2306  new bytes(digits) */\n      0xffffffffffffffff\n      dup2\n      gt\n      iszero\n      tag_372\n      jumpi\n      tag_372\n      tag_373\n      jump\t// in\n    tag_372:\n      mload(0x40)\n      swap1\n      dup1\n      dup3\n      mstore\n      dup1\n      0x1f\n      add\n      not(0x1f)\n      and\n      0x20\n      add\n      dup3\n      add\n      0x40\n      mstore\n      dup1\n      iszero\n      tag_374\n      jumpi\n      0x20\n      dup3\n      add\n      dup2\n      dup1\n      calldatasize\n      dup4\n      calldatacopy\n      add\n      swap1\n      pop\n    tag_374:\n      pop\n        /* \"MoonCats_flat.sol\":2267:2306  bytes memory buffer = new bytes(digits) */\n      swap1\n      pop\n        /* \"MoonCats_flat.sol\":2316:2466  while (value != 0) {... */\n    tag_375:\n        /* \"MoonCats_flat.sol\":2323:2333  value != 0 */\n      dup5\n      iszero\n        /* \"MoonCats_flat.sol\":2316:2466  while (value != 0) {... */\n      tag_247\n      jumpi\n        /* \"MoonCats_flat.sol\":2349:2360  digits -= 1 */\n      tag_377\n        /* \"MoonCats_flat.sol\":2359:2360  1 */\n      0x01\n        /* \"MoonCats_flat.sol\":2349:2360  digits -= 1 */\n      dup4\n      tag_260\n      jump\t// in\n    tag_377:\n      swap2\n      pop\n        /* \"MoonCats_flat.sol\":2417:2427  value % 10 */\n      tag_378\n        /* \"MoonCats_flat.sol\":2425:2427  10 */\n      0x0a\n        /* \"MoonCats_flat.sol\":2417:2422  value */\n      dup7\n        /* \"MoonCats_flat.sol\":2417:2427  value % 10 */\n      tag_379\n      jump\t// in\n    tag_378:\n        /* \"MoonCats_flat.sol\":2404:2428  48 + uint256(value % 10) */\n      tag_380\n      swap1\n        /* \"MoonCats_flat.sol\":2404:2406  48 */\n      0x30\n        /* \"MoonCats_flat.sol\":2404:2428  48 + uint256(value % 10) */\n      tag_262\n      jump\t// in\n    tag_380:\n        /* \"MoonCats_flat.sol\":2391:2430  bytes1(uint8(48 + uint256(value % 10))) */\n      0xf8\n      shl\n        /* \"MoonCats_flat.sol\":2374:2380  buffer */\n      dup2\n        /* \"MoonCats_flat.sol\":2381:2387  digits */\n      dup4\n        /* \"MoonCats_flat.sol\":2374:2388  buffer[digits] */\n      dup2\n      mload\n      dup2\n      lt\n      tag_382\n      jumpi\n      tag_382\n      tag_383\n      jump\t// in\n    tag_382:\n      0x20\n      add\n      add\n        /* \"MoonCats_flat.sol\":2374:2430  buffer[digits] = bytes1(uint8(48 + uint256(value % 10))) */\n      swap1\n      not(sub(shl(0xf8, 0x01), 0x01))\n      and\n      swap1\n      dup2\n      0x00\n      byte\n      swap1\n      mstore8\n      pop\n        /* \"MoonCats_flat.sol\":2444:2455  value /= 10 */\n      tag_384\n        /* \"MoonCats_flat.sol\":2453:2455  10 */\n      0x0a\n        /* \"MoonCats_flat.sol\":2444:2455  value /= 10 */\n      dup7\n      tag_370\n      jump\t// in\n    tag_384:\n      swap5\n      pop\n        /* \"MoonCats_flat.sol\":2316:2466  while (value != 0) {... */\n      jump(tag_375)\n        /* \"MoonCats_flat.sol\":31991:32363  function _mint(address to, uint256 tokenId) internal virtual {... */\n    tag_353:\n      sub(shl(0xa0, 0x01), 0x01)\n        /* \"MoonCats_flat.sol\":32070:32086  to != address(0) */\n      dup3\n      and\n        /* \"MoonCats_flat.sol\":32062:32123  require(to != address(0), \"ERC721: mint to the zero address\") */\n      tag_386\n      jumpi\n      mload(0x40)\n      shl(0xe5, 0x461bcd)\n      dup2\n      mstore\n        /* \"#utility.yul\":10189:10191   */\n      0x20\n        /* \"MoonCats_flat.sol\":32062:32123  require(to != address(0), \"ERC721: mint to the zero address\") */\n      0x04\n      dup3\n      add\n        /* \"#utility.yul\":10171:10192   */\n      dup2\n      swap1\n      mstore\n        /* \"#utility.yul\":10208:10226   */\n      0x24\n      dup3\n      add\n        /* \"#utility.yul\":10201:10231   */\n      mstore\n        /* \"#utility.yul\":10267:10301   */\n      0x4552433732313a206d696e7420746f20746865207a65726f2061646472657373\n        /* \"#utility.yul\":10247:10265   */\n      0x44\n      dup3\n      add\n        /* \"#utility.yul\":10240:10302   */\n      mstore\n        /* \"#utility.yul\":10319:10337   */\n      0x64\n      add\n        /* \"MoonCats_flat.sol\":32062:32123  require(to != address(0), \"ERC721: mint to the zero address\") */\n      tag_131\n        /* \"#utility.yul\":9987:10343   */\n      jump\n        /* \"MoonCats_flat.sol\":32062:32123  require(to != address(0), \"ERC721: mint to the zero address\") */\n    tag_386:\n        /* \"MoonCats_flat.sol\":32142:32158  _exists(tokenId) */\n      tag_389\n        /* \"MoonCats_flat.sol\":32150:32157  tokenId */\n      dup2\n        /* \"MoonCats_flat.sol\":32142:32149  _exists */\n      tag_129\n        /* \"MoonCats_flat.sol\":32142:32158  _exists(tokenId) */\n      jump\t// in\n    tag_389:\n        /* \"MoonCats_flat.sol\":32141:32158  !_exists(tokenId) */\n      iszero\n        /* \"MoonCats_flat.sol\":32133:32191  require(!_exists(tokenId), \"ERC721: token already minted\") */\n      tag_390\n      jumpi\n      mload(0x40)\n      shl(0xe5, 0x461bcd)\n      dup2\n      mstore\n        /* \"#utility.yul\":6999:7001   */\n      0x20\n        /* \"MoonCats_flat.sol\":32133:32191  require(!_exists(tokenId), \"ERC721: token already minted\") */\n      0x04\n      dup3\n      add\n        /* \"#utility.yul\":6981:7002   */\n      mstore\n        /* \"#utility.yul\":7038:7040   */\n      0x1c\n        /* \"#utility.yul\":7018:7036   */\n      0x24\n      dup3\n      add\n        /* \"#utility.yul\":7011:7041   */\n      mstore\n        /* \"#utility.yul\":7077:7107   */\n      0x4552433732313a20746f6b656e20616c7265616479206d696e74656400000000\n        /* \"#utility.yul\":7057:7075   */\n      0x44\n      dup3\n      add\n        /* \"#utility.yul\":7050:7108   */\n      mstore\n        /* \"#utility.yul\":7125:7143   */\n      0x64\n      add\n        /* \"MoonCats_flat.sol\":32133:32191  require(!_exists(tokenId), \"ERC721: token already minted\") */\n      tag_131\n        /* \"#utility.yul\":6797:7149   */\n      jump\n        /* \"MoonCats_flat.sol\":32133:32191  require(!_exists(tokenId), \"ERC721: token already minted\") */\n    tag_390:\n      sub(shl(0xa0, 0x01), 0x01)\n        /* \"MoonCats_flat.sol\":32258:32271  _balances[to] */\n      dup3\n      and\n      0x00\n      swap1\n      dup2\n      mstore\n        /* \"MoonCats_flat.sol\":32258:32267  _balances */\n      0x03\n        /* \"MoonCats_flat.sol\":32258:32271  _balances[to] */\n      0x20\n      mstore\n      0x40\n      dup2\n      keccak256\n        /* \"MoonCats_flat.sol\":32258:32276  _balances[to] += 1 */\n      dup1\n      sload\n        /* \"MoonCats_flat.sol\":32275:32276  1 */\n      0x01\n      swap3\n        /* \"MoonCats_flat.sol\":32258:32271  _balances[to] */\n      swap1\n        /* \"MoonCats_flat.sol\":32258:32276  _balances[to] += 1 */\n      tag_394\n      swap1\n        /* \"MoonCats_flat.sol\":32275:32276  1 */\n      dup5\n      swap1\n        /* \"MoonCats_flat.sol\":32258:32276  _balances[to] += 1 */\n      tag_262\n      jump\t// in\n    tag_394:\n      swap1\n      swap2\n      sstore\n      pop\n      pop\n        /* \"MoonCats_flat.sol\":32286:32302  _owners[tokenId] */\n      0x00\n      dup2\n      dup2\n      mstore\n        /* \"MoonCats_flat.sol\":32286:32293  _owners */\n      0x02\n        /* \"MoonCats_flat.sol\":32286:32302  _owners[tokenId] */\n      0x20\n      mstore\n      0x40\n      dup1\n      dup3\n      keccak256\n        /* \"MoonCats_flat.sol\":32286:32307  _owners[tokenId] = to */\n      dup1\n      sload\n      not(sub(shl(0xa0, 0x01), 0x01))\n      and\n      sub(shl(0xa0, 0x01), 0x01)\n      dup7\n      and\n      swap1\n      dup2\n      or\n      swap1\n      swap2\n      sstore\n        /* \"MoonCats_flat.sol\":32323:32356  Transfer(address(0), to, tokenId) */\n      swap1\n      mload\n        /* \"MoonCats_flat.sol\":32286:32302  _owners[tokenId] */\n      dup4\n      swap3\n      swap1\n        /* \"MoonCats_flat.sol\":32323:32356  Transfer(address(0), to, tokenId) */\n      0xddf252ad1be2c89b69c2b068fc378daa952ba7f163c4a11628f55a4df523b3ef\n      swap1\n        /* \"MoonCats_flat.sol\":32286:32302  _owners[tokenId] */\n      dup3\n      swap1\n        /* \"MoonCats_flat.sol\":32323:32356  Transfer(address(0), to, tokenId) */\n      log4\n        /* \"MoonCats_flat.sol\":31991:32363  function _mint(address to, uint256 tokenId) internal virtual {... */\n      pop\n      pop\n      jump\t// out\n    tag_308:\n      dup3\n      dup1\n      sload\n      tag_395\n      swap1\n      tag_122\n      jump\t// in\n    tag_395:\n      swap1\n      0x00\n      mstore\n      keccak256(0x00, 0x20)\n      swap1\n      0x1f\n      add\n      0x20\n      swap1\n      div\n      dup2\n      add\n      swap3\n      dup3\n      tag_397\n      jumpi\n      0x00\n      dup6\n      sstore\n      jump(tag_400)\n    tag_397:\n      dup3\n      0x1f\n      lt\n      tag_398\n      jumpi\n      dup1\n      mload\n      not(0xff)\n      and\n      dup4\n      dup1\n      add\n      or\n      dup6\n      sstore\n      jump(tag_400)\n    tag_398:\n      dup3\n      dup1\n      add\n      0x01\n      add\n      dup6\n      sstore\n      dup3\n      iszero\n      tag_400\n      jumpi\n      swap2\n      dup3\n      add\n    tag_399:\n      dup3\n      dup2\n      gt\n      iszero\n      tag_400\n      jumpi\n      dup3\n      mload\n      dup3\n      sstore\n      swap2\n      0x20\n      add\n      swap2\n      swap1\n      0x01\n      add\n      swap1\n      jump(tag_399)\n    tag_400:\n      pop\n      tag_401\n      swap3\n      swap2\n      pop\n      tag_402\n      jump\t// in\n    tag_401:\n      pop\n      swap1\n      jump\t// out\n    tag_316:\n      pop\n      dup1\n      sload\n      tag_403\n      swap1\n      tag_122\n      jump\t// in\n    tag_403:\n      0x00\n      dup3\n      sstore\n      dup1\n      0x1f\n      lt\n      tag_405\n      jumpi\n      pop\n      pop\n      jump\t// out\n    tag_405:\n      0x1f\n      add\n      0x20\n      swap1\n      div\n      swap1\n      0x00\n      mstore\n      keccak256(0x00, 0x20)\n      swap1\n      dup2\n      add\n      swap1\n      tag_170\n      swap2\n      swap1\n    tag_402:\n    tag_407:\n      dup1\n      dup3\n      gt\n      iszero\n      tag_401\n      jumpi\n      0x00\n      dup2\n      sstore\n      0x01\n      add\n      jump(tag_407)\n        /* \"#utility.yul\":14:645   */\n    tag_410:\n        /* \"#utility.yul\":78:83   */\n      0x00\n        /* \"#utility.yul\":108:126   */\n      0xffffffffffffffff\n        /* \"#utility.yul\":149:151   */\n      dup1\n        /* \"#utility.yul\":141:147   */\n      dup5\n        /* \"#utility.yul\":138:152   */\n      gt\n        /* \"#utility.yul\":135:175   */\n      iszero\n      tag_413\n      jumpi\n        /* \"#utility.yul\":155:173   */\n      tag_413\n      tag_373\n      jump\t// in\n    tag_413:\n        /* \"#utility.yul\":230:232   */\n      0x40\n        /* \"#utility.yul\":224:233   */\n      mload\n        /* \"#utility.yul\":198:200   */\n      0x1f\n        /* \"#utility.yul\":284:299   */\n      dup6\n      add\n      not(0x1f)\n        /* \"#utility.yul\":280:304   */\n      swap1\n      dup2\n      and\n        /* \"#utility.yul\":306:308   */\n      0x3f\n        /* \"#utility.yul\":276:309   */\n      add\n        /* \"#utility.yul\":272:314   */\n      and\n        /* \"#utility.yul\":260:315   */\n      dup2\n      add\n      swap1\n        /* \"#utility.yul\":330:348   */\n      dup3\n      dup3\n      gt\n        /* \"#utility.yul\":350:372   */\n      dup2\n      dup4\n      lt\n        /* \"#utility.yul\":327:373   */\n      or\n        /* \"#utility.yul\":324:396   */\n      iszero\n      tag_415\n      jumpi\n        /* \"#utility.yul\":376:394   */\n      tag_415\n      tag_373\n      jump\t// in\n    tag_415:\n        /* \"#utility.yul\":416:426   */\n      dup2\n        /* \"#utility.yul\":412:414   */\n      0x40\n        /* \"#utility.yul\":405:427   */\n      mstore\n        /* \"#utility.yul\":445:451   */\n      dup1\n        /* \"#utility.yul\":436:451   */\n      swap4\n      pop\n        /* \"#utility.yul\":475:481   */\n      dup6\n        /* \"#utility.yul\":467:473   */\n      dup2\n        /* \"#utility.yul\":460:482   */\n      mstore\n        /* \"#utility.yul\":515:518   */\n      dup7\n        /* \"#utility.yul\":506:512   */\n      dup7\n        /* \"#utility.yul\":501:504   */\n      dup7\n        /* \"#utility.yul\":497:513   */\n      add\n        /* \"#utility.yul\":494:519   */\n      gt\n        /* \"#utility.yul\":491:536   */\n      iszero\n      tag_416\n      jumpi\n        /* \"#utility.yul\":532:533   */\n      0x00\n        /* \"#utility.yul\":529:530   */\n      dup1\n        /* \"#utility.yul\":522:534   */\n      revert\n        /* \"#utility.yul\":491:536   */\n    tag_416:\n        /* \"#utility.yul\":582:588   */\n      dup6\n        /* \"#utility.yul\":577:580   */\n      dup6\n        /* \"#utility.yul\":570:574   */\n      0x20\n        /* \"#utility.yul\":562:568   */\n      dup4\n        /* \"#utility.yul\":558:575   */\n      add\n        /* \"#utility.yul\":545:589   */\n      calldatacopy\n        /* \"#utility.yul\":637:638   */\n      0x00\n        /* \"#utility.yul\":630:634   */\n      0x20\n        /* \"#utility.yul\":621:627   */\n      dup8\n        /* \"#utility.yul\":613:619   */\n      dup4\n        /* \"#utility.yul\":609:628   */\n      add\n        /* \"#utility.yul\":605:635   */\n      add\n        /* \"#utility.yul\":598:639   */\n      mstore\n      pop\n      pop\n      pop\n        /* \"#utility.yul\":14:645   */\n      swap4\n      swap3\n      pop\n      pop\n      pop\n      jump\t// out\n        /* \"#utility.yul\":650:823   */\n    tag_417:\n        /* \"#utility.yul\":718:738   */\n      dup1\n      calldataload\n      sub(shl(0xa0, 0x01), 0x01)\n        /* \"#utility.yul\":767:798   */\n      dup2\n      and\n        /* \"#utility.yul\":757:799   */\n      dup2\n      eq\n        /* \"#utility.yul\":747:817   */\n      tag_419\n      jumpi\n        /* \"#utility.yul\":813:814   */\n      0x00\n        /* \"#utility.yul\":810:811   */\n      dup1\n        /* \"#utility.yul\":803:815   */\n      revert\n        /* \"#utility.yul\":747:817   */\n    tag_419:\n        /* \"#utility.yul\":650:823   */\n      swap2\n      swap1\n      pop\n      jump\t// out\n        /* \"#utility.yul\":828:1014   */\n    tag_71:\n        /* \"#utility.yul\":887:893   */\n      0x00\n        /* \"#utility.yul\":940:942   */\n      0x20\n        /* \"#utility.yul\":928:937   */\n      dup3\n        /* \"#utility.yul\":919:926   */\n      dup5\n        /* \"#utility.yul\":915:938   */\n      sub\n        /* \"#utility.yul\":911:943   */\n      slt\n        /* \"#utility.yul\":908:960   */\n      iszero\n      tag_421\n      jumpi\n        /* \"#utility.yul\":956:957   */\n      0x00\n        /* \"#utility.yul\":953:954   */\n      dup1\n        /* \"#utility.yul\":946:958   */\n      revert\n        /* \"#utility.yul\":908:960   */\n    tag_421:\n        /* \"#utility.yul\":979:1008   */\n      tag_347\n        /* \"#utility.yul\":998:1007   */\n      dup3\n        /* \"#utility.yul\":979:1008   */\n      tag_417\n      jump\t// in\n        /* \"#utility.yul\":1019:1279   */\n    tag_108:\n        /* \"#utility.yul\":1087:1093   */\n      0x00\n        /* \"#utility.yul\":1095:1101   */\n      dup1\n        /* \"#utility.yul\":1148:1150   */\n      0x40\n        /* \"#utility.yul\":1136:1145   */\n      dup4\n        /* \"#utility.yul\":1127:1134   */\n      dup6\n        /* \"#utility.yul\":1123:1146   */\n      sub\n        /* \"#utility.yul\":1119:1151   */\n      slt\n        /* \"#utility.yul\":1116:1168   */\n      iszero\n      tag_424\n      jumpi\n        /* \"#utility.yul\":1164:1165   */\n      0x00\n        /* \"#utility.yul\":1161:1162   */\n      dup1\n        /* \"#utility.yul\":1154:1166   */\n      revert\n        /* \"#utility.yul\":1116:1168   */\n    tag_424:\n        /* \"#utility.yul\":1187:1216   */\n      tag_425\n        /* \"#utility.yul\":1206:1215   */\n      dup4\n        /* \"#utility.yul\":1187:1216   */\n      tag_417\n      jump\t// in\n    tag_425:\n        /* \"#utility.yul\":1177:1216   */\n      swap2\n      pop\n        /* \"#utility.yul\":1235:1273   */\n      tag_426\n        /* \"#utility.yul\":1269:1271   */\n      0x20\n        /* \"#utility.yul\":1258:1267   */\n      dup5\n        /* \"#utility.yul\":1254:1272   */\n      add\n        /* \"#utility.yul\":1235:1273   */\n      tag_417\n      jump\t// in\n    tag_426:\n        /* \"#utility.yul\":1225:1273   */\n      swap1\n      pop\n        /* \"#utility.yul\":1019:1279   */\n      swap3\n      pop\n      swap3\n      swap1\n      pop\n      jump\t// out\n        /* \"#utility.yul\":1284:1612   */\n    tag_51:\n        /* \"#utility.yul\":1361:1367   */\n      0x00\n        /* \"#utility.yul\":1369:1375   */\n      dup1\n        /* \"#utility.yul\":1377:1383   */\n      0x00\n        /* \"#utility.yul\":1430:1432   */\n      0x60\n        /* \"#utility.yul\":1418:1427   */\n      dup5\n        /* \"#utility.yul\":1409:1416   */\n      dup7\n        /* \"#utility.yul\":1405:1428   */\n      sub\n        /* \"#utility.yul\":1401:1433   */\n      slt\n        /* \"#utility.yul\":1398:1450   */\n      iszero\n      tag_428\n      jumpi\n        /* \"#utility.yul\":1446:1447   */\n      0x00\n        /* \"#utility.yul\":1443:1444   */\n      dup1\n        /* \"#utility.yul\":1436:1448   */\n      revert\n        /* \"#utility.yul\":1398:1450   */\n    tag_428:\n        /* \"#utility.yul\":1469:1498   */\n      tag_429\n        /* \"#utility.yul\":1488:1497   */\n      dup5\n        /* \"#utility.yul\":1469:1498   */\n      tag_417\n      jump\t// in\n    tag_429:\n        /* \"#utility.yul\":1459:1498   */\n      swap3\n      pop\n        /* \"#utility.yul\":1517:1555   */\n      tag_430\n        /* \"#utility.yul\":1551:1553   */\n      0x20\n        /* \"#utility.yul\":1540:1549   */\n      dup6\n        /* \"#utility.yul\":1536:1554   */\n      add\n        /* \"#utility.yul\":1517:1555   */\n      tag_417\n      jump\t// in\n    tag_430:\n        /* \"#utility.yul\":1507:1555   */\n      swap2\n      pop\n        /* \"#utility.yul\":1602:1604   */\n      0x40\n        /* \"#utility.yul\":1591:1600   */\n      dup5\n        /* \"#utility.yul\":1587:1605   */\n      add\n        /* \"#utility.yul\":1574:1606   */\n      calldataload\n        /* \"#utility.yul\":1564:1606   */\n      swap1\n      pop\n        /* \"#utility.yul\":1284:1612   */\n      swap3\n      pop\n      swap3\n      pop\n      swap3\n      jump\t// out\n        /* \"#utility.yul\":1617:2283   */\n    tag_94:\n        /* \"#utility.yul\":1712:1718   */\n      0x00\n        /* \"#utility.yul\":1720:1726   */\n      dup1\n        /* \"#utility.yul\":1728:1734   */\n      0x00\n        /* \"#utility.yul\":1736:1742   */\n      dup1\n        /* \"#utility.yul\":1789:1792   */\n      0x80\n        /* \"#utility.yul\":1777:1786   */\n      dup6\n        /* \"#utility.yul\":1768:1775   */\n      dup8\n        /* \"#utility.yul\":1764:1787   */\n      sub\n        /* \"#utility.yul\":1760:1793   */\n      slt\n        /* \"#utility.yul\":1757:1810   */\n      iszero\n      tag_432\n      jumpi\n        /* \"#utility.yul\":1806:1807   */\n      0x00\n        /* \"#utility.yul\":1803:1804   */\n      dup1\n        /* \"#utility.yul\":1796:1808   */\n      revert\n        /* \"#utility.yul\":1757:1810   */\n    tag_432:\n        /* \"#utility.yul\":1829:1858   */\n      tag_433\n        /* \"#utility.yul\":1848:1857   */\n      dup6\n        /* \"#utility.yul\":1829:1858   */\n      tag_417\n      jump\t// in\n    tag_433:\n        /* \"#utility.yul\":1819:1858   */\n      swap4\n      pop\n        /* \"#utility.yul\":1877:1915   */\n      tag_434\n        /* \"#utility.yul\":1911:1913   */\n      0x20\n        /* \"#utility.yul\":1900:1909   */\n      dup7\n        /* \"#utility.yul\":1896:1914   */\n      add\n        /* \"#utility.yul\":1877:1915   */\n      tag_417\n      jump\t// in\n    tag_434:\n        /* \"#utility.yul\":1867:1915   */\n      swap3\n      pop\n        /* \"#utility.yul\":1962:1964   */\n      0x40\n        /* \"#utility.yul\":1951:1960   */\n      dup6\n        /* \"#utility.yul\":1947:1965   */\n      add\n        /* \"#utility.yul\":1934:1966   */\n      calldataload\n        /* \"#utility.yul\":1924:1966   */\n      swap2\n      pop\n        /* \"#utility.yul\":2017:2019   */\n      0x60\n        /* \"#utility.yul\":2006:2015   */\n      dup6\n        /* \"#utility.yul\":2002:2020   */\n      add\n        /* \"#utility.yul\":1989:2021   */\n      calldataload\n        /* \"#utility.yul\":2044:2062   */\n      0xffffffffffffffff\n        /* \"#utility.yul\":2036:2042   */\n      dup2\n        /* \"#utility.yul\":2033:2063   */\n      gt\n        /* \"#utility.yul\":2030:2080   */\n      iszero\n      tag_435\n      jumpi\n        /* \"#utility.yul\":2076:2077   */\n      0x00\n        /* \"#utility.yul\":2073:2074   */\n      dup1\n        /* \"#utility.yul\":2066:2078   */\n      revert\n        /* \"#utility.yul\":2030:2080   */\n    tag_435:\n        /* \"#utility.yul\":2099:2121   */\n      dup6\n      add\n        /* \"#utility.yul\":2152:2156   */\n      0x1f\n        /* \"#utility.yul\":2144:2157   */\n      dup2\n      add\n        /* \"#utility.yul\":2140:2167   */\n      dup8\n      sgt\n        /* \"#utility.yul\":2130:2185   */\n      tag_436\n      jumpi\n        /* \"#utility.yul\":2181:2182   */\n      0x00\n        /* \"#utility.yul\":2178:2179   */\n      dup1\n        /* \"#utility.yul\":2171:2183   */\n      revert\n        /* \"#utility.yul\":2130:2185   */\n    tag_436:\n        /* \"#utility.yul\":2204:2277   */\n      tag_437\n        /* \"#utility.yul\":2269:2276   */\n      dup8\n        /* \"#utility.yul\":2264:2266   */\n      dup3\n        /* \"#utility.yul\":2251:2267   */\n      calldataload\n        /* \"#utility.yul\":2246:2248   */\n      0x20\n        /* \"#utility.yul\":2242:2244   */\n      dup5\n        /* \"#utility.yul\":2238:2249   */\n      add\n        /* \"#utility.yul\":2204:2277   */\n      tag_410\n      jump\t// in\n    tag_437:\n        /* \"#utility.yul\":2194:2277   */\n      swap2\n      pop\n      pop\n        /* \"#utility.yul\":1617:2283   */\n      swap3\n      swap6\n      swap2\n      swap5\n      pop\n      swap3\n      pop\n      jump\t// out\n        /* \"#utility.yul\":2288:2635   */\n    tag_89:\n        /* \"#utility.yul\":2353:2359   */\n      0x00\n        /* \"#utility.yul\":2361:2367   */\n      dup1\n        /* \"#utility.yul\":2414:2416   */\n      0x40\n        /* \"#utility.yul\":2402:2411   */\n      dup4\n        /* \"#utility.yul\":2393:2400   */\n      dup6\n        /* \"#utility.yul\":2389:2412   */\n      sub\n        /* \"#utility.yul\":2385:2417   */\n      slt\n        /* \"#utility.yul\":2382:2434   */\n      iszero\n      tag_439\n      jumpi\n        /* \"#utility.yul\":2430:2431   */\n      0x00\n        /* \"#utility.yul\":2427:2428   */\n      dup1\n        /* \"#utility.yul\":2420:2432   */\n      revert\n        /* \"#utility.yul\":2382:2434   */\n    tag_439:\n        /* \"#utility.yul\":2453:2482   */\n      tag_440\n        /* \"#utility.yul\":2472:2481   */\n      dup4\n        /* \"#utility.yul\":2453:2482   */\n      tag_417\n      jump\t// in\n    tag_440:\n        /* \"#utility.yul\":2443:2482   */\n      swap2\n      pop\n        /* \"#utility.yul\":2532:2534   */\n      0x20\n        /* \"#utility.yul\":2521:2530   */\n      dup4\n        /* \"#utility.yul\":2517:2535   */\n      add\n        /* \"#utility.yul\":2504:2536   */\n      calldataload\n        /* \"#utility.yul\":2579:2584   */\n      dup1\n        /* \"#utility.yul\":2572:2585   */\n      iszero\n        /* \"#utility.yul\":2565:2586   */\n      iszero\n        /* \"#utility.yul\":2558:2563   */\n      dup2\n        /* \"#utility.yul\":2555:2587   */\n      eq\n        /* \"#utility.yul\":2545:2605   */\n      tag_441\n      jumpi\n        /* \"#utility.yul\":2601:2602   */\n      0x00\n        /* \"#utility.yul\":2598:2599   */\n      dup1\n        /* \"#utility.yul\":2591:2603   */\n      revert\n        /* \"#utility.yul\":2545:2605   */\n    tag_441:\n        /* \"#utility.yul\":2624:2629   */\n      dup1\n        /* \"#utility.yul\":2614:2629   */\n      swap2\n      pop\n      pop\n        /* \"#utility.yul\":2288:2635   */\n      swap3\n      pop\n      swap3\n      swap1\n      pop\n      jump\t// out\n        /* \"#utility.yul\":2640:3164   */\n    tag_103:\n        /* \"#utility.yul\":2718:2724   */\n      0x00\n        /* \"#utility.yul\":2726:2732   */\n      dup1\n        /* \"#utility.yul\":2779:2781   */\n      0x40\n        /* \"#utility.yul\":2767:2776   */\n      dup4\n        /* \"#utility.yul\":2758:2765   */\n      dup6\n        /* \"#utility.yul\":2754:2777   */\n      sub\n        /* \"#utility.yul\":2750:2782   */\n      slt\n        /* \"#utility.yul\":2747:2799   */\n      iszero\n      tag_443\n      jumpi\n        /* \"#utility.yul\":2795:2796   */\n      0x00\n        /* \"#utility.yul\":2792:2793   */\n      dup1\n        /* \"#utility.yul\":2785:2797   */\n      revert\n        /* \"#utility.yul\":2747:2799   */\n    tag_443:\n        /* \"#utility.yul\":2818:2847   */\n      tag_444\n        /* \"#utility.yul\":2837:2846   */\n      dup4\n        /* \"#utility.yul\":2818:2847   */\n      tag_417\n      jump\t// in\n    tag_444:\n        /* \"#utility.yul\":2808:2847   */\n      swap2\n      pop\n        /* \"#utility.yul\":2898:2900   */\n      0x20\n        /* \"#utility.yul\":2887:2896   */\n      dup4\n        /* \"#utility.yul\":2883:2901   */\n      add\n        /* \"#utility.yul\":2870:2902   */\n      calldataload\n        /* \"#utility.yul\":2925:2943   */\n      0xffffffffffffffff\n        /* \"#utility.yul\":2917:2923   */\n      dup2\n        /* \"#utility.yul\":2914:2944   */\n      gt\n        /* \"#utility.yul\":2911:2961   */\n      iszero\n      tag_445\n      jumpi\n        /* \"#utility.yul\":2957:2958   */\n      0x00\n        /* \"#utility.yul\":2954:2955   */\n      dup1\n        /* \"#utility.yul\":2947:2959   */\n      revert\n        /* \"#utility.yul\":2911:2961   */\n    tag_445:\n        /* \"#utility.yul\":2980:3002   */\n      dup4\n      add\n        /* \"#utility.yul\":3033:3037   */\n      0x1f\n        /* \"#utility.yul\":3025:3038   */\n      dup2\n      add\n        /* \"#utility.yul\":3021:3048   */\n      dup6\n      sgt\n        /* \"#utility.yul\":3011:3066   */\n      tag_446\n      jumpi\n        /* \"#utility.yul\":3062:3063   */\n      0x00\n        /* \"#utility.yul\":3059:3060   */\n      dup1\n        /* \"#utility.yul\":3052:3064   */\n      revert\n        /* \"#utility.yul\":3011:3066   */\n    tag_446:\n        /* \"#utility.yul\":3085:3158   */\n      tag_447\n        /* \"#utility.yul\":3150:3157   */\n      dup6\n        /* \"#utility.yul\":3145:3147   */\n      dup3\n        /* \"#utility.yul\":3132:3148   */\n      calldataload\n        /* \"#utility.yul\":3127:3129   */\n      0x20\n        /* \"#utility.yul\":3123:3125   */\n      dup5\n        /* \"#utility.yul\":3119:3130   */\n      add\n        /* \"#utility.yul\":3085:3158   */\n      tag_410\n      jump\t// in\n    tag_447:\n        /* \"#utility.yul\":3075:3158   */\n      swap2\n      pop\n      pop\n        /* \"#utility.yul\":2640:3164   */\n      swap3\n      pop\n      swap3\n      swap1\n      pop\n      jump\t// out\n        /* \"#utility.yul\":3169:3423   */\n    tag_46:\n        /* \"#utility.yul\":3237:3243   */\n      0x00\n        /* \"#utility.yul\":3245:3251   */\n      dup1\n        /* \"#utility.yul\":3298:3300   */\n      0x40\n        /* \"#utility.yul\":3286:3295   */\n      dup4\n        /* \"#utility.yul\":3277:3284   */\n      dup6\n        /* \"#utility.yul\":3273:3296   */\n      sub\n        /* \"#utility.yul\":3269:3301   */\n      slt\n        /* \"#utility.yul\":3266:3318   */\n      iszero\n      tag_449\n      jumpi\n        /* \"#utility.yul\":3314:3315   */\n      0x00\n        /* \"#utility.yul\":3311:3312   */\n      dup1\n        /* \"#utility.yul\":3304:3316   */\n      revert\n        /* \"#utility.yul\":3266:3318   */\n    tag_449:\n        /* \"#utility.yul\":3337:3366   */\n      tag_450\n        /* \"#utility.yul\":3356:3365   */\n      dup4\n        /* \"#utility.yul\":3337:3366   */\n      tag_417\n      jump\t// in\n    tag_450:\n        /* \"#utility.yul\":3327:3366   */\n      swap5\n        /* \"#utility.yul\":3413:3415   */\n      0x20\n        /* \"#utility.yul\":3398:3416   */\n      swap4\n      swap1\n      swap4\n      add\n        /* \"#utility.yul\":3385:3417   */\n      calldataload\n      swap4\n      pop\n      pop\n      pop\n        /* \"#utility.yul\":3169:3423   */\n      jump\t// out\n        /* \"#utility.yul\":3428:3673   */\n    tag_27:\n        /* \"#utility.yul\":3486:3492   */\n      0x00\n        /* \"#utility.yul\":3539:3541   */\n      0x20\n        /* \"#utility.yul\":3527:3536   */\n      dup3\n        /* \"#utility.yul\":3518:3525   */\n      dup5\n        /* \"#utility.yul\":3514:3537   */\n      sub\n        /* \"#utility.yul\":3510:3542   */\n      slt\n        /* \"#utility.yul\":3507:3559   */\n      iszero\n      tag_452\n      jumpi\n        /* \"#utility.yul\":3555:3556   */\n      0x00\n        /* \"#utility.yul\":3552:3553   */\n      dup1\n        /* \"#utility.yul\":3545:3557   */\n      revert\n        /* \"#utility.yul\":3507:3559   */\n    tag_452:\n        /* \"#utility.yul\":3594:3603   */\n      dup2\n        /* \"#utility.yul\":3581:3604   */\n      calldataload\n        /* \"#utility.yul\":3613:3643   */\n      tag_347\n        /* \"#utility.yul\":3637:3642   */\n      dup2\n        /* \"#utility.yul\":3613:3643   */\n      tag_454\n      jump\t// in\n        /* \"#utility.yul\":3678:3927   */\n    tag_327:\n        /* \"#utility.yul\":3747:3753   */\n      0x00\n        /* \"#utility.yul\":3800:3802   */\n      0x20\n        /* \"#utility.yul\":3788:3797   */\n      dup3\n        /* \"#utility.yul\":3779:3786   */\n      dup5\n        /* \"#utility.yul\":3775:3798   */\n      sub\n        /* \"#utility.yul\":3771:3803   */\n      slt\n        /* \"#utility.yul\":3768:3820   */\n      iszero\n      tag_456\n      jumpi\n        /* \"#utility.yul\":3816:3817   */\n      0x00\n        /* \"#utility.yul\":3813:3814   */\n      dup1\n        /* \"#utility.yul\":3806:3818   */\n      revert\n        /* \"#utility.yul\":3768:3820   */\n    tag_456:\n        /* \"#utility.yul\":3848:3857   */\n      dup2\n        /* \"#utility.yul\":3842:3858   */\n      mload\n        /* \"#utility.yul\":3867:3897   */\n      tag_347\n        /* \"#utility.yul\":3891:3896   */\n      dup2\n        /* \"#utility.yul\":3867:3897   */\n      tag_454\n      jump\t// in\n        /* \"#utility.yul\":3932:4112   */\n    tag_39:\n        /* \"#utility.yul\":3991:3997   */\n      0x00\n        /* \"#utility.yul\":4044:4046   */\n      0x20\n        /* \"#utility.yul\":4032:4041   */\n      dup3\n        /* \"#utility.yul\":4023:4030   */\n      dup5\n        /* \"#utility.yul\":4019:4042   */\n      sub\n        /* \"#utility.yul\":4015:4047   */\n      slt\n        /* \"#utility.yul\":4012:4064   */\n      iszero\n      tag_459\n      jumpi\n        /* \"#utility.yul\":4060:4061   */\n      0x00\n        /* \"#utility.yul\":4057:4058   */\n      dup1\n        /* \"#utility.yul\":4050:4062   */\n      revert\n        /* \"#utility.yul\":4012:4064   */\n    tag_459:\n      pop\n        /* \"#utility.yul\":4083:4106   */\n      calldataload\n      swap2\n        /* \"#utility.yul\":3932:4112   */\n      swap1\n      pop\n      jump\t// out\n        /* \"#utility.yul\":4117:4374   */\n    tag_460:\n        /* \"#utility.yul\":4158:4161   */\n      0x00\n        /* \"#utility.yul\":4196:4201   */\n      dup2\n        /* \"#utility.yul\":4190:4202   */\n      mload\n        /* \"#utility.yul\":4223:4229   */\n      dup1\n        /* \"#utility.yul\":4218:4221   */\n      dup5\n        /* \"#utility.yul\":4211:4230   */\n      mstore\n        /* \"#utility.yul\":4239:4302   */\n      tag_462\n        /* \"#utility.yul\":4295:4301   */\n      dup2\n        /* \"#utility.yul\":4288:4292   */\n      0x20\n        /* \"#utility.yul\":4283:4286   */\n      dup7\n        /* \"#utility.yul\":4279:4293   */\n      add\n        /* \"#utility.yul\":4272:4276   */\n      0x20\n        /* \"#utility.yul\":4265:4270   */\n      dup7\n        /* \"#utility.yul\":4261:4277   */\n      add\n        /* \"#utility.yul\":4239:4302   */\n      tag_463\n      jump\t// in\n    tag_462:\n        /* \"#utility.yul\":4356:4358   */\n      0x1f\n        /* \"#utility.yul\":4335:4350   */\n      add\n      not(0x1f)\n        /* \"#utility.yul\":4331:4360   */\n      and\n        /* \"#utility.yul\":4322:4361   */\n      swap3\n      swap1\n      swap3\n      add\n        /* \"#utility.yul\":4363:4367   */\n      0x20\n        /* \"#utility.yul\":4318:4368   */\n      add\n      swap3\n        /* \"#utility.yul\":4117:4374   */\n      swap2\n      pop\n      pop\n      jump\t// out\n        /* \"#utility.yul\":4379:4849   */\n    tag_294:\n        /* \"#utility.yul\":4558:4561   */\n      0x00\n        /* \"#utility.yul\":4596:4602   */\n      dup4\n        /* \"#utility.yul\":4590:4603   */\n      mload\n        /* \"#utility.yul\":4612:4665   */\n      tag_465\n        /* \"#utility.yul\":4658:4664   */\n      dup2\n        /* \"#utility.yul\":4653:4656   */\n      dup5\n        /* \"#utility.yul\":4646:4650   */\n      0x20\n        /* \"#utility.yul\":4638:4644   */\n      dup9\n        /* \"#utility.yul\":4634:4651   */\n      add\n        /* \"#utility.yul\":4612:4665   */\n      tag_463\n      jump\t// in\n    tag_465:\n        /* \"#utility.yul\":4728:4741   */\n      dup4\n      mload\n        /* \"#utility.yul\":4687:4703   */\n      swap1\n      dup4\n      add\n      swap1\n        /* \"#utility.yul\":4750:4807   */\n      tag_466\n        /* \"#utility.yul\":4728:4741   */\n      dup2\n        /* \"#utility.yul\":4687:4703   */\n      dup4\n        /* \"#utility.yul\":4784:4788   */\n      0x20\n        /* \"#utility.yul\":4772:4789   */\n      dup9\n      add\n        /* \"#utility.yul\":4750:4807   */\n      tag_463\n      jump\t// in\n    tag_466:\n        /* \"#utility.yul\":4823:4843   */\n      add\n      swap5\n        /* \"#utility.yul\":4379:4849   */\n      swap4\n      pop\n      pop\n      pop\n      pop\n      jump\t// out\n        /* \"#utility.yul\":5062:5550   */\n    tag_323:\n      sub(shl(0xa0, 0x01), 0x01)\n        /* \"#utility.yul\":5331:5346   */\n      dup6\n      dup2\n      and\n        /* \"#utility.yul\":5313:5347   */\n      dup3\n      mstore\n        /* \"#utility.yul\":5383:5398   */\n      dup5\n      and\n        /* \"#utility.yul\":5378:5380   */\n      0x20\n        /* \"#utility.yul\":5363:5381   */\n      dup3\n      add\n        /* \"#utility.yul\":5356:5399   */\n      mstore\n        /* \"#utility.yul\":5430:5432   */\n      0x40\n        /* \"#utility.yul\":5415:5433   */\n      dup2\n      add\n        /* \"#utility.yul\":5408:5442   */\n      dup4\n      swap1\n      mstore\n        /* \"#utility.yul\":5478:5481   */\n      0x80\n        /* \"#utility.yul\":5473:5475   */\n      0x60\n        /* \"#utility.yul\":5458:5476   */\n      dup3\n      add\n        /* \"#utility.yul\":5451:5482   */\n      dup2\n      swap1\n      mstore\n        /* \"#utility.yul\":5256:5260   */\n      0x00\n      swap1\n        /* \"#utility.yul\":5499:5544   */\n      tag_469\n      swap1\n        /* \"#utility.yul\":5524:5543   */\n      dup4\n      add\n        /* \"#utility.yul\":5516:5522   */\n      dup5\n        /* \"#utility.yul\":5499:5544   */\n      tag_460\n      jump\t// in\n    tag_469:\n        /* \"#utility.yul\":5491:5544   */\n      swap7\n        /* \"#utility.yul\":5062:5550   */\n      swap6\n      pop\n      pop\n      pop\n      pop\n      pop\n      pop\n      jump\t// out\n        /* \"#utility.yul\":5747:5966   */\n    tag_35:\n        /* \"#utility.yul\":5896:5898   */\n      0x20\n        /* \"#utility.yul\":5885:5894   */\n      dup2\n        /* \"#utility.yul\":5878:5899   */\n      mstore\n        /* \"#utility.yul\":5859:5863   */\n      0x00\n        /* \"#utility.yul\":5916:5960   */\n      tag_347\n        /* \"#utility.yul\":5956:5958   */\n      0x20\n        /* \"#utility.yul\":5945:5954   */\n      dup4\n        /* \"#utility.yul\":5941:5959   */\n      add\n        /* \"#utility.yul\":5933:5939   */\n      dup5\n        /* \"#utility.yul\":5916:5960   */\n      tag_460\n      jump\t// in\n        /* \"#utility.yul\":5971:6385   */\n    tag_278:\n        /* \"#utility.yul\":6173:6175   */\n      0x20\n        /* \"#utility.yul\":6155:6176   */\n      dup1\n      dup3\n      mstore\n        /* \"#utility.yul\":6212:6214   */\n      0x32\n        /* \"#utility.yul\":6192:6210   */\n      swap1\n      dup3\n      add\n        /* \"#utility.yul\":6185:6215   */\n      mstore\n        /* \"#utility.yul\":6251:6285   */\n      0x4552433732313a207472616e7366657220746f206e6f6e204552433732315265\n        /* \"#utility.yul\":6246:6248   */\n      0x40\n        /* \"#utility.yul\":6231:6249   */\n      dup3\n      add\n        /* \"#utility.yul\":6224:6286   */\n      mstore\n      shl(0x71, 0x31b2b4bb32b91034b6b83632b6b2b73a32b9)\n        /* \"#utility.yul\":6317:6319   */\n      0x60\n        /* \"#utility.yul\":6302:6320   */\n      dup3\n      add\n        /* \"#utility.yul\":6295:6343   */\n      mstore\n        /* \"#utility.yul\":6375:6378   */\n      0x80\n        /* \"#utility.yul\":6360:6379   */\n      add\n      swap1\n        /* \"#utility.yul\":5971:6385   */\n      jump\t// out\n        /* \"#utility.yul\":12768:13181   */\n    tag_154:\n        /* \"#utility.yul\":12970:12972   */\n      0x20\n        /* \"#utility.yul\":12952:12973   */\n      dup1\n      dup3\n      mstore\n        /* \"#utility.yul\":13009:13011   */\n      0x31\n        /* \"#utility.yul\":12989:13007   */\n      swap1\n      dup3\n      add\n        /* \"#utility.yul\":12982:13012   */\n      mstore\n        /* \"#utility.yul\":13048:13082   */\n      0x4552433732313a207472616e736665722063616c6c6572206973206e6f74206f\n        /* \"#utility.yul\":13043:13045   */\n      0x40\n        /* \"#utility.yul\":13028:13046   */\n      dup3\n      add\n        /* \"#utility.yul\":13021:13083   */\n      mstore\n      shl(0x7a, 0x1ddb995c881b9bdc88185c1c1c9bdd9959)\n        /* \"#utility.yul\":13114:13116   */\n      0x60\n        /* \"#utility.yul\":13099:13117   */\n      dup3\n      add\n        /* \"#utility.yul\":13092:13139   */\n      mstore\n        /* \"#utility.yul\":13171:13174   */\n      0x80\n        /* \"#utility.yul\":13156:13175   */\n      add\n      swap1\n        /* \"#utility.yul\":12768:13181   */\n      jump\t// out\n        /* \"#utility.yul\":14191:14319   */\n    tag_262:\n        /* \"#utility.yul\":14231:14234   */\n      0x00\n        /* \"#utility.yul\":14262:14263   */\n      dup3\n        /* \"#utility.yul\":14258:14264   */\n      not\n        /* \"#utility.yul\":14255:14256   */\n      dup3\n        /* \"#utility.yul\":14252:14265   */\n      gt\n        /* \"#utility.yul\":14249:14288   */\n      iszero\n      tag_496\n      jumpi\n        /* \"#utility.yul\":14268:14286   */\n      tag_496\n      tag_497\n      jump\t// in\n    tag_496:\n      pop\n        /* \"#utility.yul\":14304:14313   */\n      add\n      swap1\n        /* \"#utility.yul\":14191:14319   */\n      jump\t// out\n        /* \"#utility.yul\":14324:14444   */\n    tag_370:\n        /* \"#utility.yul\":14364:14365   */\n      0x00\n        /* \"#utility.yul\":14390:14391   */\n      dup3\n        /* \"#utility.yul\":14380:14415   */\n      tag_500\n      jumpi\n        /* \"#utility.yul\":14395:14413   */\n      tag_500\n      tag_501\n      jump\t// in\n    tag_500:\n      pop\n        /* \"#utility.yul\":14429:14438   */\n      div\n      swap1\n        /* \"#utility.yul\":14324:14444   */\n      jump\t// out\n        /* \"#utility.yul\":14449:14574   */\n    tag_260:\n        /* \"#utility.yul\":14489:14493   */\n      0x00\n        /* \"#utility.yul\":14517:14518   */\n      dup3\n        /* \"#utility.yul\":14514:14515   */\n      dup3\n        /* \"#utility.yul\":14511:14519   */\n      lt\n        /* \"#utility.yul\":14508:14542   */\n      iszero\n      tag_504\n      jumpi\n        /* \"#utility.yul\":14522:14540   */\n      tag_504\n      tag_497\n      jump\t// in\n    tag_504:\n      pop\n        /* \"#utility.yul\":14559:14568   */\n      sub\n      swap1\n        /* \"#utility.yul\":14449:14574   */\n      jump\t// out\n        /* \"#utility.yul\":14579:14837   */\n    tag_463:\n        /* \"#utility.yul\":14651:14652   */\n      0x00\n        /* \"#utility.yul\":14661:14774   */\n    tag_506:\n        /* \"#utility.yul\":14675:14681   */\n      dup4\n        /* \"#utility.yul\":14672:14673   */\n      dup2\n        /* \"#utility.yul\":14669:14682   */\n      lt\n        /* \"#utility.yul\":14661:14774   */\n      iszero\n      tag_508\n      jumpi\n        /* \"#utility.yul\":14751:14762   */\n      dup2\n      dup2\n      add\n        /* \"#utility.yul\":14745:14763   */\n      mload\n        /* \"#utility.yul\":14732:14743   */\n      dup4\n      dup3\n      add\n        /* \"#utility.yul\":14725:14764   */\n      mstore\n        /* \"#utility.yul\":14697:14699   */\n      0x20\n        /* \"#utility.yul\":14690:14700   */\n      add\n        /* \"#utility.yul\":14661:14774   */\n      jump(tag_506)\n    tag_508:\n        /* \"#utility.yul\":14792:14798   */\n      dup4\n        /* \"#utility.yul\":14789:14790   */\n      dup2\n        /* \"#utility.yul\":14786:14799   */\n      gt\n        /* \"#utility.yul\":14783:14831   */\n      iszero\n      tag_205\n      jumpi\n      pop\n      pop\n        /* \"#utility.yul\":14827:14828   */\n      0x00\n        /* \"#utility.yul\":14809:14825   */\n      swap2\n      add\n        /* \"#utility.yul\":14802:14829   */\n      mstore\n        /* \"#utility.yul\":14579:14837   */\n      jump\t// out\n        /* \"#utility.yul\":14842:15222   */\n    tag_122:\n        /* \"#utility.yul\":14921:14922   */\n      0x01\n        /* \"#utility.yul\":14917:14929   */\n      dup2\n      dup2\n      shr\n      swap1\n        /* \"#utility.yul\":14964:14976   */\n      dup3\n      and\n      dup1\n        /* \"#utility.yul\":14985:15046   */\n      tag_511\n      jumpi\n        /* \"#utility.yul\":15039:15043   */\n      0x7f\n        /* \"#utility.yul\":15031:15037   */\n      dup3\n        /* \"#utility.yul\":15027:15044   */\n      and\n        /* \"#utility.yul\":15017:15044   */\n      swap2\n      pop\n        /* \"#utility.yul\":14985:15046   */\n    tag_511:\n        /* \"#utility.yul\":15092:15094   */\n      0x20\n        /* \"#utility.yul\":15084:15090   */\n      dup3\n        /* \"#utility.yul\":15081:15095   */\n      lt\n        /* \"#utility.yul\":15061:15079   */\n      dup2\n        /* \"#utility.yul\":15058:15096   */\n      eq\n        /* \"#utility.yul\":15055:15216   */\n      iszero\n      tag_512\n      jumpi\n        /* \"#utility.yul\":15138:15148   */\n      0x4e487b71\n        /* \"#utility.yul\":15133:15136   */\n      0xe0\n        /* \"#utility.yul\":15129:15149   */\n      shl\n        /* \"#utility.yul\":15126:15127   */\n      0x00\n        /* \"#utility.yul\":15119:15150   */\n      mstore\n        /* \"#utility.yul\":15173:15177   */\n      0x22\n        /* \"#utility.yul\":15170:15171   */\n      0x04\n        /* \"#utility.yul\":15163:15178   */\n      mstore\n        /* \"#utility.yul\":15201:15205   */\n      0x24\n        /* \"#utility.yul\":15198:15199   */\n      0x00\n        /* \"#utility.yul\":15191:15206   */\n      revert\n        /* \"#utility.yul\":15055:15216   */\n    tag_512:\n      pop\n        /* \"#utility.yul\":14842:15222   */\n      swap2\n      swap1\n      pop\n      jump\t// out\n        /* \"#utility.yul\":15227:15362   */\n    tag_368:\n        /* \"#utility.yul\":15266:15269   */\n      0x00\n      not(0x00)\n        /* \"#utility.yul\":15287:15304   */\n      dup3\n      eq\n        /* \"#utility.yul\":15284:15327   */\n      iszero\n      tag_515\n      jumpi\n        /* \"#utility.yul\":15307:15325   */\n      tag_515\n      tag_497\n      jump\t// in\n    tag_515:\n      pop\n        /* \"#utility.yul\":15354:15355   */\n      0x01\n        /* \"#utility.yul\":15343:15356   */\n      add\n      swap1\n        /* \"#utility.yul\":15227:15362   */\n      jump\t// out\n        /* \"#utility.yul\":15367:15479   */\n    tag_379:\n        /* \"#utility.yul\":15399:15400   */\n      0x00\n        /* \"#utility.yul\":15425:15426   */\n      dup3\n        /* \"#utility.yul\":15415:15450   */\n      tag_518\n      jumpi\n        /* \"#utility.yul\":15430:15448   */\n      tag_518\n      tag_501\n      jump\t// in\n    tag_518:\n      pop\n        /* \"#utility.yul\":15464:15473   */\n      mod\n      swap1\n        /* \"#utility.yul\":15367:15479   */\n      jump\t// out\n        /* \"#utility.yul\":15484:15611   */\n    tag_497:\n        /* \"#utility.yul\":15545:15555   */\n      0x4e487b71\n        /* \"#utility.yul\":15540:15543   */\n      0xe0\n        /* \"#utility.yul\":15536:15556   */\n      shl\n        /* \"#utility.yul\":15533:15534   */\n      0x00\n        /* \"#utility.yul\":15526:15557   */\n      mstore\n        /* \"#utility.yul\":15576:15580   */\n      0x11\n        /* \"#utility.yul\":15573:15574   */\n      0x04\n        /* \"#utility.yul\":15566:15581   */\n      mstore\n        /* \"#utility.yul\":15600:15604   */\n      0x24\n        /* \"#utility.yul\":15597:15598   */\n      0x00\n        /* \"#utility.yul\":15590:15605   */\n      revert\n        /* \"#utility.yul\":15616:15743   */\n    tag_501:\n        /* \"#utility.yul\":15677:15687   */\n      0x4e487b71\n        /* \"#utility.yul\":15672:15675   */\n      0xe0\n        /* \"#utility.yul\":15668:15688   */\n      shl\n        /* \"#utility.yul\":15665:15666   */\n      0x00\n        /* \"#utility.yul\":15658:15689   */\n      mstore\n        /* \"#utility.yul\":15708:15712   */\n      0x12\n        /* \"#utility.yul\":15705:15706   */\n      0x04\n        /* \"#utility.yul\":15698:15713   */\n      mstore\n        /* \"#utility.yul\":15732:15736   */\n      0x24\n        /* \"#utility.yul\":15729:15730   */\n      0x00\n        /* \"#utility.yul\":15722:15737   */\n      revert\n        /* \"#utility.yul\":15748:15875   */\n    tag_383:\n        /* \"#utility.yul\":15809:15819   */\n      0x4e487b71\n        /* \"#utility.yul\":15804:15807   */\n      0xe0\n        /* \"#utility.yul\":15800:15820   */\n      shl\n        /* \"#utility.yul\":15797:15798   */\n      0x00\n        /* \"#utility.yul\":15790:15821   */\n      mstore\n        /* \"#utility.yul\":15840:15844   */\n      0x32\n        /* \"#utility.yul\":15837:15838   */\n      0x04\n        /* \"#utility.yul\":15830:15845   */\n      mstore\n        /* \"#utility.yul\":15864:15868   */\n      0x24\n        /* \"#utility.yul\":15861:15862   */\n      0x00\n        /* \"#utility.yul\":15854:15869   */\n      revert\n        /* \"#utility.yul\":15880:16007   */\n    tag_373:\n        /* \"#utility.yul\":15941:15951   */\n      0x4e487b71\n        /* \"#utility.yul\":15936:15939   */\n      0xe0\n        /* \"#utility.yul\":15932:15952   */\n      shl\n        /* \"#utility.yul\":15929:15930   */\n      0x00\n        /* \"#utility.yul\":15922:15953   */\n      mstore\n        /* \"#utility.yul\":15972:15976   */\n      0x41\n        /* \"#utility.yul\":15969:15970   */\n      0x04\n        /* \"#utility.yul\":15962:15977   */\n      mstore\n        /* \"#utility.yul\":15996:16000   */\n      0x24\n        /* \"#utility.yul\":15993:15994   */\n      0x00\n        /* \"#utility.yul\":15986:16001   */\n      revert\n        /* \"#utility.yul\":16012:16143   */\n    tag_454:\n      not(sub(shl(0xe0, 0x01), 0x01))\n        /* \"#utility.yul\":16086:16118   */\n      dup2\n      and\n        /* \"#utility.yul\":16076:16119   */\n      dup2\n      eq\n        /* \"#utility.yul\":16066:16137   */\n      tag_170\n      jumpi\n        /* \"#utility.yul\":16133:16134   */\n      0x00\n        /* \"#utility.yul\":16130:16131   */\n      dup1\n        /* \"#utility.yul\":16123:16135   */\n      revert\n\n    auxdata: 0xa2646970667358221220644b3dc2024b1fa1cf5b8f6a994204b648d85e179cfde40644c717a12f36502664736f6c63430008070033\n}\n",
				"bytecode": {
					"linkReferences": {},
					"object": "60806040523480156200001157600080fd5b5060408051808201825260088152674d6f6f6e4361747360c01b6020808301918252835180850190945260058452644d4341545360d81b9084015281519192916200005f91600091620000ee565b50805162000075906001906020840190620000ee565b505050620000926200008c6200009860201b60201c565b6200009c565b620001d1565b3390565b600780546001600160a01b038381166001600160a01b0319831681179093556040519116919082907f8be0079c531659141344cd1fd0a4f28419497f9722a3daafe3b4186f6b6457e090600090a35050565b828054620000fc9062000194565b90600052602060002090601f0160209004810192826200012057600085556200016b565b82601f106200013b57805160ff19168380011785556200016b565b828001600101855582156200016b579182015b828111156200016b5782518255916020019190600101906200014e565b50620001799291506200017d565b5090565b5b808211156200017957600081556001016200017e565b600181811c90821680620001a957607f821691505b60208210811415620001cb57634e487b7160e01b600052602260045260246000fd5b50919050565b611c6380620001e16000396000f3fe6080604052600436106101145760003560e01c806370a08231116100a0578063b88d4fde11610064578063b88d4fde146102e8578063c87b56dd14610308578063d204c45e14610328578063e985e9c51461033b578063f2fde38b1461038457600080fd5b806370a0823114610252578063715018a6146102805780638da5cb5b1461029557806395d89b41146102b3578063a22cb465146102c857600080fd5b806323b872dd116100e757806323b872dd146101ca5780633ccfd60b146101ea57806342842e0e146101f257806342966c68146102125780636352211e1461023257600080fd5b806301ffc9a71461011957806306fdde031461014e578063081812fc14610170578063095ea7b3146101a8575b600080fd5b34801561012557600080fd5b50610139610134366004611945565b6103a4565b60405190151581526020015b60405180910390f35b34801561015a57600080fd5b506101636103f6565b6040516101459190611a30565b34801561017c57600080fd5b5061019061018b36600461197f565b610488565b6040516001600160a01b039091168152602001610145565b3480156101b457600080fd5b506101c86101c336600461191b565b610515565b005b3480156101d657600080fd5b506101c86101e53660046117c5565b61062b565b6101c861065d565b3480156101fe57600080fd5b506101c861020d3660046117c5565b6106b6565b34801561021e57600080fd5b506101c861022d36600461197f565b6106d1565b34801561023e57600080fd5b5061019061024d36600461197f565b61074b565b34801561025e57600080fd5b5061027261026d366004611777565b6107c2565b604051908152602001610145565b34801561028c57600080fd5b506101c8610849565b3480156102a157600080fd5b506007546001600160a01b0316610190565b3480156102bf57600080fd5b506101636108af565b3480156102d457600080fd5b506101c86102e336600461187d565b6108be565b3480156102f457600080fd5b506101c8610303366004611801565b6108cd565b34801561031457600080fd5b5061016361032336600461197f565b610905565b6101c86103363660046118b9565b610910565b34801561034757600080fd5b50610139610356366004611792565b6001600160a01b03918216600090815260056020908152604080832093909416825291909152205460ff1690565b34801561039057600080fd5b506101c861039f366004611777565b6109a4565b60006001600160e01b031982166380ac58cd60e01b14806103d557506001600160e01b03198216635b5e139f60e01b145b806103f057506301ffc9a760e01b6001600160e01b03198316145b92915050565b60606000805461040590611b55565b80601f016020809104026020016040519081016040528092919081815260200182805461043190611b55565b801561047e5780601f106104535761010080835404028352916020019161047e565b820191906000526020600020905b81548152906001019060200180831161046157829003601f168201915b5050505050905090565b600061049382610a6c565b6104f95760405162461bcd60e51b815260206004820152602c60248201527f4552433732313a20617070726f76656420717565727920666f72206e6f6e657860448201526b34b9ba32b73a103a37b5b2b760a11b60648201526084015b60405180910390fd5b506000908152600460205260409020546001600160a01b031690565b60006105208261074b565b9050806001600160a01b0316836001600160a01b0316141561058e5760405162461bcd60e51b815260206004820152602160248201527f4552433732313a20617070726f76616c20746f2063757272656e74206f776e656044820152603960f91b60648201526084016104f0565b336001600160a01b03821614806105aa57506105aa8133610356565b61061c5760405162461bcd60e51b815260206004820152603860248201527f4552433732313a20617070726f76652063616c6c6572206973206e6f74206f7760448201527f6e6572206e6f7220617070726f76656420666f7220616c6c000000000000000060648201526084016104f0565b6106268383610a89565b505050565b610636335b82610af7565b6106525760405162461bcd60e51b81526004016104f090611a95565b610626838383610be1565b60006106716007546001600160a01b031690565b90506001600160a01b038116331461068857600080fd5b604051339081904780156108fc02916000818181858888f19350505050158015610626573d6000803e3d6000fd5b610626838383604051806020016040528060008152506108cd565b6106da33610630565b61073f5760405162461bcd60e51b815260206004820152603060248201527f4552433732314275726e61626c653a2063616c6c6572206973206e6f74206f7760448201526f1b995c881b9bdc88185c1c1c9bdd995960821b60648201526084016104f0565b61074881610d81565b50565b6000818152600260205260408120546001600160a01b0316806103f05760405162461bcd60e51b815260206004820152602960248201527f4552433732313a206f776e657220717565727920666f72206e6f6e657869737460448201526832b73a103a37b5b2b760b91b60648201526084016104f0565b60006001600160a01b03821661082d5760405162461bcd60e51b815260206004820152602a60248201527f4552433732313a2062616c616e636520717565727920666f7220746865207a65604482015269726f206164647265737360b01b60648201526084016104f0565b506001600160a01b031660009081526003602052604090205490565b6007546001600160a01b031633146108a35760405162461bcd60e51b815260206004820181905260248201527f4f776e61626c653a2063616c6c6572206973206e6f7420746865206f776e657260448201526064016104f0565b6108ad6000610d8a565b565b60606001805461040590611b55565b6108c9338383610ddc565b5050565b6108d73383610af7565b6108f35760405162461bcd60e51b81526004016104f090611a95565b6108ff84848484610eab565b50505050565b60606103f082610ede565b34671bc16d674ec80000146109755760405162461bcd60e51b815260206004820152602560248201527f4f6e6c79203220676c6d7220616c6c6f77656420746f206265207472616e736660448201526432b932b21760d91b60648201526084016104f0565b600061098060085490565b9050610990600880546001019055565b61099a838261104d565b6106268183611067565b6007546001600160a01b031633146109fe5760405162461bcd60e51b815260206004820181905260248201527f4f776e61626c653a2063616c6c6572206973206e6f7420746865206f776e657260448201526064016104f0565b6001600160a01b038116610a635760405162461bcd60e51b815260206004820152602660248201527f4f776e61626c653a206e6577206f776e657220697320746865207a65726f206160448201526564647265737360d01b60648201526084016104f0565b61074881610d8a565b6000908152600260205260409020546001600160a01b0316151590565b600081815260046020526040902080546001600160a01b0319166001600160a01b0384169081179091558190610abe8261074b565b6001600160a01b03167f8c5be1e5ebec7d5bd14f71427d1e84f3dd0314c0f7b2291e5b200ac8c7c3b92560405160405180910390a45050565b6000610b0282610a6c565b610b635760405162461bcd60e51b815260206004820152602c60248201527f4552433732313a206f70657261746f7220717565727920666f72206e6f6e657860448201526b34b9ba32b73a103a37b5b2b760a11b60648201526084016104f0565b6000610b6e8361074b565b9050806001600160a01b0316846001600160a01b03161480610ba95750836001600160a01b0316610b9e84610488565b6001600160a01b0316145b80610bd957506001600160a01b0380821660009081526005602090815260408083209388168352929052205460ff165b949350505050565b826001600160a01b0316610bf48261074b565b6001600160a01b031614610c5c5760405162461bcd60e51b815260206004820152602960248201527f4552433732313a207472616e73666572206f6620746f6b656e2074686174206960448201526839903737ba1037bbb760b91b60648201526084016104f0565b6001600160a01b038216610cbe5760405162461bcd60e51b8152602060048201526024808201527f4552433732313a207472616e7366657220746f20746865207a65726f206164646044820152637265737360e01b60648201526084016104f0565b610cc9600082610a89565b6001600160a01b0383166000908152600360205260408120805460019290610cf2908490611b12565b90915550506001600160a01b0382166000908152600360205260408120805460019290610d20908490611ae6565b909155505060008181526002602052604080822080546001600160a01b0319166001600160a01b0386811691821790925591518493918716917fddf252ad1be2c89b69c2b068fc378daa952ba7f163c4a11628f55a4df523b3ef91a4505050565b610748816110f2565b600780546001600160a01b038381166001600160a01b0319831681179093556040519116919082907f8be0079c531659141344cd1fd0a4f28419497f9722a3daafe3b4186f6b6457e090600090a35050565b816001600160a01b0316836001600160a01b03161415610e3e5760405162461bcd60e51b815260206004820152601960248201527f4552433732313a20617070726f766520746f2063616c6c65720000000000000060448201526064016104f0565b6001600160a01b03838116600081815260056020908152604080832094871680845294825291829020805460ff191686151590811790915591519182527f17307eab39ab6107e8899845ad3d59bd9653f200f220920489ca2b5937696c31910160405180910390a3505050565b610eb6848484610be1565b610ec284848484611132565b6108ff5760405162461bcd60e51b81526004016104f090611a43565b6060610ee982610a6c565b610f4f5760405162461bcd60e51b815260206004820152603160248201527f45524337323155524953746f726167653a2055524920717565727920666f72206044820152703737b732bc34b9ba32b73a103a37b5b2b760791b60648201526084016104f0565b60008281526006602052604081208054610f6890611b55565b80601f0160208091040260200160405190810160405280929190818152602001828054610f9490611b55565b8015610fe15780601f10610fb657610100808354040283529160200191610fe1565b820191906000526020600020905b815481529060010190602001808311610fc457829003601f168201915b505050505090506000610fff60408051602081019091526000815290565b9050805160001415611012575092915050565b81511561104457808260405160200161102c9291906119c4565b60405160208183030381529060405292505050919050565b610bd98461123f565b6108c9828260405180602001604052806000815250611317565b61107082610a6c565b6110d35760405162461bcd60e51b815260206004820152602e60248201527f45524337323155524953746f726167653a2055524920736574206f66206e6f6e60448201526d32bc34b9ba32b73a103a37b5b2b760911b60648201526084016104f0565b6000828152600660209081526040909120825161062692840190611616565b6110fb8161134a565b6000818152600660205260409020805461111490611b55565b1590506107485760008181526006602052604081206107489161169a565b60006001600160a01b0384163b1561123457604051630a85bd0160e11b81526001600160a01b0385169063150b7a02906111769033908990889088906004016119f3565b602060405180830381600087803b15801561119057600080fd5b505af19250505080156111c0575060408051601f3d908101601f191682019092526111bd91810190611962565b60015b61121a573d8080156111ee576040519150601f19603f3d011682016040523d82523d6000602084013e6111f3565b606091505b5080516112125760405162461bcd60e51b81526004016104f090611a43565b805181602001fd5b6001600160e01b031916630a85bd0160e11b149050610bd9565b506001949350505050565b606061124a82610a6c565b6112ae5760405162461bcd60e51b815260206004820152602f60248201527f4552433732314d657461646174613a2055524920717565727920666f72206e6f60448201526e3732bc34b9ba32b73a103a37b5b2b760891b60648201526084016104f0565b60006112c560408051602081019091526000815290565b905060008151116112e55760405180602001604052806000815250611310565b806112ef846113e5565b6040516020016113009291906119c4565b6040516020818303038152906040525b9392505050565b61132183836114e3565b61132e6000848484611132565b6106265760405162461bcd60e51b81526004016104f090611a43565b60006113558261074b565b9050611362600083610a89565b6001600160a01b038116600090815260036020526040812080546001929061138b908490611b12565b909155505060008281526002602052604080822080546001600160a01b0319169055518391906001600160a01b038416907fddf252ad1be2c89b69c2b068fc378daa952ba7f163c4a11628f55a4df523b3ef908390a45050565b6060816114095750506040805180820190915260018152600360fc1b602082015290565b8160005b8115611433578061141d81611b90565b915061142c9050600a83611afe565b915061140d565b60008167ffffffffffffffff81111561144e5761144e611c01565b6040519080825280601f01601f191660200182016040528015611478576020820181803683370190505b5090505b8415610bd95761148d600183611b12565b915061149a600a86611bab565b6114a5906030611ae6565b60f81b8183815181106114ba576114ba611beb565b60200101906001600160f81b031916908160001a9053506114dc600a86611afe565b945061147c565b6001600160a01b0382166115395760405162461bcd60e51b815260206004820181905260248201527f4552433732313a206d696e7420746f20746865207a65726f206164647265737360448201526064016104f0565b61154281610a6c565b1561158f5760405162461bcd60e51b815260206004820152601c60248201527f4552433732313a20746f6b656e20616c7265616479206d696e7465640000000060448201526064016104f0565b6001600160a01b03821660009081526003602052604081208054600192906115b8908490611ae6565b909155505060008181526002602052604080822080546001600160a01b0319166001600160a01b03861690811790915590518392907fddf252ad1be2c89b69c2b068fc378daa952ba7f163c4a11628f55a4df523b3ef908290a45050565b82805461162290611b55565b90600052602060002090601f016020900481019282611644576000855561168a565b82601f1061165d57805160ff191683800117855561168a565b8280016001018555821561168a579182015b8281111561168a57825182559160200191906001019061166f565b506116969291506116d0565b5090565b5080546116a690611b55565b6000825580601f106116b6575050565b601f01602090049060005260206000209081019061074891905b5b8082111561169657600081556001016116d1565b600067ffffffffffffffff8084111561170057611700611c01565b604051601f8501601f19908116603f0116810190828211818310171561172857611728611c01565b8160405280935085815286868601111561174157600080fd5b858560208301376000602087830101525050509392505050565b80356001600160a01b038116811461177257600080fd5b919050565b60006020828403121561178957600080fd5b6113108261175b565b600080604083850312156117a557600080fd5b6117ae8361175b565b91506117bc6020840161175b565b90509250929050565b6000806000606084860312156117da57600080fd5b6117e38461175b565b92506117f16020850161175b565b9150604084013590509250925092565b6000806000806080858703121561181757600080fd5b6118208561175b565b935061182e6020860161175b565b925060408501359150606085013567ffffffffffffffff81111561185157600080fd5b8501601f8101871361186257600080fd5b611871878235602084016116e5565b91505092959194509250565b6000806040838503121561189057600080fd5b6118998361175b565b9150602083013580151581146118ae57600080fd5b809150509250929050565b600080604083850312156118cc57600080fd5b6118d58361175b565b9150602083013567ffffffffffffffff8111156118f157600080fd5b8301601f8101851361190257600080fd5b611911858235602084016116e5565b9150509250929050565b6000806040838503121561192e57600080fd5b6119378361175b565b946020939093013593505050565b60006020828403121561195757600080fd5b813561131081611c17565b60006020828403121561197457600080fd5b815161131081611c17565b60006020828403121561199157600080fd5b5035919050565b600081518084526119b0816020860160208601611b29565b601f01601f19169290920160200192915050565b600083516119d6818460208801611b29565b8351908301906119ea818360208801611b29565b01949350505050565b6001600160a01b0385811682528416602082015260408101839052608060608201819052600090611a2690830184611998565b9695505050505050565b6020815260006113106020830184611998565b60208082526032908201527f4552433732313a207472616e7366657220746f206e6f6e20455243373231526560408201527131b2b4bb32b91034b6b83632b6b2b73a32b960711b606082015260800190565b60208082526031908201527f4552433732313a207472616e736665722063616c6c6572206973206e6f74206f6040820152701ddb995c881b9bdc88185c1c1c9bdd9959607a1b606082015260800190565b60008219821115611af957611af9611bbf565b500190565b600082611b0d57611b0d611bd5565b500490565b600082821015611b2457611b24611bbf565b500390565b60005b83811015611b44578181015183820152602001611b2c565b838111156108ff5750506000910152565b600181811c90821680611b6957607f821691505b60208210811415611b8a57634e487b7160e01b600052602260045260246000fd5b50919050565b6000600019821415611ba457611ba4611bbf565b5060010190565b600082611bba57611bba611bd5565b500690565b634e487b7160e01b600052601160045260246000fd5b634e487b7160e01b600052601260045260246000fd5b634e487b7160e01b600052603260045260246000fd5b634e487b7160e01b600052604160045260246000fd5b6001600160e01b03198116811461074857600080fdfea2646970667358221220644b3dc2024b1fa1cf5b8f6a994204b648d85e179cfde40644c717a12f36502664736f6c63430008070033",
					"opcodes": "PUSH1 0x80 PUSH1 0x40 MSTORE CALLVALUE DUP1 ISZERO PUSH3 0x11 JUMPI PUSH1 0x0 DUP1 REVERT JUMPDEST POP PUSH1 0x40 DUP1 MLOAD DUP1 DUP3 ADD DUP3 MSTORE PUSH1 0x8 DUP2 MSTORE PUSH8 0x4D6F6F6E43617473 PUSH1 0xC0 SHL PUSH1 0x20 DUP1 DUP4 ADD SWAP2 DUP3 MSTORE DUP4 MLOAD DUP1 DUP6 ADD SWAP1 SWAP5 MSTORE PUSH1 0x5 DUP5 MSTORE PUSH5 0x4D43415453 PUSH1 0xD8 SHL SWAP1 DUP5 ADD MSTORE DUP2 MLOAD SWAP2 SWAP3 SWAP2 PUSH3 0x5F SWAP2 PUSH1 0x0 SWAP2 PUSH3 0xEE JUMP JUMPDEST POP DUP1 MLOAD PUSH3 0x75 SWAP1 PUSH1 0x1 SWAP1 PUSH1 0x20 DUP5 ADD SWAP1 PUSH3 0xEE JUMP JUMPDEST POP POP POP PUSH3 0x92 PUSH3 0x8C PUSH3 0x98 PUSH1 0x20 SHL PUSH1 0x20 SHR JUMP JUMPDEST PUSH3 0x9C JUMP JUMPDEST PUSH3 0x1D1 JUMP JUMPDEST CALLER SWAP1 JUMP JUMPDEST PUSH1 0x7 DUP1 SLOAD PUSH1 0x1 PUSH1 0x1 PUSH1 0xA0 SHL SUB DUP4 DUP2 AND PUSH1 0x1 PUSH1 0x1 PUSH1 0xA0 SHL SUB NOT DUP4 AND DUP2 OR SWAP1 SWAP4 SSTORE PUSH1 0x40 MLOAD SWAP2 AND SWAP2 SWAP1 DUP3 SWAP1 PUSH32 0x8BE0079C531659141344CD1FD0A4F28419497F9722A3DAAFE3B4186F6B6457E0 SWAP1 PUSH1 0x0 SWAP1 LOG3 POP POP JUMP JUMPDEST DUP3 DUP1 SLOAD PUSH3 0xFC SWAP1 PUSH3 0x194 JUMP JUMPDEST SWAP1 PUSH1 0x0 MSTORE PUSH1 0x20 PUSH1 0x0 KECCAK256 SWAP1 PUSH1 0x1F ADD PUSH1 0x20 SWAP1 DIV DUP2 ADD SWAP3 DUP3 PUSH3 0x120 JUMPI PUSH1 0x0 DUP6 SSTORE PUSH3 0x16B JUMP JUMPDEST DUP3 PUSH1 0x1F LT PUSH3 0x13B JUMPI DUP1 MLOAD PUSH1 0xFF NOT AND DUP4 DUP1 ADD OR DUP6 SSTORE PUSH3 0x16B JUMP JUMPDEST DUP3 DUP1 ADD PUSH1 0x1 ADD DUP6 SSTORE DUP3 ISZERO PUSH3 0x16B JUMPI SWAP2 DUP3 ADD JUMPDEST DUP3 DUP2 GT ISZERO PUSH3 0x16B JUMPI DUP3 MLOAD DUP3 SSTORE SWAP2 PUSH1 0x20 ADD SWAP2 SWAP1 PUSH1 0x1 ADD SWAP1 PUSH3 0x14E JUMP JUMPDEST POP PUSH3 0x179 SWAP3 SWAP2 POP PUSH3 0x17D JUMP JUMPDEST POP SWAP1 JUMP JUMPDEST JUMPDEST DUP1 DUP3 GT ISZERO PUSH3 0x179 JUMPI PUSH1 0x0 DUP2 SSTORE PUSH1 0x1 ADD PUSH3 0x17E JUMP JUMPDEST PUSH1 0x1 DUP2 DUP2 SHR SWAP1 DUP3 AND DUP1 PUSH3 0x1A9 JUMPI PUSH1 0x7F DUP3 AND SWAP2 POP JUMPDEST PUSH1 0x20 DUP3 LT DUP2 EQ ISZERO PUSH3 0x1CB JUMPI PUSH4 0x4E487B71 PUSH1 0xE0 SHL PUSH1 0x0 MSTORE PUSH1 0x22 PUSH1 0x4 MSTORE PUSH1 0x24 PUSH1 0x0 REVERT JUMPDEST POP SWAP2 SWAP1 POP JUMP JUMPDEST PUSH2 0x1C63 DUP1 PUSH3 0x1E1 PUSH1 0x0 CODECOPY PUSH1 0x0 RETURN INVALID PUSH1 0x80 PUSH1 0x40 MSTORE PUSH1 0x4 CALLDATASIZE LT PUSH2 0x114 JUMPI PUSH1 0x0 CALLDATALOAD PUSH1 0xE0 SHR DUP1 PUSH4 0x70A08231 GT PUSH2 0xA0 JUMPI DUP1 PUSH4 0xB88D4FDE GT PUSH2 0x64 JUMPI DUP1 PUSH4 0xB88D4FDE EQ PUSH2 0x2E8 JUMPI DUP1 PUSH4 0xC87B56DD EQ PUSH2 0x308 JUMPI DUP1 PUSH4 0xD204C45E EQ PUSH2 0x328 JUMPI DUP1 PUSH4 0xE985E9C5 EQ PUSH2 0x33B JUMPI DUP1 PUSH4 0xF2FDE38B EQ PUSH2 0x384 JUMPI PUSH1 0x0 DUP1 REVERT JUMPDEST DUP1 PUSH4 0x70A08231 EQ PUSH2 0x252 JUMPI DUP1 PUSH4 0x715018A6 EQ PUSH2 0x280 JUMPI DUP1 PUSH4 0x8DA5CB5B EQ PUSH2 0x295 JUMPI DUP1 PUSH4 0x95D89B41 EQ PUSH2 0x2B3 JUMPI DUP1 PUSH4 0xA22CB465 EQ PUSH2 0x2C8 JUMPI PUSH1 0x0 DUP1 REVERT JUMPDEST DUP1 PUSH4 0x23B872DD GT PUSH2 0xE7 JUMPI DUP1 PUSH4 0x23B872DD EQ PUSH2 0x1CA JUMPI DUP1 PUSH4 0x3CCFD60B EQ PUSH2 0x1EA JUMPI DUP1 PUSH4 0x42842E0E EQ PUSH2 0x1F2 JUMPI DUP1 PUSH4 0x42966C68 EQ PUSH2 0x212 JUMPI DUP1 PUSH4 0x6352211E EQ PUSH2 0x232 JUMPI PUSH1 0x0 DUP1 REVERT JUMPDEST DUP1 PUSH4 0x1FFC9A7 EQ PUSH2 0x119 JUMPI DUP1 PUSH4 0x6FDDE03 EQ PUSH2 0x14E JUMPI DUP1 PUSH4 0x81812FC EQ PUSH2 0x170 JUMPI DUP1 PUSH4 0x95EA7B3 EQ PUSH2 0x1A8 JUMPI JUMPDEST PUSH1 0x0 DUP1 REVERT JUMPDEST CALLVALUE DUP1 ISZERO PUSH2 0x125 JUMPI PUSH1 0x0 DUP1 REVERT JUMPDEST POP PUSH2 0x139 PUSH2 0x134 CALLDATASIZE PUSH1 0x4 PUSH2 0x1945 JUMP JUMPDEST PUSH2 0x3A4 JUMP JUMPDEST PUSH1 0x40 MLOAD SWAP1 ISZERO ISZERO DUP2 MSTORE PUSH1 0x20 ADD JUMPDEST PUSH1 0x40 MLOAD DUP1 SWAP2 SUB SWAP1 RETURN JUMPDEST CALLVALUE DUP1 ISZERO PUSH2 0x15A JUMPI PUSH1 0x0 DUP1 REVERT JUMPDEST POP PUSH2 0x163 PUSH2 0x3F6 JUMP JUMPDEST PUSH1 0x40 MLOAD PUSH2 0x145 SWAP2 SWAP1 PUSH2 0x1A30 JUMP JUMPDEST CALLVALUE DUP1 ISZERO PUSH2 0x17C JUMPI PUSH1 0x0 DUP1 REVERT JUMPDEST POP PUSH2 0x190 PUSH2 0x18B CALLDATASIZE PUSH1 0x4 PUSH2 0x197F JUMP JUMPDEST PUSH2 0x488 JUMP JUMPDEST PUSH1 0x40 MLOAD PUSH1 0x1 PUSH1 0x1 PUSH1 0xA0 SHL SUB SWAP1 SWAP2 AND DUP2 MSTORE PUSH1 0x20 ADD PUSH2 0x145 JUMP JUMPDEST CALLVALUE DUP1 ISZERO PUSH2 0x1B4 JUMPI PUSH1 0x0 DUP1 REVERT JUMPDEST POP PUSH2 0x1C8 PUSH2 0x1C3 CALLDATASIZE PUSH1 0x4 PUSH2 0x191B JUMP JUMPDEST PUSH2 0x515 JUMP JUMPDEST STOP JUMPDEST CALLVALUE DUP1 ISZERO PUSH2 0x1D6 JUMPI PUSH1 0x0 DUP1 REVERT JUMPDEST POP PUSH2 0x1C8 PUSH2 0x1E5 CALLDATASIZE PUSH1 0x4 PUSH2 0x17C5 JUMP JUMPDEST PUSH2 0x62B JUMP JUMPDEST PUSH2 0x1C8 PUSH2 0x65D JUMP JUMPDEST CALLVALUE DUP1 ISZERO PUSH2 0x1FE JUMPI PUSH1 0x0 DUP1 REVERT JUMPDEST POP PUSH2 0x1C8 PUSH2 0x20D CALLDATASIZE PUSH1 0x4 PUSH2 0x17C5 JUMP JUMPDEST PUSH2 0x6B6 JUMP JUMPDEST CALLVALUE DUP1 ISZERO PUSH2 0x21E JUMPI PUSH1 0x0 DUP1 REVERT JUMPDEST POP PUSH2 0x1C8 PUSH2 0x22D CALLDATASIZE PUSH1 0x4 PUSH2 0x197F JUMP JUMPDEST PUSH2 0x6D1 JUMP JUMPDEST CALLVALUE DUP1 ISZERO PUSH2 0x23E JUMPI PUSH1 0x0 DUP1 REVERT JUMPDEST POP PUSH2 0x190 PUSH2 0x24D CALLDATASIZE PUSH1 0x4 PUSH2 0x197F JUMP JUMPDEST PUSH2 0x74B JUMP JUMPDEST CALLVALUE DUP1 ISZERO PUSH2 0x25E JUMPI PUSH1 0x0 DUP1 REVERT JUMPDEST POP PUSH2 0x272 PUSH2 0x26D CALLDATASIZE PUSH1 0x4 PUSH2 0x1777 JUMP JUMPDEST PUSH2 0x7C2 JUMP JUMPDEST PUSH1 0x40 MLOAD SWAP1 DUP2 MSTORE PUSH1 0x20 ADD PUSH2 0x145 JUMP JUMPDEST CALLVALUE DUP1 ISZERO PUSH2 0x28C JUMPI PUSH1 0x0 DUP1 REVERT JUMPDEST POP PUSH2 0x1C8 PUSH2 0x849 JUMP JUMPDEST CALLVALUE DUP1 ISZERO PUSH2 0x2A1 JUMPI PUSH1 0x0 DUP1 REVERT JUMPDEST POP PUSH1 0x7 SLOAD PUSH1 0x1 PUSH1 0x1 PUSH1 0xA0 SHL SUB AND PUSH2 0x190 JUMP JUMPDEST CALLVALUE DUP1 ISZERO PUSH2 0x2BF JUMPI PUSH1 0x0 DUP1 REVERT JUMPDEST POP PUSH2 0x163 PUSH2 0x8AF JUMP JUMPDEST CALLVALUE DUP1 ISZERO PUSH2 0x2D4 JUMPI PUSH1 0x0 DUP1 REVERT JUMPDEST POP PUSH2 0x1C8 PUSH2 0x2E3 CALLDATASIZE PUSH1 0x4 PUSH2 0x187D JUMP JUMPDEST PUSH2 0x8BE JUMP JUMPDEST CALLVALUE DUP1 ISZERO PUSH2 0x2F4 JUMPI PUSH1 0x0 DUP1 REVERT JUMPDEST POP PUSH2 0x1C8 PUSH2 0x303 CALLDATASIZE PUSH1 0x4 PUSH2 0x1801 JUMP JUMPDEST PUSH2 0x8CD JUMP JUMPDEST CALLVALUE DUP1 ISZERO PUSH2 0x314 JUMPI PUSH1 0x0 DUP1 REVERT JUMPDEST POP PUSH2 0x163 PUSH2 0x323 CALLDATASIZE PUSH1 0x4 PUSH2 0x197F JUMP JUMPDEST PUSH2 0x905 JUMP JUMPDEST PUSH2 0x1C8 PUSH2 0x336 CALLDATASIZE PUSH1 0x4 PUSH2 0x18B9 JUMP JUMPDEST PUSH2 0x910 JUMP JUMPDEST CALLVALUE DUP1 ISZERO PUSH2 0x347 JUMPI PUSH1 0x0 DUP1 REVERT JUMPDEST POP PUSH2 0x139 PUSH2 0x356 CALLDATASIZE PUSH1 0x4 PUSH2 0x1792 JUMP JUMPDEST PUSH1 0x1 PUSH1 0x1 PUSH1 0xA0 SHL SUB SWAP2 DUP3 AND PUSH1 0x0 SWAP1 DUP2 MSTORE PUSH1 0x5 PUSH1 0x20 SWAP1 DUP2 MSTORE PUSH1 0x40 DUP1 DUP4 KECCAK256 SWAP4 SWAP1 SWAP5 AND DUP3 MSTORE SWAP2 SWAP1 SWAP2 MSTORE KECCAK256 SLOAD PUSH1 0xFF AND SWAP1 JUMP JUMPDEST CALLVALUE DUP1 ISZERO PUSH2 0x390 JUMPI PUSH1 0x0 DUP1 REVERT JUMPDEST POP PUSH2 0x1C8 PUSH2 0x39F CALLDATASIZE PUSH1 0x4 PUSH2 0x1777 JUMP JUMPDEST PUSH2 0x9A4 JUMP JUMPDEST PUSH1 0x0 PUSH1 0x1 PUSH1 0x1 PUSH1 0xE0 SHL SUB NOT DUP3 AND PUSH4 0x80AC58CD PUSH1 0xE0 SHL EQ DUP1 PUSH2 0x3D5 JUMPI POP PUSH1 0x1 PUSH1 0x1 PUSH1 0xE0 SHL SUB NOT DUP3 AND PUSH4 0x5B5E139F PUSH1 0xE0 SHL EQ JUMPDEST DUP1 PUSH2 0x3F0 JUMPI POP PUSH4 0x1FFC9A7 PUSH1 0xE0 SHL PUSH1 0x1 PUSH1 0x1 PUSH1 0xE0 SHL SUB NOT DUP4 AND EQ JUMPDEST SWAP3 SWAP2 POP POP JUMP JUMPDEST PUSH1 0x60 PUSH1 0x0 DUP1 SLOAD PUSH2 0x405 SWAP1 PUSH2 0x1B55 JUMP JUMPDEST DUP1 PUSH1 0x1F ADD PUSH1 0x20 DUP1 SWAP2 DIV MUL PUSH1 0x20 ADD PUSH1 0x40 MLOAD SWAP1 DUP2 ADD PUSH1 0x40 MSTORE DUP1 SWAP3 SWAP2 SWAP1 DUP2 DUP2 MSTORE PUSH1 0x20 ADD DUP3 DUP1 SLOAD PUSH2 0x431 SWAP1 PUSH2 0x1B55 JUMP JUMPDEST DUP1 ISZERO PUSH2 0x47E JUMPI DUP1 PUSH1 0x1F LT PUSH2 0x453 JUMPI PUSH2 0x100 DUP1 DUP4 SLOAD DIV MUL DUP4 MSTORE SWAP2 PUSH1 0x20 ADD SWAP2 PUSH2 0x47E JUMP JUMPDEST DUP3 ADD SWAP2 SWAP1 PUSH1 0x0 MSTORE PUSH1 0x20 PUSH1 0x0 KECCAK256 SWAP1 JUMPDEST DUP2 SLOAD DUP2 MSTORE SWAP1 PUSH1 0x1 ADD SWAP1 PUSH1 0x20 ADD DUP1 DUP4 GT PUSH2 0x461 JUMPI DUP3 SWAP1 SUB PUSH1 0x1F AND DUP3 ADD SWAP2 JUMPDEST POP POP POP POP POP SWAP1 POP SWAP1 JUMP JUMPDEST PUSH1 0x0 PUSH2 0x493 DUP3 PUSH2 0xA6C JUMP JUMPDEST PUSH2 0x4F9 JUMPI PUSH1 0x40 MLOAD PUSH3 0x461BCD PUSH1 0xE5 SHL DUP2 MSTORE PUSH1 0x20 PUSH1 0x4 DUP3 ADD MSTORE PUSH1 0x2C PUSH1 0x24 DUP3 ADD MSTORE PUSH32 0x4552433732313A20617070726F76656420717565727920666F72206E6F6E6578 PUSH1 0x44 DUP3 ADD MSTORE PUSH12 0x34B9BA32B73A103A37B5B2B7 PUSH1 0xA1 SHL PUSH1 0x64 DUP3 ADD MSTORE PUSH1 0x84 ADD JUMPDEST PUSH1 0x40 MLOAD DUP1 SWAP2 SUB SWAP1 REVERT JUMPDEST POP PUSH1 0x0 SWAP1 DUP2 MSTORE PUSH1 0x4 PUSH1 0x20 MSTORE PUSH1 0x40 SWAP1 KECCAK256 SLOAD PUSH1 0x1 PUSH1 0x1 PUSH1 0xA0 SHL SUB AND SWAP1 JUMP JUMPDEST PUSH1 0x0 PUSH2 0x520 DUP3 PUSH2 0x74B JUMP JUMPDEST SWAP1 POP DUP1 PUSH1 0x1 PUSH1 0x1 PUSH1 0xA0 SHL SUB AND DUP4 PUSH1 0x1 PUSH1 0x1 PUSH1 0xA0 SHL SUB AND EQ ISZERO PUSH2 0x58E JUMPI PUSH1 0x40 MLOAD PUSH3 0x461BCD PUSH1 0xE5 SHL DUP2 MSTORE PUSH1 0x20 PUSH1 0x4 DUP3 ADD MSTORE PUSH1 0x21 PUSH1 0x24 DUP3 ADD MSTORE PUSH32 0x4552433732313A20617070726F76616C20746F2063757272656E74206F776E65 PUSH1 0x44 DUP3 ADD MSTORE PUSH1 0x39 PUSH1 0xF9 SHL PUSH1 0x64 DUP3 ADD MSTORE PUSH1 0x84 ADD PUSH2 0x4F0 JUMP JUMPDEST CALLER PUSH1 0x1 PUSH1 0x1 PUSH1 0xA0 SHL SUB DUP3 AND EQ DUP1 PUSH2 0x5AA JUMPI POP PUSH2 0x5AA DUP2 CALLER PUSH2 0x356 JUMP JUMPDEST PUSH2 0x61C JUMPI PUSH1 0x40 MLOAD PUSH3 0x461BCD PUSH1 0xE5 SHL DUP2 MSTORE PUSH1 0x20 PUSH1 0x4 DUP3 ADD MSTORE PUSH1 0x38 PUSH1 0x24 DUP3 ADD MSTORE PUSH32 0x4552433732313A20617070726F76652063616C6C6572206973206E6F74206F77 PUSH1 0x44 DUP3 ADD MSTORE PUSH32 0x6E6572206E6F7220617070726F76656420666F7220616C6C0000000000000000 PUSH1 0x64 DUP3 ADD MSTORE PUSH1 0x84 ADD PUSH2 0x4F0 JUMP JUMPDEST PUSH2 0x626 DUP4 DUP4 PUSH2 0xA89 JUMP JUMPDEST POP POP POP JUMP JUMPDEST PUSH2 0x636 CALLER JUMPDEST DUP3 PUSH2 0xAF7 JUMP JUMPDEST PUSH2 0x652 JUMPI PUSH1 0x40 MLOAD PUSH3 0x461BCD PUSH1 0xE5 SHL DUP2 MSTORE PUSH1 0x4 ADD PUSH2 0x4F0 SWAP1 PUSH2 0x1A95 JUMP JUMPDEST PUSH2 0x626 DUP4 DUP4 DUP4 PUSH2 0xBE1 JUMP JUMPDEST PUSH1 0x0 PUSH2 0x671 PUSH1 0x7 SLOAD PUSH1 0x1 PUSH1 0x1 PUSH1 0xA0 SHL SUB AND SWAP1 JUMP JUMPDEST SWAP1 POP PUSH1 0x1 PUSH1 0x1 PUSH1 0xA0 SHL SUB DUP2 AND CALLER EQ PUSH2 0x688 JUMPI PUSH1 0x0 DUP1 REVERT JUMPDEST PUSH1 0x40 MLOAD CALLER SWAP1 DUP2 SWAP1 SELFBALANCE DUP1 ISZERO PUSH2 0x8FC MUL SWAP2 PUSH1 0x0 DUP2 DUP2 DUP2 DUP6 DUP9 DUP9 CALL SWAP4 POP POP POP POP ISZERO DUP1 ISZERO PUSH2 0x626 JUMPI RETURNDATASIZE PUSH1 0x0 DUP1 RETURNDATACOPY RETURNDATASIZE PUSH1 0x0 REVERT JUMPDEST PUSH2 0x626 DUP4 DUP4 DUP4 PUSH1 0x40 MLOAD DUP1 PUSH1 0x20 ADD PUSH1 0x40 MSTORE DUP1 PUSH1 0x0 DUP2 MSTORE POP PUSH2 0x8CD JUMP JUMPDEST PUSH2 0x6DA CALLER PUSH2 0x630 JUMP JUMPDEST PUSH2 0x73F JUMPI PUSH1 0x40 MLOAD PUSH3 0x461BCD PUSH1 0xE5 SHL DUP2 MSTORE PUSH1 0x20 PUSH1 0x4 DUP3 ADD MSTORE PUSH1 0x30 PUSH1 0x24 DUP3 ADD MSTORE PUSH32 0x4552433732314275726E61626C653A2063616C6C6572206973206E6F74206F77 PUSH1 0x44 DUP3 ADD MSTORE PUSH16 0x1B995C881B9BDC88185C1C1C9BDD9959 PUSH1 0x82 SHL PUSH1 0x64 DUP3 ADD MSTORE PUSH1 0x84 ADD PUSH2 0x4F0 JUMP JUMPDEST PUSH2 0x748 DUP2 PUSH2 0xD81 JUMP JUMPDEST POP JUMP JUMPDEST PUSH1 0x0 DUP2 DUP2 MSTORE PUSH1 0x2 PUSH1 0x20 MSTORE PUSH1 0x40 DUP2 KECCAK256 SLOAD PUSH1 0x1 PUSH1 0x1 PUSH1 0xA0 SHL SUB AND DUP1 PUSH2 0x3F0 JUMPI PUSH1 0x40 MLOAD PUSH3 0x461BCD PUSH1 0xE5 SHL DUP2 MSTORE PUSH1 0x20 PUSH1 0x4 DUP3 ADD MSTORE PUSH1 0x29 PUSH1 0x24 DUP3 ADD MSTORE PUSH32 0x4552433732313A206F776E657220717565727920666F72206E6F6E6578697374 PUSH1 0x44 DUP3 ADD MSTORE PUSH9 0x32B73A103A37B5B2B7 PUSH1 0xB9 SHL PUSH1 0x64 DUP3 ADD MSTORE PUSH1 0x84 ADD PUSH2 0x4F0 JUMP JUMPDEST PUSH1 0x0 PUSH1 0x1 PUSH1 0x1 PUSH1 0xA0 SHL SUB DUP3 AND PUSH2 0x82D JUMPI PUSH1 0x40 MLOAD PUSH3 0x461BCD PUSH1 0xE5 SHL DUP2 MSTORE PUSH1 0x20 PUSH1 0x4 DUP3 ADD MSTORE PUSH1 0x2A PUSH1 0x24 DUP3 ADD MSTORE PUSH32 0x4552433732313A2062616C616E636520717565727920666F7220746865207A65 PUSH1 0x44 DUP3 ADD MSTORE PUSH10 0x726F2061646472657373 PUSH1 0xB0 SHL PUSH1 0x64 DUP3 ADD MSTORE PUSH1 0x84 ADD PUSH2 0x4F0 JUMP JUMPDEST POP PUSH1 0x1 PUSH1 0x1 PUSH1 0xA0 SHL SUB AND PUSH1 0x0 SWAP1 DUP2 MSTORE PUSH1 0x3 PUSH1 0x20 MSTORE PUSH1 0x40 SWAP1 KECCAK256 SLOAD SWAP1 JUMP JUMPDEST PUSH1 0x7 SLOAD PUSH1 0x1 PUSH1 0x1 PUSH1 0xA0 SHL SUB AND CALLER EQ PUSH2 0x8A3 JUMPI PUSH1 0x40 MLOAD PUSH3 0x461BCD PUSH1 0xE5 SHL DUP2 MSTORE PUSH1 0x20 PUSH1 0x4 DUP3 ADD DUP2 SWAP1 MSTORE PUSH1 0x24 DUP3 ADD MSTORE PUSH32 0x4F776E61626C653A2063616C6C6572206973206E6F7420746865206F776E6572 PUSH1 0x44 DUP3 ADD MSTORE PUSH1 0x64 ADD PUSH2 0x4F0 JUMP JUMPDEST PUSH2 0x8AD PUSH1 0x0 PUSH2 0xD8A JUMP JUMPDEST JUMP JUMPDEST PUSH1 0x60 PUSH1 0x1 DUP1 SLOAD PUSH2 0x405 SWAP1 PUSH2 0x1B55 JUMP JUMPDEST PUSH2 0x8C9 CALLER DUP4 DUP4 PUSH2 0xDDC JUMP JUMPDEST POP POP JUMP JUMPDEST PUSH2 0x8D7 CALLER DUP4 PUSH2 0xAF7 JUMP JUMPDEST PUSH2 0x8F3 JUMPI PUSH1 0x40 MLOAD PUSH3 0x461BCD PUSH1 0xE5 SHL DUP2 MSTORE PUSH1 0x4 ADD PUSH2 0x4F0 SWAP1 PUSH2 0x1A95 JUMP JUMPDEST PUSH2 0x8FF DUP5 DUP5 DUP5 DUP5 PUSH2 0xEAB JUMP JUMPDEST POP POP POP POP JUMP JUMPDEST PUSH1 0x60 PUSH2 0x3F0 DUP3 PUSH2 0xEDE JUMP JUMPDEST CALLVALUE PUSH8 0x1BC16D674EC80000 EQ PUSH2 0x975 JUMPI PUSH1 0x40 MLOAD PUSH3 0x461BCD PUSH1 0xE5 SHL DUP2 MSTORE PUSH1 0x20 PUSH1 0x4 DUP3 ADD MSTORE PUSH1 0x25 PUSH1 0x24 DUP3 ADD MSTORE PUSH32 0x4F6E6C79203220676C6D7220616C6C6F77656420746F206265207472616E7366 PUSH1 0x44 DUP3 ADD MSTORE PUSH5 0x32B932B217 PUSH1 0xD9 SHL PUSH1 0x64 DUP3 ADD MSTORE PUSH1 0x84 ADD PUSH2 0x4F0 JUMP JUMPDEST PUSH1 0x0 PUSH2 0x980 PUSH1 0x8 SLOAD SWAP1 JUMP JUMPDEST SWAP1 POP PUSH2 0x990 PUSH1 0x8 DUP1 SLOAD PUSH1 0x1 ADD SWAP1 SSTORE JUMP JUMPDEST PUSH2 0x99A DUP4 DUP3 PUSH2 0x104D JUMP JUMPDEST PUSH2 0x626 DUP2 DUP4 PUSH2 0x1067 JUMP JUMPDEST PUSH1 0x7 SLOAD PUSH1 0x1 PUSH1 0x1 PUSH1 0xA0 SHL SUB AND CALLER EQ PUSH2 0x9FE JUMPI PUSH1 0x40 MLOAD PUSH3 0x461BCD PUSH1 0xE5 SHL DUP2 MSTORE PUSH1 0x20 PUSH1 0x4 DUP3 ADD DUP2 SWAP1 MSTORE PUSH1 0x24 DUP3 ADD MSTORE PUSH32 0x4F776E61626C653A2063616C6C6572206973206E6F7420746865206F776E6572 PUSH1 0x44 DUP3 ADD MSTORE PUSH1 0x64 ADD PUSH2 0x4F0 JUMP JUMPDEST PUSH1 0x1 PUSH1 0x1 PUSH1 0xA0 SHL SUB DUP2 AND PUSH2 0xA63 JUMPI PUSH1 0x40 MLOAD PUSH3 0x461BCD PUSH1 0xE5 SHL DUP2 MSTORE PUSH1 0x20 PUSH1 0x4 DUP3 ADD MSTORE PUSH1 0x26 PUSH1 0x24 DUP3 ADD MSTORE PUSH32 0x4F776E61626C653A206E6577206F776E657220697320746865207A65726F2061 PUSH1 0x44 DUP3 ADD MSTORE PUSH6 0x646472657373 PUSH1 0xD0 SHL PUSH1 0x64 DUP3 ADD MSTORE PUSH1 0x84 ADD PUSH2 0x4F0 JUMP JUMPDEST PUSH2 0x748 DUP2 PUSH2 0xD8A JUMP JUMPDEST PUSH1 0x0 SWAP1 DUP2 MSTORE PUSH1 0x2 PUSH1 0x20 MSTORE PUSH1 0x40 SWAP1 KECCAK256 SLOAD PUSH1 0x1 PUSH1 0x1 PUSH1 0xA0 SHL SUB AND ISZERO ISZERO SWAP1 JUMP JUMPDEST PUSH1 0x0 DUP2 DUP2 MSTORE PUSH1 0x4 PUSH1 0x20 MSTORE PUSH1 0x40 SWAP1 KECCAK256 DUP1 SLOAD PUSH1 0x1 PUSH1 0x1 PUSH1 0xA0 SHL SUB NOT AND PUSH1 0x1 PUSH1 0x1 PUSH1 0xA0 SHL SUB DUP5 AND SWAP1 DUP2 OR SWAP1 SWAP2 SSTORE DUP2 SWAP1 PUSH2 0xABE DUP3 PUSH2 0x74B JUMP JUMPDEST PUSH1 0x1 PUSH1 0x1 PUSH1 0xA0 SHL SUB AND PUSH32 0x8C5BE1E5EBEC7D5BD14F71427D1E84F3DD0314C0F7B2291E5B200AC8C7C3B925 PUSH1 0x40 MLOAD PUSH1 0x40 MLOAD DUP1 SWAP2 SUB SWAP1 LOG4 POP POP JUMP JUMPDEST PUSH1 0x0 PUSH2 0xB02 DUP3 PUSH2 0xA6C JUMP JUMPDEST PUSH2 0xB63 JUMPI PUSH1 0x40 MLOAD PUSH3 0x461BCD PUSH1 0xE5 SHL DUP2 MSTORE PUSH1 0x20 PUSH1 0x4 DUP3 ADD MSTORE PUSH1 0x2C PUSH1 0x24 DUP3 ADD MSTORE PUSH32 0x4552433732313A206F70657261746F7220717565727920666F72206E6F6E6578 PUSH1 0x44 DUP3 ADD MSTORE PUSH12 0x34B9BA32B73A103A37B5B2B7 PUSH1 0xA1 SHL PUSH1 0x64 DUP3 ADD MSTORE PUSH1 0x84 ADD PUSH2 0x4F0 JUMP JUMPDEST PUSH1 0x0 PUSH2 0xB6E DUP4 PUSH2 0x74B JUMP JUMPDEST SWAP1 POP DUP1 PUSH1 0x1 PUSH1 0x1 PUSH1 0xA0 SHL SUB AND DUP5 PUSH1 0x1 PUSH1 0x1 PUSH1 0xA0 SHL SUB AND EQ DUP1 PUSH2 0xBA9 JUMPI POP DUP4 PUSH1 0x1 PUSH1 0x1 PUSH1 0xA0 SHL SUB AND PUSH2 0xB9E DUP5 PUSH2 0x488 JUMP JUMPDEST PUSH1 0x1 PUSH1 0x1 PUSH1 0xA0 SHL SUB AND EQ JUMPDEST DUP1 PUSH2 0xBD9 JUMPI POP PUSH1 0x1 PUSH1 0x1 PUSH1 0xA0 SHL SUB DUP1 DUP3 AND PUSH1 0x0 SWAP1 DUP2 MSTORE PUSH1 0x5 PUSH1 0x20 SWAP1 DUP2 MSTORE PUSH1 0x40 DUP1 DUP4 KECCAK256 SWAP4 DUP9 AND DUP4 MSTORE SWAP3 SWAP1 MSTORE KECCAK256 SLOAD PUSH1 0xFF AND JUMPDEST SWAP5 SWAP4 POP POP POP POP JUMP JUMPDEST DUP3 PUSH1 0x1 PUSH1 0x1 PUSH1 0xA0 SHL SUB AND PUSH2 0xBF4 DUP3 PUSH2 0x74B JUMP JUMPDEST PUSH1 0x1 PUSH1 0x1 PUSH1 0xA0 SHL SUB AND EQ PUSH2 0xC5C JUMPI PUSH1 0x40 MLOAD PUSH3 0x461BCD PUSH1 0xE5 SHL DUP2 MSTORE PUSH1 0x20 PUSH1 0x4 DUP3 ADD MSTORE PUSH1 0x29 PUSH1 0x24 DUP3 ADD MSTORE PUSH32 0x4552433732313A207472616E73666572206F6620746F6B656E20746861742069 PUSH1 0x44 DUP3 ADD MSTORE PUSH9 0x39903737BA1037BBB7 PUSH1 0xB9 SHL PUSH1 0x64 DUP3 ADD MSTORE PUSH1 0x84 ADD PUSH2 0x4F0 JUMP JUMPDEST PUSH1 0x1 PUSH1 0x1 PUSH1 0xA0 SHL SUB DUP3 AND PUSH2 0xCBE JUMPI PUSH1 0x40 MLOAD PUSH3 0x461BCD PUSH1 0xE5 SHL DUP2 MSTORE PUSH1 0x20 PUSH1 0x4 DUP3 ADD MSTORE PUSH1 0x24 DUP1 DUP3 ADD MSTORE PUSH32 0x4552433732313A207472616E7366657220746F20746865207A65726F20616464 PUSH1 0x44 DUP3 ADD MSTORE PUSH4 0x72657373 PUSH1 0xE0 SHL PUSH1 0x64 DUP3 ADD MSTORE PUSH1 0x84 ADD PUSH2 0x4F0 JUMP JUMPDEST PUSH2 0xCC9 PUSH1 0x0 DUP3 PUSH2 0xA89 JUMP JUMPDEST PUSH1 0x1 PUSH1 0x1 PUSH1 0xA0 SHL SUB DUP4 AND PUSH1 0x0 SWAP1 DUP2 MSTORE PUSH1 0x3 PUSH1 0x20 MSTORE PUSH1 0x40 DUP2 KECCAK256 DUP1 SLOAD PUSH1 0x1 SWAP3 SWAP1 PUSH2 0xCF2 SWAP1 DUP5 SWAP1 PUSH2 0x1B12 JUMP JUMPDEST SWAP1 SWAP2 SSTORE POP POP PUSH1 0x1 PUSH1 0x1 PUSH1 0xA0 SHL SUB DUP3 AND PUSH1 0x0 SWAP1 DUP2 MSTORE PUSH1 0x3 PUSH1 0x20 MSTORE PUSH1 0x40 DUP2 KECCAK256 DUP1 SLOAD PUSH1 0x1 SWAP3 SWAP1 PUSH2 0xD20 SWAP1 DUP5 SWAP1 PUSH2 0x1AE6 JUMP JUMPDEST SWAP1 SWAP2 SSTORE POP POP PUSH1 0x0 DUP2 DUP2 MSTORE PUSH1 0x2 PUSH1 0x20 MSTORE PUSH1 0x40 DUP1 DUP3 KECCAK256 DUP1 SLOAD PUSH1 0x1 PUSH1 0x1 PUSH1 0xA0 SHL SUB NOT AND PUSH1 0x1 PUSH1 0x1 PUSH1 0xA0 SHL SUB DUP7 DUP2 AND SWAP2 DUP3 OR SWAP1 SWAP3 SSTORE SWAP2 MLOAD DUP5 SWAP4 SWAP2 DUP8 AND SWAP2 PUSH32 0xDDF252AD1BE2C89B69C2B068FC378DAA952BA7F163C4A11628F55A4DF523B3EF SWAP2 LOG4 POP POP POP JUMP JUMPDEST PUSH2 0x748 DUP2 PUSH2 0x10F2 JUMP JUMPDEST PUSH1 0x7 DUP1 SLOAD PUSH1 0x1 PUSH1 0x1 PUSH1 0xA0 SHL SUB DUP4 DUP2 AND PUSH1 0x1 PUSH1 0x1 PUSH1 0xA0 SHL SUB NOT DUP4 AND DUP2 OR SWAP1 SWAP4 SSTORE PUSH1 0x40 MLOAD SWAP2 AND SWAP2 SWAP1 DUP3 SWAP1 PUSH32 0x8BE0079C531659141344CD1FD0A4F28419497F9722A3DAAFE3B4186F6B6457E0 SWAP1 PUSH1 0x0 SWAP1 LOG3 POP POP JUMP JUMPDEST DUP2 PUSH1 0x1 PUSH1 0x1 PUSH1 0xA0 SHL SUB AND DUP4 PUSH1 0x1 PUSH1 0x1 PUSH1 0xA0 SHL SUB AND EQ ISZERO PUSH2 0xE3E JUMPI PUSH1 0x40 MLOAD PUSH3 0x461BCD PUSH1 0xE5 SHL DUP2 MSTORE PUSH1 0x20 PUSH1 0x4 DUP3 ADD MSTORE PUSH1 0x19 PUSH1 0x24 DUP3 ADD MSTORE PUSH32 0x4552433732313A20617070726F766520746F2063616C6C657200000000000000 PUSH1 0x44 DUP3 ADD MSTORE PUSH1 0x64 ADD PUSH2 0x4F0 JUMP JUMPDEST PUSH1 0x1 PUSH1 0x1 PUSH1 0xA0 SHL SUB DUP4 DUP2 AND PUSH1 0x0 DUP2 DUP2 MSTORE PUSH1 0x5 PUSH1 0x20 SWAP1 DUP2 MSTORE PUSH1 0x40 DUP1 DUP4 KECCAK256 SWAP5 DUP8 AND DUP1 DUP5 MSTORE SWAP5 DUP3 MSTORE SWAP2 DUP3 SWAP1 KECCAK256 DUP1 SLOAD PUSH1 0xFF NOT AND DUP7 ISZERO ISZERO SWAP1 DUP2 OR SWAP1 SWAP2 SSTORE SWAP2 MLOAD SWAP2 DUP3 MSTORE PUSH32 0x17307EAB39AB6107E8899845AD3D59BD9653F200F220920489CA2B5937696C31 SWAP2 ADD PUSH1 0x40 MLOAD DUP1 SWAP2 SUB SWAP1 LOG3 POP POP POP JUMP JUMPDEST PUSH2 0xEB6 DUP5 DUP5 DUP5 PUSH2 0xBE1 JUMP JUMPDEST PUSH2 0xEC2 DUP5 DUP5 DUP5 DUP5 PUSH2 0x1132 JUMP JUMPDEST PUSH2 0x8FF JUMPI PUSH1 0x40 MLOAD PUSH3 0x461BCD PUSH1 0xE5 SHL DUP2 MSTORE PUSH1 0x4 ADD PUSH2 0x4F0 SWAP1 PUSH2 0x1A43 JUMP JUMPDEST PUSH1 0x60 PUSH2 0xEE9 DUP3 PUSH2 0xA6C JUMP JUMPDEST PUSH2 0xF4F JUMPI PUSH1 0x40 MLOAD PUSH3 0x461BCD PUSH1 0xE5 SHL DUP2 MSTORE PUSH1 0x20 PUSH1 0x4 DUP3 ADD MSTORE PUSH1 0x31 PUSH1 0x24 DUP3 ADD MSTORE PUSH32 0x45524337323155524953746F726167653A2055524920717565727920666F7220 PUSH1 0x44 DUP3 ADD MSTORE PUSH17 0x3737B732BC34B9BA32B73A103A37B5B2B7 PUSH1 0x79 SHL PUSH1 0x64 DUP3 ADD MSTORE PUSH1 0x84 ADD PUSH2 0x4F0 JUMP JUMPDEST PUSH1 0x0 DUP3 DUP2 MSTORE PUSH1 0x6 PUSH1 0x20 MSTORE PUSH1 0x40 DUP2 KECCAK256 DUP1 SLOAD PUSH2 0xF68 SWAP1 PUSH2 0x1B55 JUMP JUMPDEST DUP1 PUSH1 0x1F ADD PUSH1 0x20 DUP1 SWAP2 DIV MUL PUSH1 0x20 ADD PUSH1 0x40 MLOAD SWAP1 DUP2 ADD PUSH1 0x40 MSTORE DUP1 SWAP3 SWAP2 SWAP1 DUP2 DUP2 MSTORE PUSH1 0x20 ADD DUP3 DUP1 SLOAD PUSH2 0xF94 SWAP1 PUSH2 0x1B55 JUMP JUMPDEST DUP1 ISZERO PUSH2 0xFE1 JUMPI DUP1 PUSH1 0x1F LT PUSH2 0xFB6 JUMPI PUSH2 0x100 DUP1 DUP4 SLOAD DIV MUL DUP4 MSTORE SWAP2 PUSH1 0x20 ADD SWAP2 PUSH2 0xFE1 JUMP JUMPDEST DUP3 ADD SWAP2 SWAP1 PUSH1 0x0 MSTORE PUSH1 0x20 PUSH1 0x0 KECCAK256 SWAP1 JUMPDEST DUP2 SLOAD DUP2 MSTORE SWAP1 PUSH1 0x1 ADD SWAP1 PUSH1 0x20 ADD DUP1 DUP4 GT PUSH2 0xFC4 JUMPI DUP3 SWAP1 SUB PUSH1 0x1F AND DUP3 ADD SWAP2 JUMPDEST POP POP POP POP POP SWAP1 POP PUSH1 0x0 PUSH2 0xFFF PUSH1 0x40 DUP1 MLOAD PUSH1 0x20 DUP2 ADD SWAP1 SWAP2 MSTORE PUSH1 0x0 DUP2 MSTORE SWAP1 JUMP JUMPDEST SWAP1 POP DUP1 MLOAD PUSH1 0x0 EQ ISZERO PUSH2 0x1012 JUMPI POP SWAP3 SWAP2 POP POP JUMP JUMPDEST DUP2 MLOAD ISZERO PUSH2 0x1044 JUMPI DUP1 DUP3 PUSH1 0x40 MLOAD PUSH1 0x20 ADD PUSH2 0x102C SWAP3 SWAP2 SWAP1 PUSH2 0x19C4 JUMP JUMPDEST PUSH1 0x40 MLOAD PUSH1 0x20 DUP2 DUP4 SUB SUB DUP2 MSTORE SWAP1 PUSH1 0x40 MSTORE SWAP3 POP POP POP SWAP2 SWAP1 POP JUMP JUMPDEST PUSH2 0xBD9 DUP5 PUSH2 0x123F JUMP JUMPDEST PUSH2 0x8C9 DUP3 DUP3 PUSH1 0x40 MLOAD DUP1 PUSH1 0x20 ADD PUSH1 0x40 MSTORE DUP1 PUSH1 0x0 DUP2 MSTORE POP PUSH2 0x1317 JUMP JUMPDEST PUSH2 0x1070 DUP3 PUSH2 0xA6C JUMP JUMPDEST PUSH2 0x10D3 JUMPI PUSH1 0x40 MLOAD PUSH3 0x461BCD PUSH1 0xE5 SHL DUP2 MSTORE PUSH1 0x20 PUSH1 0x4 DUP3 ADD MSTORE PUSH1 0x2E PUSH1 0x24 DUP3 ADD MSTORE PUSH32 0x45524337323155524953746F726167653A2055524920736574206F66206E6F6E PUSH1 0x44 DUP3 ADD MSTORE PUSH14 0x32BC34B9BA32B73A103A37B5B2B7 PUSH1 0x91 SHL PUSH1 0x64 DUP3 ADD MSTORE PUSH1 0x84 ADD PUSH2 0x4F0 JUMP JUMPDEST PUSH1 0x0 DUP3 DUP2 MSTORE PUSH1 0x6 PUSH1 0x20 SWAP1 DUP2 MSTORE PUSH1 0x40 SWAP1 SWAP2 KECCAK256 DUP3 MLOAD PUSH2 0x626 SWAP3 DUP5 ADD SWAP1 PUSH2 0x1616 JUMP JUMPDEST PUSH2 0x10FB DUP2 PUSH2 0x134A JUMP JUMPDEST PUSH1 0x0 DUP2 DUP2 MSTORE PUSH1 0x6 PUSH1 0x20 MSTORE PUSH1 0x40 SWAP1 KECCAK256 DUP1 SLOAD PUSH2 0x1114 SWAP1 PUSH2 0x1B55 JUMP JUMPDEST ISZERO SWAP1 POP PUSH2 0x748 JUMPI PUSH1 0x0 DUP2 DUP2 MSTORE PUSH1 0x6 PUSH1 0x20 MSTORE PUSH1 0x40 DUP2 KECCAK256 PUSH2 0x748 SWAP2 PUSH2 0x169A JUMP JUMPDEST PUSH1 0x0 PUSH1 0x1 PUSH1 0x1 PUSH1 0xA0 SHL SUB DUP5 AND EXTCODESIZE ISZERO PUSH2 0x1234 JUMPI PUSH1 0x40 MLOAD PUSH4 0xA85BD01 PUSH1 0xE1 SHL DUP2 MSTORE PUSH1 0x1 PUSH1 0x1 PUSH1 0xA0 SHL SUB DUP6 AND SWAP1 PUSH4 0x150B7A02 SWAP1 PUSH2 0x1176 SWAP1 CALLER SWAP1 DUP10 SWAP1 DUP9 SWAP1 DUP9 SWAP1 PUSH1 0x4 ADD PUSH2 0x19F3 JUMP JUMPDEST PUSH1 0x20 PUSH1 0x40 MLOAD DUP1 DUP4 SUB DUP2 PUSH1 0x0 DUP8 DUP1 EXTCODESIZE ISZERO DUP1 ISZERO PUSH2 0x1190 JUMPI PUSH1 0x0 DUP1 REVERT JUMPDEST POP GAS CALL SWAP3 POP POP POP DUP1 ISZERO PUSH2 0x11C0 JUMPI POP PUSH1 0x40 DUP1 MLOAD PUSH1 0x1F RETURNDATASIZE SWAP1 DUP2 ADD PUSH1 0x1F NOT AND DUP3 ADD SWAP1 SWAP3 MSTORE PUSH2 0x11BD SWAP2 DUP2 ADD SWAP1 PUSH2 0x1962 JUMP JUMPDEST PUSH1 0x1 JUMPDEST PUSH2 0x121A JUMPI RETURNDATASIZE DUP1 DUP1 ISZERO PUSH2 0x11EE JUMPI PUSH1 0x40 MLOAD SWAP2 POP PUSH1 0x1F NOT PUSH1 0x3F RETURNDATASIZE ADD AND DUP3 ADD PUSH1 0x40 MSTORE RETURNDATASIZE DUP3 MSTORE RETURNDATASIZE PUSH1 0x0 PUSH1 0x20 DUP5 ADD RETURNDATACOPY PUSH2 0x11F3 JUMP JUMPDEST PUSH1 0x60 SWAP2 POP JUMPDEST POP DUP1 MLOAD PUSH2 0x1212 JUMPI PUSH1 0x40 MLOAD PUSH3 0x461BCD PUSH1 0xE5 SHL DUP2 MSTORE PUSH1 0x4 ADD PUSH2 0x4F0 SWAP1 PUSH2 0x1A43 JUMP JUMPDEST DUP1 MLOAD DUP2 PUSH1 0x20 ADD REVERT JUMPDEST PUSH1 0x1 PUSH1 0x1 PUSH1 0xE0 SHL SUB NOT AND PUSH4 0xA85BD01 PUSH1 0xE1 SHL EQ SWAP1 POP PUSH2 0xBD9 JUMP JUMPDEST POP PUSH1 0x1 SWAP5 SWAP4 POP POP POP POP JUMP JUMPDEST PUSH1 0x60 PUSH2 0x124A DUP3 PUSH2 0xA6C JUMP JUMPDEST PUSH2 0x12AE JUMPI PUSH1 0x40 MLOAD PUSH3 0x461BCD PUSH1 0xE5 SHL DUP2 MSTORE PUSH1 0x20 PUSH1 0x4 DUP3 ADD MSTORE PUSH1 0x2F PUSH1 0x24 DUP3 ADD MSTORE PUSH32 0x4552433732314D657461646174613A2055524920717565727920666F72206E6F PUSH1 0x44 DUP3 ADD MSTORE PUSH15 0x3732BC34B9BA32B73A103A37B5B2B7 PUSH1 0x89 SHL PUSH1 0x64 DUP3 ADD MSTORE PUSH1 0x84 ADD PUSH2 0x4F0 JUMP JUMPDEST PUSH1 0x0 PUSH2 0x12C5 PUSH1 0x40 DUP1 MLOAD PUSH1 0x20 DUP2 ADD SWAP1 SWAP2 MSTORE PUSH1 0x0 DUP2 MSTORE SWAP1 JUMP JUMPDEST SWAP1 POP PUSH1 0x0 DUP2 MLOAD GT PUSH2 0x12E5 JUMPI PUSH1 0x40 MLOAD DUP1 PUSH1 0x20 ADD PUSH1 0x40 MSTORE DUP1 PUSH1 0x0 DUP2 MSTORE POP PUSH2 0x1310 JUMP JUMPDEST DUP1 PUSH2 0x12EF DUP5 PUSH2 0x13E5 JUMP JUMPDEST PUSH1 0x40 MLOAD PUSH1 0x20 ADD PUSH2 0x1300 SWAP3 SWAP2 SWAP1 PUSH2 0x19C4 JUMP JUMPDEST PUSH1 0x40 MLOAD PUSH1 0x20 DUP2 DUP4 SUB SUB DUP2 MSTORE SWAP1 PUSH1 0x40 MSTORE JUMPDEST SWAP4 SWAP3 POP POP POP JUMP JUMPDEST PUSH2 0x1321 DUP4 DUP4 PUSH2 0x14E3 JUMP JUMPDEST PUSH2 0x132E PUSH1 0x0 DUP5 DUP5 DUP5 PUSH2 0x1132 JUMP JUMPDEST PUSH2 0x626 JUMPI PUSH1 0x40 MLOAD PUSH3 0x461BCD PUSH1 0xE5 SHL DUP2 MSTORE PUSH1 0x4 ADD PUSH2 0x4F0 SWAP1 PUSH2 0x1A43 JUMP JUMPDEST PUSH1 0x0 PUSH2 0x1355 DUP3 PUSH2 0x74B JUMP JUMPDEST SWAP1 POP PUSH2 0x1362 PUSH1 0x0 DUP4 PUSH2 0xA89 JUMP JUMPDEST PUSH1 0x1 PUSH1 0x1 PUSH1 0xA0 SHL SUB DUP2 AND PUSH1 0x0 SWAP1 DUP2 MSTORE PUSH1 0x3 PUSH1 0x20 MSTORE PUSH1 0x40 DUP2 KECCAK256 DUP1 SLOAD PUSH1 0x1 SWAP3 SWAP1 PUSH2 0x138B SWAP1 DUP5 SWAP1 PUSH2 0x1B12 JUMP JUMPDEST SWAP1 SWAP2 SSTORE POP POP PUSH1 0x0 DUP3 DUP2 MSTORE PUSH1 0x2 PUSH1 0x20 MSTORE PUSH1 0x40 DUP1 DUP3 KECCAK256 DUP1 SLOAD PUSH1 0x1 PUSH1 0x1 PUSH1 0xA0 SHL SUB NOT AND SWAP1 SSTORE MLOAD DUP4 SWAP2 SWAP1 PUSH1 0x1 PUSH1 0x1 PUSH1 0xA0 SHL SUB DUP5 AND SWAP1 PUSH32 0xDDF252AD1BE2C89B69C2B068FC378DAA952BA7F163C4A11628F55A4DF523B3EF SWAP1 DUP4 SWAP1 LOG4 POP POP JUMP JUMPDEST PUSH1 0x60 DUP2 PUSH2 0x1409 JUMPI POP POP PUSH1 0x40 DUP1 MLOAD DUP1 DUP3 ADD SWAP1 SWAP2 MSTORE PUSH1 0x1 DUP2 MSTORE PUSH1 0x3 PUSH1 0xFC SHL PUSH1 0x20 DUP3 ADD MSTORE SWAP1 JUMP JUMPDEST DUP2 PUSH1 0x0 JUMPDEST DUP2 ISZERO PUSH2 0x1433 JUMPI DUP1 PUSH2 0x141D DUP2 PUSH2 0x1B90 JUMP JUMPDEST SWAP2 POP PUSH2 0x142C SWAP1 POP PUSH1 0xA DUP4 PUSH2 0x1AFE JUMP JUMPDEST SWAP2 POP PUSH2 0x140D JUMP JUMPDEST PUSH1 0x0 DUP2 PUSH8 0xFFFFFFFFFFFFFFFF DUP2 GT ISZERO PUSH2 0x144E JUMPI PUSH2 0x144E PUSH2 0x1C01 JUMP JUMPDEST PUSH1 0x40 MLOAD SWAP1 DUP1 DUP3 MSTORE DUP1 PUSH1 0x1F ADD PUSH1 0x1F NOT AND PUSH1 0x20 ADD DUP3 ADD PUSH1 0x40 MSTORE DUP1 ISZERO PUSH2 0x1478 JUMPI PUSH1 0x20 DUP3 ADD DUP2 DUP1 CALLDATASIZE DUP4 CALLDATACOPY ADD SWAP1 POP JUMPDEST POP SWAP1 POP JUMPDEST DUP5 ISZERO PUSH2 0xBD9 JUMPI PUSH2 0x148D PUSH1 0x1 DUP4 PUSH2 0x1B12 JUMP JUMPDEST SWAP2 POP PUSH2 0x149A PUSH1 0xA DUP7 PUSH2 0x1BAB JUMP JUMPDEST PUSH2 0x14A5 SWAP1 PUSH1 0x30 PUSH2 0x1AE6 JUMP JUMPDEST PUSH1 0xF8 SHL DUP2 DUP4 DUP2 MLOAD DUP2 LT PUSH2 0x14BA JUMPI PUSH2 0x14BA PUSH2 0x1BEB JUMP JUMPDEST PUSH1 0x20 ADD ADD SWAP1 PUSH1 0x1 PUSH1 0x1 PUSH1 0xF8 SHL SUB NOT AND SWAP1 DUP2 PUSH1 0x0 BYTE SWAP1 MSTORE8 POP PUSH2 0x14DC PUSH1 0xA DUP7 PUSH2 0x1AFE JUMP JUMPDEST SWAP5 POP PUSH2 0x147C JUMP JUMPDEST PUSH1 0x1 PUSH1 0x1 PUSH1 0xA0 SHL SUB DUP3 AND PUSH2 0x1539 JUMPI PUSH1 0x40 MLOAD PUSH3 0x461BCD PUSH1 0xE5 SHL DUP2 MSTORE PUSH1 0x20 PUSH1 0x4 DUP3 ADD DUP2 SWAP1 MSTORE PUSH1 0x24 DUP3 ADD MSTORE PUSH32 0x4552433732313A206D696E7420746F20746865207A65726F2061646472657373 PUSH1 0x44 DUP3 ADD MSTORE PUSH1 0x64 ADD PUSH2 0x4F0 JUMP JUMPDEST PUSH2 0x1542 DUP2 PUSH2 0xA6C JUMP JUMPDEST ISZERO PUSH2 0x158F JUMPI PUSH1 0x40 MLOAD PUSH3 0x461BCD PUSH1 0xE5 SHL DUP2 MSTORE PUSH1 0x20 PUSH1 0x4 DUP3 ADD MSTORE PUSH1 0x1C PUSH1 0x24 DUP3 ADD MSTORE PUSH32 0x4552433732313A20746F6B656E20616C7265616479206D696E74656400000000 PUSH1 0x44 DUP3 ADD MSTORE PUSH1 0x64 ADD PUSH2 0x4F0 JUMP JUMPDEST PUSH1 0x1 PUSH1 0x1 PUSH1 0xA0 SHL SUB DUP3 AND PUSH1 0x0 SWAP1 DUP2 MSTORE PUSH1 0x3 PUSH1 0x20 MSTORE PUSH1 0x40 DUP2 KECCAK256 DUP1 SLOAD PUSH1 0x1 SWAP3 SWAP1 PUSH2 0x15B8 SWAP1 DUP5 SWAP1 PUSH2 0x1AE6 JUMP JUMPDEST SWAP1 SWAP2 SSTORE POP POP PUSH1 0x0 DUP2 DUP2 MSTORE PUSH1 0x2 PUSH1 0x20 MSTORE PUSH1 0x40 DUP1 DUP3 KECCAK256 DUP1 SLOAD PUSH1 0x1 PUSH1 0x1 PUSH1 0xA0 SHL SUB NOT AND PUSH1 0x1 PUSH1 0x1 PUSH1 0xA0 SHL SUB DUP7 AND SWAP1 DUP2 OR SWAP1 SWAP2 SSTORE SWAP1 MLOAD DUP4 SWAP3 SWAP1 PUSH32 0xDDF252AD1BE2C89B69C2B068FC378DAA952BA7F163C4A11628F55A4DF523B3EF SWAP1 DUP3 SWAP1 LOG4 POP POP JUMP JUMPDEST DUP3 DUP1 SLOAD PUSH2 0x1622 SWAP1 PUSH2 0x1B55 JUMP JUMPDEST SWAP1 PUSH1 0x0 MSTORE PUSH1 0x20 PUSH1 0x0 KECCAK256 SWAP1 PUSH1 0x1F ADD PUSH1 0x20 SWAP1 DIV DUP2 ADD SWAP3 DUP3 PUSH2 0x1644 JUMPI PUSH1 0x0 DUP6 SSTORE PUSH2 0x168A JUMP JUMPDEST DUP3 PUSH1 0x1F LT PUSH2 0x165D JUMPI DUP1 MLOAD PUSH1 0xFF NOT AND DUP4 DUP1 ADD OR DUP6 SSTORE PUSH2 0x168A JUMP JUMPDEST DUP3 DUP1 ADD PUSH1 0x1 ADD DUP6 SSTORE DUP3 ISZERO PUSH2 0x168A JUMPI SWAP2 DUP3 ADD JUMPDEST DUP3 DUP2 GT ISZERO PUSH2 0x168A JUMPI DUP3 MLOAD DUP3 SSTORE SWAP2 PUSH1 0x20 ADD SWAP2 SWAP1 PUSH1 0x1 ADD SWAP1 PUSH2 0x166F JUMP JUMPDEST POP PUSH2 0x1696 SWAP3 SWAP2 POP PUSH2 0x16D0 JUMP JUMPDEST POP SWAP1 JUMP JUMPDEST POP DUP1 SLOAD PUSH2 0x16A6 SWAP1 PUSH2 0x1B55 JUMP JUMPDEST PUSH1 0x0 DUP3 SSTORE DUP1 PUSH1 0x1F LT PUSH2 0x16B6 JUMPI POP POP JUMP JUMPDEST PUSH1 0x1F ADD PUSH1 0x20 SWAP1 DIV SWAP1 PUSH1 0x0 MSTORE PUSH1 0x20 PUSH1 0x0 KECCAK256 SWAP1 DUP2 ADD SWAP1 PUSH2 0x748 SWAP2 SWAP1 JUMPDEST JUMPDEST DUP1 DUP3 GT ISZERO PUSH2 0x1696 JUMPI PUSH1 0x0 DUP2 SSTORE PUSH1 0x1 ADD PUSH2 0x16D1 JUMP JUMPDEST PUSH1 0x0 PUSH8 0xFFFFFFFFFFFFFFFF DUP1 DUP5 GT ISZERO PUSH2 0x1700 JUMPI PUSH2 0x1700 PUSH2 0x1C01 JUMP JUMPDEST PUSH1 0x40 MLOAD PUSH1 0x1F DUP6 ADD PUSH1 0x1F NOT SWAP1 DUP2 AND PUSH1 0x3F ADD AND DUP2 ADD SWAP1 DUP3 DUP3 GT DUP2 DUP4 LT OR ISZERO PUSH2 0x1728 JUMPI PUSH2 0x1728 PUSH2 0x1C01 JUMP JUMPDEST DUP2 PUSH1 0x40 MSTORE DUP1 SWAP4 POP DUP6 DUP2 MSTORE DUP7 DUP7 DUP7 ADD GT ISZERO PUSH2 0x1741 JUMPI PUSH1 0x0 DUP1 REVERT JUMPDEST DUP6 DUP6 PUSH1 0x20 DUP4 ADD CALLDATACOPY PUSH1 0x0 PUSH1 0x20 DUP8 DUP4 ADD ADD MSTORE POP POP POP SWAP4 SWAP3 POP POP POP JUMP JUMPDEST DUP1 CALLDATALOAD PUSH1 0x1 PUSH1 0x1 PUSH1 0xA0 SHL SUB DUP2 AND DUP2 EQ PUSH2 0x1772 JUMPI PUSH1 0x0 DUP1 REVERT JUMPDEST SWAP2 SWAP1 POP JUMP JUMPDEST PUSH1 0x0 PUSH1 0x20 DUP3 DUP5 SUB SLT ISZERO PUSH2 0x1789 JUMPI PUSH1 0x0 DUP1 REVERT JUMPDEST PUSH2 0x1310 DUP3 PUSH2 0x175B JUMP JUMPDEST PUSH1 0x0 DUP1 PUSH1 0x40 DUP4 DUP6 SUB SLT ISZERO PUSH2 0x17A5 JUMPI PUSH1 0x0 DUP1 REVERT JUMPDEST PUSH2 0x17AE DUP4 PUSH2 0x175B JUMP JUMPDEST SWAP2 POP PUSH2 0x17BC PUSH1 0x20 DUP5 ADD PUSH2 0x175B JUMP JUMPDEST SWAP1 POP SWAP3 POP SWAP3 SWAP1 POP JUMP JUMPDEST PUSH1 0x0 DUP1 PUSH1 0x0 PUSH1 0x60 DUP5 DUP7 SUB SLT ISZERO PUSH2 0x17DA JUMPI PUSH1 0x0 DUP1 REVERT JUMPDEST PUSH2 0x17E3 DUP5 PUSH2 0x175B JUMP JUMPDEST SWAP3 POP PUSH2 0x17F1 PUSH1 0x20 DUP6 ADD PUSH2 0x175B JUMP JUMPDEST SWAP2 POP PUSH1 0x40 DUP5 ADD CALLDATALOAD SWAP1 POP SWAP3 POP SWAP3 POP SWAP3 JUMP JUMPDEST PUSH1 0x0 DUP1 PUSH1 0x0 DUP1 PUSH1 0x80 DUP6 DUP8 SUB SLT ISZERO PUSH2 0x1817 JUMPI PUSH1 0x0 DUP1 REVERT JUMPDEST PUSH2 0x1820 DUP6 PUSH2 0x175B JUMP JUMPDEST SWAP4 POP PUSH2 0x182E PUSH1 0x20 DUP7 ADD PUSH2 0x175B JUMP JUMPDEST SWAP3 POP PUSH1 0x40 DUP6 ADD CALLDATALOAD SWAP2 POP PUSH1 0x60 DUP6 ADD CALLDATALOAD PUSH8 0xFFFFFFFFFFFFFFFF DUP2 GT ISZERO PUSH2 0x1851 JUMPI PUSH1 0x0 DUP1 REVERT JUMPDEST DUP6 ADD PUSH1 0x1F DUP2 ADD DUP8 SGT PUSH2 0x1862 JUMPI PUSH1 0x0 DUP1 REVERT JUMPDEST PUSH2 0x1871 DUP8 DUP3 CALLDATALOAD PUSH1 0x20 DUP5 ADD PUSH2 0x16E5 JUMP JUMPDEST SWAP2 POP POP SWAP3 SWAP6 SWAP2 SWAP5 POP SWAP3 POP JUMP JUMPDEST PUSH1 0x0 DUP1 PUSH1 0x40 DUP4 DUP6 SUB SLT ISZERO PUSH2 0x1890 JUMPI PUSH1 0x0 DUP1 REVERT JUMPDEST PUSH2 0x1899 DUP4 PUSH2 0x175B JUMP JUMPDEST SWAP2 POP PUSH1 0x20 DUP4 ADD CALLDATALOAD DUP1 ISZERO ISZERO DUP2 EQ PUSH2 0x18AE JUMPI PUSH1 0x0 DUP1 REVERT JUMPDEST DUP1 SWAP2 POP POP SWAP3 POP SWAP3 SWAP1 POP JUMP JUMPDEST PUSH1 0x0 DUP1 PUSH1 0x40 DUP4 DUP6 SUB SLT ISZERO PUSH2 0x18CC JUMPI PUSH1 0x0 DUP1 REVERT JUMPDEST PUSH2 0x18D5 DUP4 PUSH2 0x175B JUMP JUMPDEST SWAP2 POP PUSH1 0x20 DUP4 ADD CALLDATALOAD PUSH8 0xFFFFFFFFFFFFFFFF DUP2 GT ISZERO PUSH2 0x18F1 JUMPI PUSH1 0x0 DUP1 REVERT JUMPDEST DUP4 ADD PUSH1 0x1F DUP2 ADD DUP6 SGT PUSH2 0x1902 JUMPI PUSH1 0x0 DUP1 REVERT JUMPDEST PUSH2 0x1911 DUP6 DUP3 CALLDATALOAD PUSH1 0x20 DUP5 ADD PUSH2 0x16E5 JUMP JUMPDEST SWAP2 POP POP SWAP3 POP SWAP3 SWAP1 POP JUMP JUMPDEST PUSH1 0x0 DUP1 PUSH1 0x40 DUP4 DUP6 SUB SLT ISZERO PUSH2 0x192E JUMPI PUSH1 0x0 DUP1 REVERT JUMPDEST PUSH2 0x1937 DUP4 PUSH2 0x175B JUMP JUMPDEST SWAP5 PUSH1 0x20 SWAP4 SWAP1 SWAP4 ADD CALLDATALOAD SWAP4 POP POP POP JUMP JUMPDEST PUSH1 0x0 PUSH1 0x20 DUP3 DUP5 SUB SLT ISZERO PUSH2 0x1957 JUMPI PUSH1 0x0 DUP1 REVERT JUMPDEST DUP2 CALLDATALOAD PUSH2 0x1310 DUP2 PUSH2 0x1C17 JUMP JUMPDEST PUSH1 0x0 PUSH1 0x20 DUP3 DUP5 SUB SLT ISZERO PUSH2 0x1974 JUMPI PUSH1 0x0 DUP1 REVERT JUMPDEST DUP2 MLOAD PUSH2 0x1310 DUP2 PUSH2 0x1C17 JUMP JUMPDEST PUSH1 0x0 PUSH1 0x20 DUP3 DUP5 SUB SLT ISZERO PUSH2 0x1991 JUMPI PUSH1 0x0 DUP1 REVERT JUMPDEST POP CALLDATALOAD SWAP2 SWAP1 POP JUMP JUMPDEST PUSH1 0x0 DUP2 MLOAD DUP1 DUP5 MSTORE PUSH2 0x19B0 DUP2 PUSH1 0x20 DUP7 ADD PUSH1 0x20 DUP7 ADD PUSH2 0x1B29 JUMP JUMPDEST PUSH1 0x1F ADD PUSH1 0x1F NOT AND SWAP3 SWAP1 SWAP3 ADD PUSH1 0x20 ADD SWAP3 SWAP2 POP POP JUMP JUMPDEST PUSH1 0x0 DUP4 MLOAD PUSH2 0x19D6 DUP2 DUP5 PUSH1 0x20 DUP9 ADD PUSH2 0x1B29 JUMP JUMPDEST DUP4 MLOAD SWAP1 DUP4 ADD SWAP1 PUSH2 0x19EA DUP2 DUP4 PUSH1 0x20 DUP9 ADD PUSH2 0x1B29 JUMP JUMPDEST ADD SWAP5 SWAP4 POP POP POP POP JUMP JUMPDEST PUSH1 0x1 PUSH1 0x1 PUSH1 0xA0 SHL SUB DUP6 DUP2 AND DUP3 MSTORE DUP5 AND PUSH1 0x20 DUP3 ADD MSTORE PUSH1 0x40 DUP2 ADD DUP4 SWAP1 MSTORE PUSH1 0x80 PUSH1 0x60 DUP3 ADD DUP2 SWAP1 MSTORE PUSH1 0x0 SWAP1 PUSH2 0x1A26 SWAP1 DUP4 ADD DUP5 PUSH2 0x1998 JUMP JUMPDEST SWAP7 SWAP6 POP POP POP POP POP POP JUMP JUMPDEST PUSH1 0x20 DUP2 MSTORE PUSH1 0x0 PUSH2 0x1310 PUSH1 0x20 DUP4 ADD DUP5 PUSH2 0x1998 JUMP JUMPDEST PUSH1 0x20 DUP1 DUP3 MSTORE PUSH1 0x32 SWAP1 DUP3 ADD MSTORE PUSH32 0x4552433732313A207472616E7366657220746F206E6F6E204552433732315265 PUSH1 0x40 DUP3 ADD MSTORE PUSH18 0x31B2B4BB32B91034B6B83632B6B2B73A32B9 PUSH1 0x71 SHL PUSH1 0x60 DUP3 ADD MSTORE PUSH1 0x80 ADD SWAP1 JUMP JUMPDEST PUSH1 0x20 DUP1 DUP3 MSTORE PUSH1 0x31 SWAP1 DUP3 ADD MSTORE PUSH32 0x4552433732313A207472616E736665722063616C6C6572206973206E6F74206F PUSH1 0x40 DUP3 ADD MSTORE PUSH17 0x1DDB995C881B9BDC88185C1C1C9BDD9959 PUSH1 0x7A SHL PUSH1 0x60 DUP3 ADD MSTORE PUSH1 0x80 ADD SWAP1 JUMP JUMPDEST PUSH1 0x0 DUP3 NOT DUP3 GT ISZERO PUSH2 0x1AF9 JUMPI PUSH2 0x1AF9 PUSH2 0x1BBF JUMP JUMPDEST POP ADD SWAP1 JUMP JUMPDEST PUSH1 0x0 DUP3 PUSH2 0x1B0D JUMPI PUSH2 0x1B0D PUSH2 0x1BD5 JUMP JUMPDEST POP DIV SWAP1 JUMP JUMPDEST PUSH1 0x0 DUP3 DUP3 LT ISZERO PUSH2 0x1B24 JUMPI PUSH2 0x1B24 PUSH2 0x1BBF JUMP JUMPDEST POP SUB SWAP1 JUMP JUMPDEST PUSH1 0x0 JUMPDEST DUP4 DUP2 LT ISZERO PUSH2 0x1B44 JUMPI DUP2 DUP2 ADD MLOAD DUP4 DUP3 ADD MSTORE PUSH1 0x20 ADD PUSH2 0x1B2C JUMP JUMPDEST DUP4 DUP2 GT ISZERO PUSH2 0x8FF JUMPI POP POP PUSH1 0x0 SWAP2 ADD MSTORE JUMP JUMPDEST PUSH1 0x1 DUP2 DUP2 SHR SWAP1 DUP3 AND DUP1 PUSH2 0x1B69 JUMPI PUSH1 0x7F DUP3 AND SWAP2 POP JUMPDEST PUSH1 0x20 DUP3 LT DUP2 EQ ISZERO PUSH2 0x1B8A JUMPI PUSH4 0x4E487B71 PUSH1 0xE0 SHL PUSH1 0x0 MSTORE PUSH1 0x22 PUSH1 0x4 MSTORE PUSH1 0x24 PUSH1 0x0 REVERT JUMPDEST POP SWAP2 SWAP1 POP JUMP JUMPDEST PUSH1 0x0 PUSH1 0x0 NOT DUP3 EQ ISZERO PUSH2 0x1BA4 JUMPI PUSH2 0x1BA4 PUSH2 0x1BBF JUMP JUMPDEST POP PUSH1 0x1 ADD SWAP1 JUMP JUMPDEST PUSH1 0x0 DUP3 PUSH2 0x1BBA JUMPI PUSH2 0x1BBA PUSH2 0x1BD5 JUMP JUMPDEST POP MOD SWAP1 JUMP JUMPDEST PUSH4 0x4E487B71 PUSH1 0xE0 SHL PUSH1 0x0 MSTORE PUSH1 0x11 PUSH1 0x4 MSTORE PUSH1 0x24 PUSH1 0x0 REVERT JUMPDEST PUSH4 0x4E487B71 PUSH1 0xE0 SHL PUSH1 0x0 MSTORE PUSH1 0x12 PUSH1 0x4 MSTORE PUSH1 0x24 PUSH1 0x0 REVERT JUMPDEST PUSH4 0x4E487B71 PUSH1 0xE0 SHL PUSH1 0x0 MSTORE PUSH1 0x32 PUSH1 0x4 MSTORE PUSH1 0x24 PUSH1 0x0 REVERT JUMPDEST PUSH4 0x4E487B71 PUSH1 0xE0 SHL PUSH1 0x0 MSTORE PUSH1 0x41 PUSH1 0x4 MSTORE PUSH1 0x24 PUSH1 0x0 REVERT JUMPDEST PUSH1 0x1 PUSH1 0x1 PUSH1 0xE0 SHL SUB NOT DUP2 AND DUP2 EQ PUSH2 0x748 JUMPI PUSH1 0x0 DUP1 REVERT INVALID LOG2 PUSH5 0x6970667358 0x22 SLT KECCAK256 PUSH5 0x4B3DC2024B 0x1F LOG1 0xCF JUMPDEST DUP16 PUSH11 0x994204B648D85E179CFDE4 MOD DIFFICULTY 0xC7 OR LOG1 0x2F CALLDATASIZE POP 0x26 PUSH5 0x736F6C6343 STOP ADDMOD SMOD STOP CALLER "
				},
				"gasEstimates": {
					"creation": {
						"codeDepositCost": "1453400",
						"executionCost": "infinite",
						"totalCost": "infinite"
					},
					"external": {
						"approve(address,uint256)": "infinite",
						"balanceOf(address)": "2612",
						"burn(uint256)": "infinite",
						"getApproved(uint256)": "4799",
						"isApprovedForAll(address,address)": "infinite",
						"name()": "infinite",
						"owner()": "2398",
						"ownerOf(uint256)": "2667",
						"renounceOwnership()": "28162",
						"safeMint(address,string)": "infinite",
						"safeTransferFrom(address,address,uint256)": "infinite",
						"safeTransferFrom(address,address,uint256,bytes)": "infinite",
						"setApprovalForAll(address,bool)": "26797",
						"supportsInterface(bytes4)": "534",
						"symbol()": "infinite",
						"tokenURI(uint256)": "infinite",
						"transferFrom(address,address,uint256)": "infinite",
						"transferOwnership(address)": "28422",
						"withdraw()": "infinite"
					},
					"internal": {
						"_burn(uint256)": "infinite"
					}
				},
				"methodIdentifiers": {
					"approve(address,uint256)": "095ea7b3",
					"balanceOf(address)": "70a08231",
					"burn(uint256)": "42966c68",
					"getApproved(uint256)": "081812fc",
					"isApprovedForAll(address,address)": "e985e9c5",
					"name()": "06fdde03",
					"owner()": "8da5cb5b",
					"ownerOf(uint256)": "6352211e",
					"renounceOwnership()": "715018a6",
					"safeMint(address,string)": "d204c45e",
					"safeTransferFrom(address,address,uint256)": "42842e0e",
					"safeTransferFrom(address,address,uint256,bytes)": "b88d4fde",
					"setApprovalForAll(address,bool)": "a22cb465",
					"supportsInterface(bytes4)": "01ffc9a7",
					"symbol()": "95d89b41",
					"tokenURI(uint256)": "c87b56dd",
					"transferFrom(address,address,uint256)": "23b872dd",
					"transferOwnership(address)": "f2fde38b",
					"withdraw()": "3ccfd60b"
				}
			},
			"storageLayout": {
				"storage": [
					{
						"astId": 902,
						"contract": "MoonCats_flat.sol:MoonCats",
						"label": "_name",
						"offset": 0,
						"slot": "0",
						"type": "t_string_storage"
					},
					{
						"astId": 904,
						"contract": "MoonCats_flat.sol:MoonCats",
						"label": "_symbol",
						"offset": 0,
						"slot": "1",
						"type": "t_string_storage"
					},
					{
						"astId": 908,
						"contract": "MoonCats_flat.sol:MoonCats",
						"label": "_owners",
						"offset": 0,
						"slot": "2",
						"type": "t_mapping(t_uint256,t_address)"
					},
					{
						"astId": 912,
						"contract": "MoonCats_flat.sol:MoonCats",
						"label": "_balances",
						"offset": 0,
						"slot": "3",
						"type": "t_mapping(t_address,t_uint256)"
					},
					{
						"astId": 916,
						"contract": "MoonCats_flat.sol:MoonCats",
						"label": "_tokenApprovals",
						"offset": 0,
						"slot": "4",
						"type": "t_mapping(t_uint256,t_address)"
					},
					{
						"astId": 922,
						"contract": "MoonCats_flat.sol:MoonCats",
						"label": "_operatorApprovals",
						"offset": 0,
						"slot": "5",
						"type": "t_mapping(t_address,t_mapping(t_address,t_bool))"
					},
					{
						"astId": 1745,
						"contract": "MoonCats_flat.sol:MoonCats",
						"label": "_tokenURIs",
						"offset": 0,
						"slot": "6",
						"type": "t_mapping(t_uint256,t_string_storage)"
					},
					{
						"astId": 302,
						"contract": "MoonCats_flat.sol:MoonCats",
						"label": "_owner",
						"offset": 0,
						"slot": "7",
						"type": "t_address"
					},
					{
						"astId": 1876,
						"contract": "MoonCats_flat.sol:MoonCats",
						"label": "_tokenIdCounter",
						"offset": 0,
						"slot": "8",
						"type": "t_struct(Counter)5_storage"
					}
				],
				"types": {
					"t_address": {
						"encoding": "inplace",
						"label": "address",
						"numberOfBytes": "20"
					},
					"t_bool": {
						"encoding": "inplace",
						"label": "bool",
						"numberOfBytes": "1"
					},
					"t_mapping(t_address,t_bool)": {
						"encoding": "mapping",
						"key": "t_address",
						"label": "mapping(address => bool)",
						"numberOfBytes": "32",
						"value": "t_bool"
					},
					"t_mapping(t_address,t_mapping(t_address,t_bool))": {
						"encoding": "mapping",
						"key": "t_address",
						"label": "mapping(address => mapping(address => bool))",
						"numberOfBytes": "32",
						"value": "t_mapping(t_address,t_bool)"
					},
					"t_mapping(t_address,t_uint256)": {
						"encoding": "mapping",
						"key": "t_address",
						"label": "mapping(address => uint256)",
						"numberOfBytes": "32",
						"value": "t_uint256"
					},
					"t_mapping(t_uint256,t_address)": {
						"encoding": "mapping",
						"key": "t_uint256",
						"label": "mapping(uint256 => address)",
						"numberOfBytes": "32",
						"value": "t_address"
					},
					"t_mapping(t_uint256,t_string_storage)": {
						"encoding": "mapping",
						"key": "t_uint256",
						"label": "mapping(uint256 => string)",
						"numberOfBytes": "32",
						"value": "t_string_storage"
					},
					"t_string_storage": {
						"encoding": "bytes",
						"label": "string",
						"numberOfBytes": "32"
					},
					"t_struct(Counter)5_storage": {
						"encoding": "inplace",
						"label": "struct Counters.Counter",
						"members": [
							{
								"astId": 4,
								"contract": "MoonCats_flat.sol:MoonCats",
								"label": "_value",
								"offset": 0,
								"slot": "0",
								"type": "t_uint256"
							}
						],
						"numberOfBytes": "32"
					},
					"t_uint256": {
						"encoding": "inplace",
						"label": "uint256",
						"numberOfBytes": "32"
					}
				}
			},
			"userdoc": {
				"kind": "user",
				"methods": {},
				"version": 1
			}
		}
	}
}