{
  "_format": "hh-sol-artifact-1",
  "contractName": "MoonCats",
  "sourceName": "contracts/MoonCats.sol",
  "abi": [
    {
      "inputs": [],
      "stateMutability": "nonpayable",
      "type": "constructor"
    },
    {
      "anonymous": false,
      "inputs": [
        {
          "indexed": true,
          "internalType": "address",
          "name": "owner",
          "type": "address"
        },
        {
          "indexed": true,
          "internalType": "address",
          "name": "approved",
          "type": "address"
        },
        {
          "indexed": true,
          "internalType": "uint256",
          "name": "tokenId",
          "type": "uint256"
        }
      ],
      "name": "Approval",
      "type": "event"
    },
    {
      "anonymous": false,
      "inputs": [
        {
          "indexed": true,
          "internalType": "address",
          "name": "owner",
          "type": "address"
        },
        {
          "indexed": true,
          "internalType": "address",
          "name": "operator",
          "type": "address"
        },
        {
          "indexed": false,
          "internalType": "bool",
          "name": "approved",
          "type": "bool"
        }
      ],
      "name": "ApprovalForAll",
      "type": "event"
    },
    {
      "anonymous": false,
      "inputs": [
        {
          "indexed": true,
          "internalType": "address",
          "name": "previousOwner",
          "type": "address"
        },
        {
          "indexed": true,
          "internalType": "address",
          "name": "newOwner",
          "type": "address"
        }
      ],
      "name": "OwnershipTransferred",
      "type": "event"
    },
    {
      "anonymous": false,
      "inputs": [
        {
          "indexed": true,
          "internalType": "address",
          "name": "from",
          "type": "address"
        },
        {
          "indexed": true,
          "internalType": "address",
          "name": "to",
          "type": "address"
        },
        {
          "indexed": true,
          "internalType": "uint256",
          "name": "tokenId",
          "type": "uint256"
        }
      ],
      "name": "Transfer",
      "type": "event"
    },
    {
      "inputs": [
        {
          "internalType": "address",
          "name": "to",
          "type": "address"
        },
        {
          "internalType": "uint256",
          "name": "tokenId",
          "type": "uint256"
        }
      ],
      "name": "approve",
      "outputs": [],
      "stateMutability": "nonpayable",
      "type": "function"
    },
    {
      "inputs": [
        {
          "internalType": "address",
          "name": "owner",
          "type": "address"
        }
      ],
      "name": "balanceOf",
      "outputs": [
        {
          "internalType": "uint256",
          "name": "",
          "type": "uint256"
        }
      ],
      "stateMutability": "view",
      "type": "function"
    },
    {
      "inputs": [
        {
          "internalType": "uint256",
          "name": "tokenId",
          "type": "uint256"
        }
      ],
      "name": "burn",
      "outputs": [],
      "stateMutability": "nonpayable",
      "type": "function"
    },
    {
      "inputs": [
        {
          "internalType": "uint256",
          "name": "tokenId",
          "type": "uint256"
        }
      ],
      "name": "getApproved",
      "outputs": [
        {
          "internalType": "address",
          "name": "",
          "type": "address"
        }
      ],
      "stateMutability": "view",
      "type": "function"
    },
    {
      "inputs": [
        {
          "internalType": "address",
          "name": "owner",
          "type": "address"
        },
        {
          "internalType": "address",
          "name": "operator",
          "type": "address"
        }
      ],
      "name": "isApprovedForAll",
      "outputs": [
        {
          "internalType": "bool",
          "name": "",
          "type": "bool"
        }
      ],
      "stateMutability": "view",
      "type": "function"
    },
    {
      "inputs": [],
      "name": "name",
      "outputs": [
        {
          "internalType": "string",
          "name": "",
          "type": "string"
        }
      ],
      "stateMutability": "view",
      "type": "function"
    },
    {
      "inputs": [],
      "name": "owner",
      "outputs": [
        {
          "internalType": "address",
          "name": "",
          "type": "address"
        }
      ],
      "stateMutability": "view",
      "type": "function"
    },
    {
      "inputs": [
        {
          "internalType": "uint256",
          "name": "tokenId",
          "type": "uint256"
        }
      ],
      "name": "ownerOf",
      "outputs": [
        {
          "internalType": "address",
          "name": "",
          "type": "address"
        }
      ],
      "stateMutability": "view",
      "type": "function"
    },
    {
      "inputs": [],
      "name": "renounceOwnership",
      "outputs": [],
      "stateMutability": "nonpayable",
      "type": "function"
    },
    {
      "inputs": [
        {
          "internalType": "address",
          "name": "to",
          "type": "address"
        },
        {
          "internalType": "string",
          "name": "uri",
          "type": "string"
        }
      ],
      "name": "safeMint",
      "outputs": [],
      "stateMutability": "payable",
      "type": "function"
    },
    {
      "inputs": [
        {
          "internalType": "address",
          "name": "from",
          "type": "address"
        },
        {
          "internalType": "address",
          "name": "to",
          "type": "address"
        },
        {
          "internalType": "uint256",
          "name": "tokenId",
          "type": "uint256"
        }
      ],
      "name": "safeTransferFrom",
      "outputs": [],
      "stateMutability": "nonpayable",
      "type": "function"
    },
    {
      "inputs": [
        {
          "internalType": "address",
          "name": "from",
          "type": "address"
        },
        {
          "internalType": "address",
          "name": "to",
          "type": "address"
        },
        {
          "internalType": "uint256",
          "name": "tokenId",
          "type": "uint256"
        },
        {
          "internalType": "bytes",
          "name": "_data",
          "type": "bytes"
        }
      ],
      "name": "safeTransferFrom",
      "outputs": [],
      "stateMutability": "nonpayable",
      "type": "function"
    },
    {
      "inputs": [
        {
          "internalType": "address",
          "name": "operator",
          "type": "address"
        },
        {
          "internalType": "bool",
          "name": "approved",
          "type": "bool"
        }
      ],
      "name": "setApprovalForAll",
      "outputs": [],
      "stateMutability": "nonpayable",
      "type": "function"
    },
    {
      "inputs": [
        {
          "internalType": "bytes4",
          "name": "interfaceId",
          "type": "bytes4"
        }
      ],
      "name": "supportsInterface",
      "outputs": [
        {
          "internalType": "bool",
          "name": "",
          "type": "bool"
        }
      ],
      "stateMutability": "view",
      "type": "function"
    },
    {
      "inputs": [],
      "name": "symbol",
      "outputs": [
        {
          "internalType": "string",
          "name": "",
          "type": "string"
        }
      ],
      "stateMutability": "view",
      "type": "function"
    },
    {
      "inputs": [
        {
          "internalType": "uint256",
          "name": "tokenId",
          "type": "uint256"
        }
      ],
      "name": "tokenURI",
      "outputs": [
        {
          "internalType": "string",
          "name": "",
          "type": "string"
        }
      ],
      "stateMutability": "view",
      "type": "function"
    },
    {
      "inputs": [
        {
          "internalType": "address",
          "name": "from",
          "type": "address"
        },
        {
          "internalType": "address",
          "name": "to",
          "type": "address"
        },
        {
          "internalType": "uint256",
          "name": "tokenId",
          "type": "uint256"
        }
      ],
      "name": "transferFrom",
      "outputs": [],
      "stateMutability": "nonpayable",
      "type": "function"
    },
    {
      "inputs": [
        {
          "internalType": "address",
          "name": "newOwner",
          "type": "address"
        }
      ],
      "name": "transferOwnership",
      "outputs": [],
      "stateMutability": "nonpayable",
      "type": "function"
    },
    {
      "inputs": [],
      "name": "withdraw",
      "outputs": [],
      "stateMutability": "nonpayable",
      "type": "function"
    }
  ],
  "bytecode": "0x60806040523480156200001157600080fd5b506040518060400160405280600881526020017f4d6f6f6e436174730000000000000000000000000000000000000000000000008152506040518060400160405280600581526020017f4d43415453000000000000000000000000000000000000000000000000000000815250816000908051906020019062000096929190620001a6565b508060019080519060200190620000af929190620001a6565b505050620000d2620000c6620000d860201b60201c565b620000e060201b60201c565b620002bb565b600033905090565b6000600760009054906101000a900473ffffffffffffffffffffffffffffffffffffffff16905081600760006101000a81548173ffffffffffffffffffffffffffffffffffffffff021916908373ffffffffffffffffffffffffffffffffffffffff1602179055508173ffffffffffffffffffffffffffffffffffffffff168173ffffffffffffffffffffffffffffffffffffffff167f8be0079c531659141344cd1fd0a4f28419497f9722a3daafe3b4186f6b6457e060405160405180910390a35050565b828054620001b49062000256565b90600052602060002090601f016020900481019282620001d8576000855562000224565b82601f10620001f357805160ff191683800117855562000224565b8280016001018555821562000224579182015b828111156200022357825182559160200191906001019062000206565b5b50905062000233919062000237565b5090565b5b808211156200025257600081600090555060010162000238565b5090565b600060028204905060018216806200026f57607f821691505b602082108114156200028657620002856200028c565b5b50919050565b7f4e487b7100000000000000000000000000000000000000000000000000000000600052602260045260246000fd5b61359b80620002cb6000396000f3fe6080604052600436106101145760003560e01c806370a08231116100a0578063b88d4fde11610064578063b88d4fde14610389578063c87b56dd146103b2578063d204c45e146103ef578063e985e9c51461040b578063f2fde38b1461044857610114565b806370a08231146102b6578063715018a6146102f35780638da5cb5b1461030a57806395d89b4114610335578063a22cb4651461036057610114565b806323b872dd116100e757806323b872dd146101e75780633ccfd60b1461021057806342842e0e1461022757806342966c68146102505780636352211e1461027957610114565b806301ffc9a71461011957806306fdde0314610156578063081812fc14610181578063095ea7b3146101be575b600080fd5b34801561012557600080fd5b50610140600480360381019061013b91906123d7565b610471565b60405161014d9190612875565b60405180910390f35b34801561016257600080fd5b5061016b610553565b6040516101789190612890565b60405180910390f35b34801561018d57600080fd5b506101a860048036038101906101a39190612431565b6105e5565b6040516101b5919061280e565b60405180910390f35b3480156101ca57600080fd5b506101e560048036038101906101e09190612397565b61066a565b005b3480156101f357600080fd5b5061020e60048036038101906102099190612225565b610782565b005b34801561021c57600080fd5b506102256107e2565b005b34801561023357600080fd5b5061024e60048036038101906102499190612225565b6108ca565b005b34801561025c57600080fd5b5061027760048036038101906102729190612431565b6108ea565b005b34801561028557600080fd5b506102a0600480360381019061029b9190612431565b610946565b6040516102ad919061280e565b60405180910390f35b3480156102c257600080fd5b506102dd60048036038101906102d891906121b8565b6109f8565b6040516102ea9190612b32565b60405180910390f35b3480156102ff57600080fd5b50610308610ab0565b005b34801561031657600080fd5b5061031f610b38565b60405161032c919061280e565b60405180910390f35b34801561034157600080fd5b5061034a610b62565b6040516103579190612890565b60405180910390f35b34801561036c57600080fd5b50610387600480360381019061038291906122fb565b610bf4565b005b34801561039557600080fd5b506103b060048036038101906103ab9190612278565b610c0a565b005b3480156103be57600080fd5b506103d960048036038101906103d49190612431565b610c6c565b6040516103e69190612890565b60405180910390f35b6104096004803603810190610404919061233b565b610c7e565b005b34801561041757600080fd5b50610432600480360381019061042d91906121e5565b610cf9565b60405161043f9190612875565b60405180910390f35b34801561045457600080fd5b5061046f600480360381019061046a91906121b8565b610d8d565b005b60007f80ac58cd000000000000000000000000000000000000000000000000000000007bffffffffffffffffffffffffffffffffffffffffffffffffffffffff1916827bffffffffffffffffffffffffffffffffffffffffffffffffffffffff1916148061053c57507f5b5e139f000000000000000000000000000000000000000000000000000000007bffffffffffffffffffffffffffffffffffffffffffffffffffffffff1916827bffffffffffffffffffffffffffffffffffffffffffffffffffffffff1916145b8061054c575061054b82610e85565b5b9050919050565b60606000805461056290612d88565b80601f016020809104026020016040519081016040528092919081815260200182805461058e90612d88565b80156105db5780601f106105b0576101008083540402835291602001916105db565b820191906000526020600020905b8154815290600101906020018083116105be57829003601f168201915b5050505050905090565b60006105f082610eef565b61062f576040517f08c379a000000000000000000000000000000000000000000000000000000000815260040161062690612a52565b60405180910390fd5b6004600083815260200190815260200160002060009054906101000a900473ffffffffffffffffffffffffffffffffffffffff169050919050565b600061067582610946565b90508073ffffffffffffffffffffffffffffffffffffffff168373ffffffffffffffffffffffffffffffffffffffff1614156106e6576040517f08c379a00000000000000000000000000000000000000000000000000000000081526004016106dd90612ab2565b60405180910390fd5b8073ffffffffffffffffffffffffffffffffffffffff16610705610f5b565b73ffffffffffffffffffffffffffffffffffffffff16148061073457506107338161072e610f5b565b610cf9565b5b610773576040517f08c379a000000000000000000000000000000000000000000000000000000000815260040161076a90612992565b60405180910390fd5b61077d8383610f63565b505050565b61079361078d610f5b565b8261101c565b6107d2576040517f08c379a00000000000000000000000000000000000000000000000000000000081526004016107c990612ad2565b60405180910390fd5b6107dd8383836110fa565b505050565b6107ea610f5b565b73ffffffffffffffffffffffffffffffffffffffff16610808610b38565b73ffffffffffffffffffffffffffffffffffffffff161461085e576040517f08c379a000000000000000000000000000000000000000000000000000000000815260040161085590612a72565b60405180910390fd5b600033905060008173ffffffffffffffffffffffffffffffffffffffff163190503373ffffffffffffffffffffffffffffffffffffffff166108fc829081150290604051600060405180830381858888f193505050501580156108c5573d6000803e3d6000fd5b505050565b6108e583838360405180602001604052806000815250610c0a565b505050565b6108fb6108f5610f5b565b8261101c565b61093a576040517f08c379a000000000000000000000000000000000000000000000000000000000815260040161093190612b12565b60405180910390fd5b61094381611361565b50565b6000806002600084815260200190815260200160002060009054906101000a900473ffffffffffffffffffffffffffffffffffffffff169050600073ffffffffffffffffffffffffffffffffffffffff168173ffffffffffffffffffffffffffffffffffffffff1614156109ef576040517f08c379a00000000000000000000000000000000000000000000000000000000081526004016109e6906129d2565b60405180910390fd5b80915050919050565b60008073ffffffffffffffffffffffffffffffffffffffff168273ffffffffffffffffffffffffffffffffffffffff161415610a69576040517f08c379a0000000000000000000000000000000000000000000000000000000008152600401610a60906129b2565b60405180910390fd5b600360008373ffffffffffffffffffffffffffffffffffffffff1673ffffffffffffffffffffffffffffffffffffffff168152602001908152602001600020549050919050565b610ab8610f5b565b73ffffffffffffffffffffffffffffffffffffffff16610ad6610b38565b73ffffffffffffffffffffffffffffffffffffffff1614610b2c576040517f08c379a0000000000000000000000000000000000000000000000000000000008152600401610b2390612a72565b60405180910390fd5b610b36600061136d565b565b6000600760009054906101000a900473ffffffffffffffffffffffffffffffffffffffff16905090565b606060018054610b7190612d88565b80601f0160208091040260200160405190810160405280929190818152602001828054610b9d90612d88565b8015610bea5780601f10610bbf57610100808354040283529160200191610bea565b820191906000526020600020905b815481529060010190602001808311610bcd57829003601f168201915b5050505050905090565b610c06610bff610f5b565b8383611433565b5050565b610c1b610c15610f5b565b8361101c565b610c5a576040517f08c379a0000000000000000000000000000000000000000000000000000000008152600401610c5190612ad2565b60405180910390fd5b610c66848484846115a0565b50505050565b6060610c77826115fc565b9050919050565b671bc16d674ec800003414610cc8576040517f08c379a0000000000000000000000000000000000000000000000000000000008152600401610cbf90612af2565b60405180910390fd5b6000610cd4600861174e565b9050610ce0600861175c565b610cea8382611772565b610cf48183611790565b505050565b6000600560008473ffffffffffffffffffffffffffffffffffffffff1673ffffffffffffffffffffffffffffffffffffffff16815260200190815260200160002060008373ffffffffffffffffffffffffffffffffffffffff1673ffffffffffffffffffffffffffffffffffffffff16815260200190815260200160002060009054906101000a900460ff16905092915050565b610d95610f5b565b73ffffffffffffffffffffffffffffffffffffffff16610db3610b38565b73ffffffffffffffffffffffffffffffffffffffff1614610e09576040517f08c379a0000000000000000000000000000000000000000000000000000000008152600401610e0090612a72565b60405180910390fd5b600073ffffffffffffffffffffffffffffffffffffffff168173ffffffffffffffffffffffffffffffffffffffff161415610e79576040517f08c379a0000000000000000000000000000000000000000000000000000000008152600401610e70906128d2565b60405180910390fd5b610e828161136d565b50565b60007f01ffc9a7000000000000000000000000000000000000000000000000000000007bffffffffffffffffffffffffffffffffffffffffffffffffffffffff1916827bffffffffffffffffffffffffffffffffffffffffffffffffffffffff1916149050919050565b60008073ffffffffffffffffffffffffffffffffffffffff166002600084815260200190815260200160002060009054906101000a900473ffffffffffffffffffffffffffffffffffffffff1673ffffffffffffffffffffffffffffffffffffffff1614159050919050565b600033905090565b816004600083815260200190815260200160002060006101000a81548173ffffffffffffffffffffffffffffffffffffffff021916908373ffffffffffffffffffffffffffffffffffffffff160217905550808273ffffffffffffffffffffffffffffffffffffffff16610fd683610946565b73ffffffffffffffffffffffffffffffffffffffff167f8c5be1e5ebec7d5bd14f71427d1e84f3dd0314c0f7b2291e5b200ac8c7c3b92560405160405180910390a45050565b600061102782610eef565b611066576040517f08c379a000000000000000000000000000000000000000000000000000000000815260040161105d90612972565b60405180910390fd5b600061107183610946565b90508073ffffffffffffffffffffffffffffffffffffffff168473ffffffffffffffffffffffffffffffffffffffff1614806110e057508373ffffffffffffffffffffffffffffffffffffffff166110c8846105e5565b73ffffffffffffffffffffffffffffffffffffffff16145b806110f157506110f08185610cf9565b5b91505092915050565b8273ffffffffffffffffffffffffffffffffffffffff1661111a82610946565b73ffffffffffffffffffffffffffffffffffffffff1614611170576040517f08c379a0000000000000000000000000000000000000000000000000000000008152600401611167906128f2565b60405180910390fd5b600073ffffffffffffffffffffffffffffffffffffffff168273ffffffffffffffffffffffffffffffffffffffff1614156111e0576040517f08c379a00000000000000000000000000000000000000000000000000000000081526004016111d790612932565b60405180910390fd5b6111eb838383611804565b6111f6600082610f63565b6001600360008573ffffffffffffffffffffffffffffffffffffffff1673ffffffffffffffffffffffffffffffffffffffff16815260200190815260200160002060008282546112469190612c9e565b925050819055506001600360008473ffffffffffffffffffffffffffffffffffffffff1673ffffffffffffffffffffffffffffffffffffffff168152602001908152602001600020600082825461129d9190612c17565b92505081905550816002600083815260200190815260200160002060006101000a81548173ffffffffffffffffffffffffffffffffffffffff021916908373ffffffffffffffffffffffffffffffffffffffff160217905550808273ffffffffffffffffffffffffffffffffffffffff168473ffffffffffffffffffffffffffffffffffffffff167fddf252ad1be2c89b69c2b068fc378daa952ba7f163c4a11628f55a4df523b3ef60405160405180910390a461135c838383611809565b505050565b61136a8161180e565b50565b6000600760009054906101000a900473ffffffffffffffffffffffffffffffffffffffff16905081600760006101000a81548173ffffffffffffffffffffffffffffffffffffffff021916908373ffffffffffffffffffffffffffffffffffffffff1602179055508173ffffffffffffffffffffffffffffffffffffffff168173ffffffffffffffffffffffffffffffffffffffff167f8be0079c531659141344cd1fd0a4f28419497f9722a3daafe3b4186f6b6457e060405160405180910390a35050565b8173ffffffffffffffffffffffffffffffffffffffff168373ffffffffffffffffffffffffffffffffffffffff1614156114a2576040517f08c379a000000000000000000000000000000000000000000000000000000000815260040161149990612952565b60405180910390fd5b80600560008573ffffffffffffffffffffffffffffffffffffffff1673ffffffffffffffffffffffffffffffffffffffff16815260200190815260200160002060008473ffffffffffffffffffffffffffffffffffffffff1673ffffffffffffffffffffffffffffffffffffffff16815260200190815260200160002060006101000a81548160ff0219169083151502179055508173ffffffffffffffffffffffffffffffffffffffff168373ffffffffffffffffffffffffffffffffffffffff167f17307eab39ab6107e8899845ad3d59bd9653f200f220920489ca2b5937696c31836040516115939190612875565b60405180910390a3505050565b6115ab8484846110fa565b6115b784848484611861565b6115f6576040517f08c379a00000000000000000000000000000000000000000000000000000000081526004016115ed906128b2565b60405180910390fd5b50505050565b606061160782610eef565b611646576040517f08c379a000000000000000000000000000000000000000000000000000000000815260040161163d90612a32565b60405180910390fd5b600060066000848152602001908152602001600020805461166690612d88565b80601f016020809104026020016040519081016040528092919081815260200182805461169290612d88565b80156116df5780601f106116b4576101008083540402835291602001916116df565b820191906000526020600020905b8154815290600101906020018083116116c257829003601f168201915b5050505050905060006116f06119f8565b9050600081511415611706578192505050611749565b60008251111561173b5780826040516020016117239291906127ea565b60405160208183030381529060405292505050611749565b61174484611a0f565b925050505b919050565b600081600001549050919050565b6001816000016000828254019250508190555050565b61178c828260405180602001604052806000815250611ab6565b5050565b61179982610eef565b6117d8576040517f08c379a00000000000000000000000000000000000000000000000000000000081526004016117cf906129f2565b60405180910390fd5b806006600084815260200190815260200160002090805190602001906117ff929190611f8c565b505050565b505050565b505050565b61181781611b11565b600060066000838152602001908152602001600020805461183790612d88565b90501461185e5760066000828152602001908152602001600020600061185d9190612012565b5b50565b60006118828473ffffffffffffffffffffffffffffffffffffffff16611c2e565b156119eb578373ffffffffffffffffffffffffffffffffffffffff1663150b7a026118ab610f5b565b8786866040518563ffffffff1660e01b81526004016118cd9493929190612829565b602060405180830381600087803b1580156118e757600080fd5b505af192505050801561191857506040513d601f19601f820116820180604052508101906119159190612404565b60015b61199b573d8060008114611948576040519150601f19603f3d011682016040523d82523d6000602084013e61194d565b606091505b50600081511415611993576040517f08c379a000000000000000000000000000000000000000000000000000000000815260040161198a906128b2565b60405180910390fd5b805181602001fd5b63150b7a0260e01b7bffffffffffffffffffffffffffffffffffffffffffffffffffffffff1916817bffffffffffffffffffffffffffffffffffffffffffffffffffffffff1916149150506119f0565b600190505b949350505050565b606060405180602001604052806000815250905090565b6060611a1a82610eef565b611a59576040517f08c379a0000000000000000000000000000000000000000000000000000000008152600401611a5090612a92565b60405180910390fd5b6000611a636119f8565b90506000815111611a835760405180602001604052806000815250611aae565b80611a8d84611c51565b604051602001611a9e9291906127ea565b6040516020818303038152906040525b915050919050565b611ac08383611db2565b611acd6000848484611861565b611b0c576040517f08c379a0000000000000000000000000000000000000000000000000000000008152600401611b03906128b2565b60405180910390fd5b505050565b6000611b1c82610946565b9050611b2a81600084611804565b611b35600083610f63565b6001600360008373ffffffffffffffffffffffffffffffffffffffff1673ffffffffffffffffffffffffffffffffffffffff1681526020019081526020016000206000828254611b859190612c9e565b925050819055506002600083815260200190815260200160002060006101000a81549073ffffffffffffffffffffffffffffffffffffffff021916905581600073ffffffffffffffffffffffffffffffffffffffff168273ffffffffffffffffffffffffffffffffffffffff167fddf252ad1be2c89b69c2b068fc378daa952ba7f163c4a11628f55a4df523b3ef60405160405180910390a4611c2a81600084611809565b5050565b6000808273ffffffffffffffffffffffffffffffffffffffff163b119050919050565b60606000821415611c99576040518060400160405280600181526020017f30000000000000000000000000000000000000000000000000000000000000008152509050611dad565b600082905060005b60008214611ccb578080611cb490612deb565b915050600a82611cc49190612c6d565b9150611ca1565b60008167ffffffffffffffff811115611ce757611ce6612f21565b5b6040519080825280601f01601f191660200182016040528015611d195781602001600182028036833780820191505090505b5090505b60008514611da657600182611d329190612c9e565b9150600a85611d419190612e34565b6030611d4d9190612c17565b60f81b818381518110611d6357611d62612ef2565b5b60200101907effffffffffffffffffffffffffffffffffffffffffffffffffffffffffffff1916908160001a905350600a85611d9f9190612c6d565b9450611d1d565b8093505050505b919050565b600073ffffffffffffffffffffffffffffffffffffffff168273ffffffffffffffffffffffffffffffffffffffff161415611e22576040517f08c379a0000000000000000000000000000000000000000000000000000000008152600401611e1990612a12565b60405180910390fd5b611e2b81610eef565b15611e6b576040517f08c379a0000000000000000000000000000000000000000000000000000000008152600401611e6290612912565b60405180910390fd5b611e7760008383611804565b6001600360008473ffffffffffffffffffffffffffffffffffffffff1673ffffffffffffffffffffffffffffffffffffffff1681526020019081526020016000206000828254611ec79190612c17565b92505081905550816002600083815260200190815260200160002060006101000a81548173ffffffffffffffffffffffffffffffffffffffff021916908373ffffffffffffffffffffffffffffffffffffffff160217905550808273ffffffffffffffffffffffffffffffffffffffff16600073ffffffffffffffffffffffffffffffffffffffff167fddf252ad1be2c89b69c2b068fc378daa952ba7f163c4a11628f55a4df523b3ef60405160405180910390a4611f8860008383611809565b5050565b828054611f9890612d88565b90600052602060002090601f016020900481019282611fba5760008555612001565b82601f10611fd357805160ff1916838001178555612001565b82800160010185558215612001579182015b82811115612000578251825591602001919060010190611fe5565b5b50905061200e9190612052565b5090565b50805461201e90612d88565b6000825580601f10612030575061204f565b601f01602090049060005260206000209081019061204e9190612052565b5b50565b5b8082111561206b576000816000905550600101612053565b5090565b600061208261207d84612b72565b612b4d565b90508281526020810184848401111561209e5761209d612f55565b5b6120a9848285612d46565b509392505050565b60006120c46120bf84612ba3565b612b4d565b9050828152602081018484840111156120e0576120df612f55565b5b6120eb848285612d46565b509392505050565b60008135905061210281613509565b92915050565b60008135905061211781613520565b92915050565b60008135905061212c81613537565b92915050565b60008151905061214181613537565b92915050565b600082601f83011261215c5761215b612f50565b5b813561216c84826020860161206f565b91505092915050565b600082601f83011261218a57612189612f50565b5b813561219a8482602086016120b1565b91505092915050565b6000813590506121b28161354e565b92915050565b6000602082840312156121ce576121cd612f5f565b5b60006121dc848285016120f3565b91505092915050565b600080604083850312156121fc576121fb612f5f565b5b600061220a858286016120f3565b925050602061221b858286016120f3565b9150509250929050565b60008060006060848603121561223e5761223d612f5f565b5b600061224c868287016120f3565b935050602061225d868287016120f3565b925050604061226e868287016121a3565b9150509250925092565b6000806000806080858703121561229257612291612f5f565b5b60006122a0878288016120f3565b94505060206122b1878288016120f3565b93505060406122c2878288016121a3565b925050606085013567ffffffffffffffff8111156122e3576122e2612f5a565b5b6122ef87828801612147565b91505092959194509250565b6000806040838503121561231257612311612f5f565b5b6000612320858286016120f3565b925050602061233185828601612108565b9150509250929050565b6000806040838503121561235257612351612f5f565b5b6000612360858286016120f3565b925050602083013567ffffffffffffffff81111561238157612380612f5a565b5b61238d85828601612175565b9150509250929050565b600080604083850312156123ae576123ad612f5f565b5b60006123bc858286016120f3565b92505060206123cd858286016121a3565b9150509250929050565b6000602082840312156123ed576123ec612f5f565b5b60006123fb8482850161211d565b91505092915050565b60006020828403121561241a57612419612f5f565b5b600061242884828501612132565b91505092915050565b60006020828403121561244757612446612f5f565b5b6000612455848285016121a3565b91505092915050565b61246781612cd2565b82525050565b61247681612ce4565b82525050565b600061248782612bd4565b6124918185612bea565b93506124a1818560208601612d55565b6124aa81612f64565b840191505092915050565b60006124c082612bdf565b6124ca8185612bfb565b93506124da818560208601612d55565b6124e381612f64565b840191505092915050565b60006124f982612bdf565b6125038185612c0c565b9350612513818560208601612d55565b80840191505092915050565b600061252c603283612bfb565b915061253782612f75565b604082019050919050565b600061254f602683612bfb565b915061255a82612fc4565b604082019050919050565b6000612572602583612bfb565b915061257d82613013565b604082019050919050565b6000612595601c83612bfb565b91506125a082613062565b602082019050919050565b60006125b8602483612bfb565b91506125c38261308b565b604082019050919050565b60006125db601983612bfb565b91506125e6826130da565b602082019050919050565b60006125fe602c83612bfb565b915061260982613103565b604082019050919050565b6000612621603883612bfb565b915061262c82613152565b604082019050919050565b6000612644602a83612bfb565b915061264f826131a1565b604082019050919050565b6000612667602983612bfb565b9150612672826131f0565b604082019050919050565b600061268a602e83612bfb565b91506126958261323f565b604082019050919050565b60006126ad602083612bfb565b91506126b88261328e565b602082019050919050565b60006126d0603183612bfb565b91506126db826132b7565b604082019050919050565b60006126f3602c83612bfb565b91506126fe82613306565b604082019050919050565b6000612716602083612bfb565b915061272182613355565b602082019050919050565b6000612739602f83612bfb565b91506127448261337e565b604082019050919050565b600061275c602183612bfb565b9150612767826133cd565b604082019050919050565b600061277f603183612bfb565b915061278a8261341c565b604082019050919050565b60006127a2602583612bfb565b91506127ad8261346b565b604082019050919050565b60006127c5603083612bfb565b91506127d0826134ba565b604082019050919050565b6127e481612d3c565b82525050565b60006127f682856124ee565b915061280282846124ee565b91508190509392505050565b6000602082019050612823600083018461245e565b92915050565b600060808201905061283e600083018761245e565b61284b602083018661245e565b61285860408301856127db565b818103606083015261286a818461247c565b905095945050505050565b600060208201905061288a600083018461246d565b92915050565b600060208201905081810360008301526128aa81846124b5565b905092915050565b600060208201905081810360008301526128cb8161251f565b9050919050565b600060208201905081810360008301526128eb81612542565b9050919050565b6000602082019050818103600083015261290b81612565565b9050919050565b6000602082019050818103600083015261292b81612588565b9050919050565b6000602082019050818103600083015261294b816125ab565b9050919050565b6000602082019050818103600083015261296b816125ce565b9050919050565b6000602082019050818103600083015261298b816125f1565b9050919050565b600060208201905081810360008301526129ab81612614565b9050919050565b600060208201905081810360008301526129cb81612637565b9050919050565b600060208201905081810360008301526129eb8161265a565b9050919050565b60006020820190508181036000830152612a0b8161267d565b9050919050565b60006020820190508181036000830152612a2b816126a0565b9050919050565b60006020820190508181036000830152612a4b816126c3565b9050919050565b60006020820190508181036000830152612a6b816126e6565b9050919050565b60006020820190508181036000830152612a8b81612709565b9050919050565b60006020820190508181036000830152612aab8161272c565b9050919050565b60006020820190508181036000830152612acb8161274f565b9050919050565b60006020820190508181036000830152612aeb81612772565b9050919050565b60006020820190508181036000830152612b0b81612795565b9050919050565b60006020820190508181036000830152612b2b816127b8565b9050919050565b6000602082019050612b4760008301846127db565b92915050565b6000612b57612b68565b9050612b638282612dba565b919050565b6000604051905090565b600067ffffffffffffffff821115612b8d57612b8c612f21565b5b612b9682612f64565b9050602081019050919050565b600067ffffffffffffffff821115612bbe57612bbd612f21565b5b612bc782612f64565b9050602081019050919050565b600081519050919050565b600081519050919050565b600082825260208201905092915050565b600082825260208201905092915050565b600081905092915050565b6000612c2282612d3c565b9150612c2d83612d3c565b9250827fffffffffffffffffffffffffffffffffffffffffffffffffffffffffffffffff03821115612c6257612c61612e65565b5b828201905092915050565b6000612c7882612d3c565b9150612c8383612d3c565b925082612c9357612c92612e94565b5b828204905092915050565b6000612ca982612d3c565b9150612cb483612d3c565b925082821015612cc757612cc6612e65565b5b828203905092915050565b6000612cdd82612d1c565b9050919050565b60008115159050919050565b60007fffffffff0000000000000000000000000000000000000000000000000000000082169050919050565b600073ffffffffffffffffffffffffffffffffffffffff82169050919050565b6000819050919050565b82818337600083830152505050565b60005b83811015612d73578082015181840152602081019050612d58565b83811115612d82576000848401525b50505050565b60006002820490506001821680612da057607f821691505b60208210811415612db457612db3612ec3565b5b50919050565b612dc382612f64565b810181811067ffffffffffffffff82111715612de257612de1612f21565b5b80604052505050565b6000612df682612d3c565b91507fffffffffffffffffffffffffffffffffffffffffffffffffffffffffffffffff821415612e2957612e28612e65565b5b600182019050919050565b6000612e3f82612d3c565b9150612e4a83612d3c565b925082612e5a57612e59612e94565b5b828206905092915050565b7f4e487b7100000000000000000000000000000000000000000000000000000000600052601160045260246000fd5b7f4e487b7100000000000000000000000000000000000000000000000000000000600052601260045260246000fd5b7f4e487b7100000000000000000000000000000000000000000000000000000000600052602260045260246000fd5b7f4e487b7100000000000000000000000000000000000000000000000000000000600052603260045260246000fd5b7f4e487b7100000000000000000000000000000000000000000000000000000000600052604160045260246000fd5b600080fd5b600080fd5b600080fd5b600080fd5b6000601f19601f8301169050919050565b7f4552433732313a207472616e7366657220746f206e6f6e20455243373231526560008201527f63656976657220696d706c656d656e7465720000000000000000000000000000602082015250565b7f4f776e61626c653a206e6577206f776e657220697320746865207a65726f206160008201527f6464726573730000000000000000000000000000000000000000000000000000602082015250565b7f4552433732313a207472616e736665722066726f6d20696e636f72726563742060008201527f6f776e6572000000000000000000000000000000000000000000000000000000602082015250565b7f4552433732313a20746f6b656e20616c7265616479206d696e74656400000000600082015250565b7f4552433732313a207472616e7366657220746f20746865207a65726f2061646460008201527f7265737300000000000000000000000000000000000000000000000000000000602082015250565b7f4552433732313a20617070726f766520746f2063616c6c657200000000000000600082015250565b7f4552433732313a206f70657261746f7220717565727920666f72206e6f6e657860008201527f697374656e7420746f6b656e0000000000000000000000000000000000000000602082015250565b7f4552433732313a20617070726f76652063616c6c6572206973206e6f74206f7760008201527f6e6572206e6f7220617070726f76656420666f7220616c6c0000000000000000602082015250565b7f4552433732313a2062616c616e636520717565727920666f7220746865207a6560008201527f726f206164647265737300000000000000000000000000000000000000000000602082015250565b7f4552433732313a206f776e657220717565727920666f72206e6f6e657869737460008201527f656e7420746f6b656e0000000000000000000000000000000000000000000000602082015250565b7f45524337323155524953746f726167653a2055524920736574206f66206e6f6e60008201527f6578697374656e7420746f6b656e000000000000000000000000000000000000602082015250565b7f4552433732313a206d696e7420746f20746865207a65726f2061646472657373600082015250565b7f45524337323155524953746f726167653a2055524920717565727920666f722060008201527f6e6f6e6578697374656e7420746f6b656e000000000000000000000000000000602082015250565b7f4552433732313a20617070726f76656420717565727920666f72206e6f6e657860008201527f697374656e7420746f6b656e0000000000000000000000000000000000000000602082015250565b7f4f776e61626c653a2063616c6c6572206973206e6f7420746865206f776e6572600082015250565b7f4552433732314d657461646174613a2055524920717565727920666f72206e6f60008201527f6e6578697374656e7420746f6b656e0000000000000000000000000000000000602082015250565b7f4552433732313a20617070726f76616c20746f2063757272656e74206f776e6560008201527f7200000000000000000000000000000000000000000000000000000000000000602082015250565b7f4552433732313a207472616e736665722063616c6c6572206973206e6f74206f60008201527f776e6572206e6f7220617070726f766564000000000000000000000000000000602082015250565b7f4f6e6c79203220676c6d7220616c6c6f77656420746f206265207472616e736660008201527f657265642e000000000000000000000000000000000000000000000000000000602082015250565b7f4552433732314275726e61626c653a2063616c6c6572206973206e6f74206f7760008201527f6e6572206e6f7220617070726f76656400000000000000000000000000000000602082015250565b61351281612cd2565b811461351d57600080fd5b50565b61352981612ce4565b811461353457600080fd5b50565b61354081612cf0565b811461354b57600080fd5b50565b61355781612d3c565b811461356257600080fd5b5056fea2646970667358221220c61ff469d86ee461ead14fef267b3689432196f19292c8c23d3b6b8582e2e03364736f6c63430008070033",
  "linkReferences": {},
  "deployedLinkReferences": {}
}